{"abi":[{"type":"function","name":"agentRatings","inputs":[{"name":"","type":"address","internalType":"address"},{"name":"","type":"uint256","internalType":"uint256"}],"outputs":[{"name":"rater","type":"address","internalType":"address"},{"name":"score","type":"uint8","internalType":"uint8"},{"name":"comment","type":"string","internalType":"string"},{"name":"timestamp","type":"uint256","internalType":"uint256"}],"stateMutability":"view"},{"type":"function","name":"agents","inputs":[{"name":"","type":"address","internalType":"address"}],"outputs":[{"name":"name","type":"string","internalType":"string"},{"name":"capabilitiesCSV","type":"string","internalType":"string"},{"name":"metadataURI","type":"string","internalType":"string"},{"name":"registeredAt","type":"uint256","internalType":"uint256"},{"name":"active","type":"bool","internalType":"bool"}],"stateMutability":"view"},{"type":"function","name":"deactivateAgent","inputs":[],"outputs":[],"stateMutability":"nonpayable"},{"type":"function","name":"discoverAgents","inputs":[{"name":"limit","type":"uint256","internalType":"uint256"}],"outputs":[{"name":"agentAddresses","type":"address[]","internalType":"address[]"},{"name":"names","type":"string[]","internalType":"string[]"},{"name":"trustScores","type":"uint256[]","internalType":"uint256[]"}],"stateMutability":"view"},{"type":"function","name":"getAgent","inputs":[{"name":"agent","type":"address","internalType":"address"}],"outputs":[{"name":"name","type":"string","internalType":"string"},{"name":"capabilitiesCSV","type":"string","internalType":"string"},{"name":"metadataURI","type":"string","internalType":"string"},{"name":"registeredAt","type":"uint256","internalType":"uint256"},{"name":"active","type":"bool","internalType":"bool"},{"name":"trustScore","type":"uint256","internalType":"uint256"},{"name":"numRatings","type":"uint256","internalType":"uint256"}],"stateMutability":"view"},{"type":"function","name":"getAgentCount","inputs":[],"outputs":[{"name":"","type":"uint256","internalType":"uint256"}],"stateMutability":"view"},{"type":"function","name":"getAgentRatings","inputs":[{"name":"agent","type":"address","internalType":"address"},{"name":"limit","type":"uint256","internalType":"uint256"}],"outputs":[{"name":"","type":"tuple[]","internalType":"struct PayLobsterRegistry.Rating[]","components":[{"name":"rater","type":"address","internalType":"address"},{"name":"score","type":"uint8","internalType":"uint8"},{"name":"comment","type":"string","internalType":"string"},{"name":"timestamp","type":"uint256","internalType":"uint256"}]}],"stateMutability":"view"},{"type":"function","name":"getAllAgents","inputs":[],"outputs":[{"name":"","type":"address[]","internalType":"address[]"}],"stateMutability":"view"},{"type":"function","name":"getTrustScore","inputs":[{"name":"agent","type":"address","internalType":"address"}],"outputs":[{"name":"score","type":"uint256","internalType":"uint256"},{"name":"ratings","type":"uint256","internalType":"uint256"}],"stateMutability":"view"},{"type":"function","name":"rateAgent","inputs":[{"name":"agent","type":"address","internalType":"address"},{"name":"score","type":"uint8","internalType":"uint8"},{"name":"comment","type":"string","internalType":"string"}],"outputs":[],"stateMutability":"nonpayable"},{"type":"function","name":"ratingCount","inputs":[{"name":"","type":"address","internalType":"address"}],"outputs":[{"name":"","type":"uint256","internalType":"uint256"}],"stateMutability":"view"},{"type":"function","name":"registerAgent","inputs":[{"name":"name","type":"string","internalType":"string"},{"name":"capabilitiesCSV","type":"string","internalType":"string"},{"name":"metadataURI","type":"string","internalType":"string"}],"outputs":[],"stateMutability":"nonpayable"},{"type":"function","name":"registeredAgents","inputs":[{"name":"","type":"uint256","internalType":"uint256"}],"outputs":[{"name":"","type":"address","internalType":"address"}],"stateMutability":"view"},{"type":"function","name":"totalScore","inputs":[{"name":"","type":"address","internalType":"address"}],"outputs":[{"name":"","type":"uint256","internalType":"uint256"}],"stateMutability":"view"},{"type":"function","name":"updateAgent","inputs":[{"name":"name","type":"string","internalType":"string"},{"name":"capabilitiesCSV","type":"string","internalType":"string"},{"name":"metadataURI","type":"string","internalType":"string"}],"outputs":[],"stateMutability":"nonpayable"},{"type":"event","name":"AgentDeactivated","inputs":[{"name":"agent","type":"address","indexed":true,"internalType":"address"}],"anonymous":false},{"type":"event","name":"AgentRated","inputs":[{"name":"agent","type":"address","indexed":true,"internalType":"address"},{"name":"rater","type":"address","indexed":true,"internalType":"address"},{"name":"score","type":"uint8","indexed":false,"internalType":"uint8"},{"name":"comment","type":"string","indexed":false,"internalType":"string"}],"anonymous":false},{"type":"event","name":"AgentRegistered","inputs":[{"name":"agent","type":"address","indexed":true,"internalType":"address"},{"name":"name","type":"string","indexed":false,"internalType":"string"},{"name":"capabilitiesCSV","type":"string","indexed":false,"internalType":"string"}],"anonymous":false},{"type":"event","name":"AgentUpdated","inputs":[{"name":"agent","type":"address","indexed":true,"internalType":"address"},{"name":"name","type":"string","indexed":false,"internalType":"string"},{"name":"capabilitiesCSV","type":"string","indexed":false,"internalType":"string"}],"anonymous":false}],"bytecode":{"object":"0x6080806040523460155761189d908161001a8239f35b5f80fdfe60806040526004361015610011575f80fd5b5f3560e01c806318e859ee1461111b5780632404165e146110e357806331fa9b8414610dbd5780633d8c94b414610af757806356a2d660146106c25780635e09eea1146106935780636d5f0da3146104ae578063733ee9d21461041757806384eda662146103df578063860e4ac61461034a57806391cab63e1461032d5780639a4fbf5b146102c6578063a7bd211c14610284578063fb3551ff146101685763fd66091e146100be575f80fd5b34610164576020366003190112610164576001600160a01b036100df61149d565b165f525f60205261013760405f206100f6816115b4565b90610103600182016115b4565b610153610112600284016115b4565b61014560ff60046003870154960154169360405197889760a0895260a08901906114ef565b9087820360208901526114ef565b9085820360408701526114ef565b916060840152151560808301520390f35b5f80fd5b34610164576020366003190112610164576001600160a01b0361018961149d565b16805f525f60205260405f2060405191635e09eea160e01b83526004830152604082602481305afa91821561027957610211925f915f91610248575b5060038301549160ff60048501541661022d6101e0866115b4565b9561021f6101fc60026101f5600185016115b4565b93016115b4565b91604051998a9960e08b5260e08b01906114ef565b9089820360208b01526114ef565b9087820360408901526114ef565b9360608601521515608085015260a084015260c08301520390f35b905061026c915060403d604011610272575b6102648183611593565b8101906117cf565b846101c5565b503d61025a565b6040513d5f823e3d90fd5b3461016457602036600319011261016457600435600454811015610164576102ad602091611654565b905460405160039290921b1c6001600160a01b03168152f35b34610164575f36600319011261016457335f525f6020526102f060ff600460405f2001541661166c565b335f525f602052600460405f200160ff198154169055337fa58c733780f5c1527d6106ff1e731cbf2e9ffc0eb11ad399ca33ea55f057ddf45f80a2005b34610164575f366003190112610164576020600454604051908152f35b34610164575f3660031901126101645760405180602060045491828152019060045f527f8a35acfbc15ff81a39ae7d344fd709f28e8600b4aa8c65c6b64bfe7fe36bd19b905f5b8181106103c0576103bc856103a881870382611593565b6040519182916020835260208301906114b3565b0390f35b82546001600160a01b0316845260209093019260019283019201610391565b34610164576020366003190112610164576001600160a01b0361040061149d565b165f526002602052602060405f2054604051908152f35b346101645760403660031901126101645761043061149d565b6001600160a01b03165f908152600160205260409020805460243591908210156101645760ff9161046091611513565b508054906104a46002610475600184016115b4565b9201549160405194859460018060a01b038116865260a01c1660208501526080604085015260808401906114ef565b9060608301520390f35b34610164576040366003190112610164576104c761149d565b6001600160a01b03165f90815260016020526040902080546024358082101561068c575080915b6104f7826117a4565b926105056040519485611593565b828452601f19610514846117a4565b015f5b8181106106565750505f198101908082115f5b8581106105c957866040518091602082016020835281518091526040830190602060408260051b8601019301915f905b82821061056957505050500390f35b919360019193955060208091603f19898203018552875190848060a01b03825116815260ff8383015116838201526060806105b360408501516080604086015260808501906114ef565b930151910152960192019201859493919261055a565b81610642578083035f190190848211610642576105e860019287611513565b506002604051916105f883611578565b60ff8154868060a01b038116855260a01c16602084015261061a8582016115b4565b604084015201546060820152610630828a6117bb565b5261063b81896117bb565b500161052a565b634e487b7160e01b5f52601160045260245ffd5b60209060409593955161066881611578565b5f81525f83820152606060408201525f606082015282828901015201939193610517565b90916104ee565b346101645760203660031901126101645760406106b66106b161149d565b6117e5565b82519182526020820152f35b34610164576106d03661142b565b9084929415610ac2578415610a7e57335f525f60205260ff600460405f20015416610a44576040519060a08201908282106001600160401b038311176108f75761073e9160405261072236868a611751565b835261072f368888611751565b93602084019485523691611751565b604082019081526060820190428252608083019360018552335f525f60205260405f2093518051906001600160401b0382116108f757610788826107828854611540565b886116a9565b602090601f83116001146109e1576107b792915f918361090b575b50508160011b915f199060031b1c19161790565b84555b51805160018501916001600160401b0382116108f7576107e4826107de8554611540565b856116a9565b602090601f831160011461097e5761081292915f918361090b5750508160011b915f199060031b1c19161790565b90555b51805160028401916001600160401b0382116108f757610839826107de8554611540565b602090601f831160011461091657918061086d926004979695945f9261090b5750508160011b915f199060031b1c19161790565b90555b516003820155019051151560ff80198354169116179055600454600160401b8110156108f7577f37b3aaf4f807403887412a5994aa1832eface4a8c15501a3311bf21d3279ea3f936108cb8260016108f29401600455611654565b81549060031b9033821b9160018060a01b03901b1916179055604051938493339785611727565b0390a2005b634e487b7160e01b5f52604160045260245ffd5b015190508c806107a3565b90601f19831691845f52815f20925f5b8181106109665750916001939185600499989796941061094e575b505050811b019055610870565b01515f1960f88460031b161c191690558b8080610941565b92936020600181928786015181550195019301610926565b90601f19831691845f52815f20925f5b8181106109c957509084600195949392106109b1575b505050811b019055610815565b01515f1960f88460031b161c191690558b80806109a4565b9293602060018192878601518155019501930161098e565b90601f19831691875f52815f20925f5b818110610a2c5750908460019594939210610a14575b505050811b0184556107ba565b01515f1960f88460031b161c191690558b8080610a07565b929360206001819287860151815501950193016109f1565b60405162461bcd60e51b8152602060048201526012602482015271105b1c9958591e481c9959da5cdd195c995960721b6044820152606490fd5b606460405162461bcd60e51b815260206004820152602060248201527f4174206c65617374206f6e65206361706162696c6974792072657175697265646044820152fd5b60405162461bcd60e51b815260206004820152600d60248201526c13985b59481c995c5d5a5c9959609a1b6044820152606490fd5b346101645760203660031901126101645760048054903580821015610db75750805b610b22826117a4565b91610b306040519384611593565b808352601f19610b3f826117a4565b01366020850137610b4f816117a4565b610b5c6040519182611593565b818152601f19610b6b836117a4565b015f5b818110610da6575050610b80826117a4565b93610b8e6040519586611593565b828552610b9a836117a4565b6020860190601f19013682375f935f5b86811080610d9d575b15610ce157610bc181611654565b60018060a01b0391549060031b1c165f525f60205260ff600460405f20015416610bf4575b610bef90611796565b610baa565b94610bfe86611654565b905460039190911b1c6001600160a01b0316610c1a82866117bb565b52610c2486611654565b60018060a01b0391549060031b1c165f525f602052610c4560405f206115b4565b610c4f82876117bb565b52610c5a81866117bb565b50610c6486611654565b905460408051635e09eea160e01b815260039390931b9190911c6001600160a01b0316600483015281602481305afa91821561027957610bef92610cba925f91610cc2575b50610cb4828c6117bb565b52611796565b959050610be6565b610cda915060403d8111610272576102648183611593565b508b610ca9565b505090610cfe9183876040519485946060865260608601906114b3565b8481036020860152825180825260208201916020808360051b8301019501925f915b838310610d68575050505050602090848303604086015251918281520191905f5b818110610d4f575050500390f35b8251845285945060209384019390920191600101610d41565b9193969750919394602080610d89600193601f198682030187528a516114ef565b980193019301909288979695949293610d20565b50818610610bb3565b806060602080938601015201610b6e565b90610b19565b3461016457606036600319011261016457610dd661149d565b6024359060ff8216809203610164576044356001600160401b03811161016457610e049036906004016113fe565b92909160018060a01b031691825f525f60205260ff600460405f20015416156110a75760018210158061109c575b156110635782331461102757825f52600160205260405f2060405190610e5782611578565b33825260208201848152610e6c368886611751565b906040840191825260608401924284528054600160401b8110156108f757610e9991600182018155611513565b9490946110145751845491516001600160a81b03199092166001600160a01b03919091161760a09190911b60ff60a01b1617835551805160018401916001600160401b0382116108f757610ef1826107de8554611540565b602090601f8311600114610fad579180610f249260029695945f92610fa25750508160011b915f199060031b1c19161790565b90555b51910155825f52600260205260405f20918254818101809111610642577fb238aabd2f55ee73bad6fd4e92fc3fb898e7e6e63893b262b181b29e9c064eb19355835f52600360205260405f20610f7d8154611796565b9055610f9d60405192839283526040602084015233966040840191611707565b0390a3005b015190508b806107a3565b90601f19831691845f52815f20925f5b818110610ffc575091600193918560029897969410610fe4575b505050811b019055610f27565b01515f1960f88460031b161c191690558a8080610fd7565b92936020600181928786015181550195019301610fbd565b634e487b7160e01b5f525f60045260245ffd5b60405162461bcd60e51b815260206004820152601460248201527321b0b73737ba103930ba32903cb7bab939b2b63360611b6044820152606490fd5b60405162461bcd60e51b815260206004820152601160248201527053636f7265206d75737420626520312d3560781b6044820152606490fd5b506005821115610e32565b60405162461bcd60e51b81526020600482015260146024820152731059d95b9d081b9bdd081c9959da5cdd195c995960621b6044820152606490fd5b34610164576020366003190112610164576001600160a01b0361110461149d565b165f526003602052602060405f2054604051908152f35b34610164576111293661142b565b94939194335f525f60205261114760ff600460405f2001541661166c565b335f525f60205260405f206001600160401b0384116108f7576111748461116e8354611540565b836116a9565b5f84601f811160011461139b57806111a0925f91611390575b508160011b915f199060031b1c19161790565b90555b335f525f602052600160405f20016001600160401b0387116108f7576111cd8761116e8354611540565b5f87601f811160011461132d57806111f8925f9161132257508160011b915f199060031b1c19161790565b90555b335f525f602052600260405f2001916001600160401b0382116108f757611226826107de8554611540565b5f90601f831160011461129757827fa2c9530e3d0bc4c899db52361ec84bcc1c9f87a5b7d1b584b3de374f36d7a1899798936108f2959361127b935f9261128c5750508160011b915f199060031b1c19161790565b90555b604051938493339785611727565b013590508a806107a3565b601f19831691845f5260205f20925f5b81811061130a57509260019285927fa2c9530e3d0bc4c899db52361ec84bcc1c9f87a5b7d1b584b3de374f36d7a1899a9b966108f29896106112f1575b505050811b01905561127e565b01355f19600384901b60f8161c191690558980806112e4565b919360206001819287870135815501950192016112a7565b90508701358a61118d565b50601f19881690825f528860205f20925f5b81811061137557501061135c575b5050600187811b0190556111fb565b8601355f1960038a901b60f8161c19169055878061134d565b8984013585556001909401936020938401938c93500161133f565b90508801358a61118d565b50601f19851690825f528560205f20925f5b8181106113e35750106113ca575b5050600184811b0190556111a3565b8701355f19600387901b60f8161c1916905587806113bb565b8a8401358555600190940193602093840193899350016113ad565b9181601f84011215610164578235916001600160401b038311610164576020838186019501011161016457565b6060600319820112610164576004356001600160401b0381116101645781611455916004016113fe565b929092916024356001600160401b0381116101645781611477916004016113fe565b92909291604435906001600160401b03821161016457611499916004016113fe565b9091565b600435906001600160a01b038216820361016457565b90602080835192838152019201905f5b8181106114d05750505090565b82516001600160a01b03168452602093840193909201916001016114c3565b805180835260209291819084018484015e5f828201840152601f01601f1916010190565b805482101561152c575f52600360205f20910201905f90565b634e487b7160e01b5f52603260045260245ffd5b90600182811c9216801561156e575b602083101461155a57565b634e487b7160e01b5f52602260045260245ffd5b91607f169161154f565b608081019081106001600160401b038211176108f757604052565b90601f801991011681019081106001600160401b038211176108f757604052565b9060405191825f8254926115c784611540565b808452936001811690811561163257506001146115ee575b506115ec92500383611593565b565b90505f9291925260205f20905f915b8183106116165750509060206115ec928201015f6115df565b60209193508060019154838589010152019101909184926115fd565b9050602092506115ec94915060ff191682840152151560051b8201015f6115df565b60045481101561152c5760045f5260205f2001905f90565b1561167357565b60405162461bcd60e51b815260206004820152600e60248201526d139bdd081c9959da5cdd195c995960921b6044820152606490fd5b919091601f83116116ba575b505050565b8183116116c657505050565b5f5260205f206020601f830160051c92106116ff575b81601f9101920160051c03905f5b828110156116b5575f828201556001016116ea565b5f91506116dc565b908060209392818452848401375f828201840152601f01601f1916010190565b92906117409061174e9593604086526040860191611707565b926020818503910152611707565b90565b9291926001600160401b0382116108f7576040519161177a601f8201601f191660200184611593565b829481845281830111610164578281602093845f960137010152565b5f1981146106425760010190565b6001600160401b0381116108f75760051b60200190565b805182101561152c5760209160051b010190565b9190826040910312610164576020825192015190565b6001600160a01b03165f818152600360205260409020549091901561185f57815f52600260205260405f20549160148302928084046014149015171561064257805f52600360205260405f205490811561184b575f52600360205260405f205492049190565b634e487b7160e01b5f52601260045260245ffd5b603291505f9056fea264697066735822122051d2ceec54afaec6195805196ec53bef76ed9afa3361a156b952019c0154ebd364736f6c63430008210033","linkReferences":{}},"methodIdentifiers":{"agentRatings(address,uint256)":"733ee9d2","agents(address)":"fd66091e","deactivateAgent()":"9a4fbf5b","discoverAgents(uint256)":"3d8c94b4","getAgent(address)":"fb3551ff","getAgentCount()":"91cab63e","getAgentRatings(address,uint256)":"6d5f0da3","getAllAgents()":"860e4ac6","getTrustScore(address)":"5e09eea1","rateAgent(address,uint8,string)":"31fa9b84","ratingCount(address)":"2404165e","registerAgent(string,string,string)":"56a2d660","registeredAgents(uint256)":"a7bd211c","totalScore(address)":"84eda662","updateAgent(string,string,string)":"18e859ee"},"id":45}