{"abi":[{"type":"constructor","inputs":[{"name":"_usdc","type":"address","internalType":"address"},{"name":"_registry","type":"address","internalType":"address"},{"name":"_arbiter","type":"address","internalType":"address"}],"stateMutability":"nonpayable"},{"type":"function","name":"CREDIT_REPAYMENT_DAYS","inputs":[],"outputs":[{"name":"","type":"uint256","internalType":"uint256"}],"stateMutability":"view"},{"type":"function","name":"MAX_CREDIT_PERCENTAGE","inputs":[],"outputs":[{"name":"","type":"uint256","internalType":"uint256"}],"stateMutability":"view"},{"type":"function","name":"MIN_CREDIT_SCORE_FOR_CREDIT","inputs":[],"outputs":[{"name":"","type":"uint256","internalType":"uint256"}],"stateMutability":"view"},{"type":"function","name":"arbiter","inputs":[],"outputs":[{"name":"","type":"address","internalType":"address"}],"stateMutability":"view"},{"type":"function","name":"canRateEscrow","inputs":[{"name":"escrowId","type":"uint256","internalType":"uint256"},{"name":"rater","type":"address","internalType":"address"}],"outputs":[{"name":"","type":"bool","internalType":"bool"}],"stateMutability":"view"},{"type":"function","name":"checkCreditEligibility","inputs":[{"name":"buyer","type":"address","internalType":"address"},{"name":"amount","type":"uint256","internalType":"uint256"}],"outputs":[{"name":"eligible","type":"bool","internalType":"bool"},{"name":"maxCreditAmount","type":"uint256","internalType":"uint256"},{"name":"minCollateral","type":"uint256","internalType":"uint256"},{"name":"creditScore","type":"uint256","internalType":"uint256"}],"stateMutability":"view"},{"type":"function","name":"createCreditEscrow","inputs":[{"name":"seller","type":"address","internalType":"address"},{"name":"amount","type":"uint256","internalType":"uint256"},{"name":"collateralAmount","type":"uint256","internalType":"uint256"},{"name":"description","type":"string","internalType":"string"},{"name":"deadline","type":"uint256","internalType":"uint256"}],"outputs":[{"name":"escrowId","type":"uint256","internalType":"uint256"}],"stateMutability":"nonpayable"},{"type":"function","name":"createEscrow","inputs":[{"name":"seller","type":"address","internalType":"address"},{"name":"amount","type":"uint256","internalType":"uint256"},{"name":"description","type":"string","internalType":"string"},{"name":"deadline","type":"uint256","internalType":"uint256"}],"outputs":[{"name":"escrowId","type":"uint256","internalType":"uint256"}],"stateMutability":"nonpayable"},{"type":"function","name":"disputeEscrow","inputs":[{"name":"escrowId","type":"uint256","internalType":"uint256"}],"outputs":[],"stateMutability":"nonpayable"},{"type":"function","name":"escrowCount","inputs":[],"outputs":[{"name":"","type":"uint256","internalType":"uint256"}],"stateMutability":"view"},{"type":"function","name":"escrows","inputs":[{"name":"","type":"uint256","internalType":"uint256"}],"outputs":[{"name":"buyer","type":"address","internalType":"address"},{"name":"seller","type":"address","internalType":"address"},{"name":"amount","type":"uint256","internalType":"uint256"},{"name":"collateral","type":"uint256","internalType":"uint256"},{"name":"status","type":"uint8","internalType":"enum PayLobsterEscrowV2.EscrowStatus"},{"name":"escrowType","type":"uint8","internalType":"enum PayLobsterEscrowV2.EscrowType"},{"name":"description","type":"string","internalType":"string"},{"name":"createdAt","type":"uint256","internalType":"uint256"},{"name":"deadline","type":"uint256","internalType":"uint256"},{"name":"loanId","type":"uint256","internalType":"uint256"},{"name":"buyerRated","type":"bool","internalType":"bool"},{"name":"sellerRated","type":"bool","internalType":"bool"}],"stateMutability":"view"},{"type":"function","name":"getEscrow","inputs":[{"name":"escrowId","type":"uint256","internalType":"uint256"}],"outputs":[{"name":"buyer","type":"address","internalType":"address"},{"name":"seller","type":"address","internalType":"address"},{"name":"amount","type":"uint256","internalType":"uint256"},{"name":"collateral","type":"uint256","internalType":"uint256"},{"name":"status","type":"uint8","internalType":"enum PayLobsterEscrowV2.EscrowStatus"},{"name":"escrowType","type":"uint8","internalType":"enum PayLobsterEscrowV2.EscrowType"},{"name":"description","type":"string","internalType":"string"},{"name":"createdAt","type":"uint256","internalType":"uint256"},{"name":"deadline","type":"uint256","internalType":"uint256"},{"name":"buyerRated","type":"bool","internalType":"bool"},{"name":"sellerRated","type":"bool","internalType":"bool"}],"stateMutability":"view"},{"type":"function","name":"owner","inputs":[],"outputs":[{"name":"","type":"address","internalType":"address"}],"stateMutability":"view"},{"type":"function","name":"rateCounterparty","inputs":[{"name":"escrowId","type":"uint256","internalType":"uint256"},{"name":"score","type":"uint8","internalType":"uint8"},{"name":"comment","type":"string","internalType":"string"}],"outputs":[],"stateMutability":"nonpayable"},{"type":"function","name":"refundEscrow","inputs":[{"name":"escrowId","type":"uint256","internalType":"uint256"}],"outputs":[],"stateMutability":"nonpayable"},{"type":"function","name":"registry","inputs":[],"outputs":[{"name":"","type":"address","internalType":"contract IPayLobsterRegistry"}],"stateMutability":"view"},{"type":"function","name":"releaseEscrow","inputs":[{"name":"escrowId","type":"uint256","internalType":"uint256"}],"outputs":[],"stateMutability":"nonpayable"},{"type":"function","name":"repayCreditPortion","inputs":[{"name":"escrowId","type":"uint256","internalType":"uint256"}],"outputs":[],"stateMutability":"nonpayable"},{"type":"function","name":"resolveDispute","inputs":[{"name":"escrowId","type":"uint256","internalType":"uint256"},{"name":"releaseToSeller","type":"bool","internalType":"bool"}],"outputs":[],"stateMutability":"nonpayable"},{"type":"function","name":"setArbiter","inputs":[{"name":"newArbiter","type":"address","internalType":"address"}],"outputs":[],"stateMutability":"nonpayable"},{"type":"function","name":"setRegistry","inputs":[{"name":"_registry","type":"address","internalType":"address"}],"outputs":[],"stateMutability":"nonpayable"},{"type":"function","name":"transferOwnership","inputs":[{"name":"newOwner","type":"address","internalType":"address"}],"outputs":[],"stateMutability":"nonpayable"},{"type":"function","name":"usdc","inputs":[],"outputs":[{"name":"","type":"address","internalType":"contract IERC20"}],"stateMutability":"view"},{"type":"event","name":"CreditRepaid","inputs":[{"name":"escrowId","type":"uint256","indexed":true,"internalType":"uint256"},{"name":"buyer","type":"address","indexed":true,"internalType":"address"},{"name":"amount","type":"uint256","indexed":false,"internalType":"uint256"}],"anonymous":false},{"type":"event","name":"DisputeResolved","inputs":[{"name":"id","type":"uint256","indexed":true,"internalType":"uint256"},{"name":"winner","type":"address","indexed":true,"internalType":"address"},{"name":"amount","type":"uint256","indexed":false,"internalType":"uint256"}],"anonymous":false},{"type":"event","name":"EscrowCreated","inputs":[{"name":"id","type":"uint256","indexed":true,"internalType":"uint256"},{"name":"buyer","type":"address","indexed":true,"internalType":"address"},{"name":"seller","type":"address","indexed":true,"internalType":"address"},{"name":"amount","type":"uint256","indexed":false,"internalType":"uint256"},{"name":"collateral","type":"uint256","indexed":false,"internalType":"uint256"},{"name":"escrowType","type":"uint8","indexed":false,"internalType":"enum PayLobsterEscrowV2.EscrowType"},{"name":"description","type":"string","indexed":false,"internalType":"string"}],"anonymous":false},{"type":"event","name":"EscrowDisputed","inputs":[{"name":"id","type":"uint256","indexed":true,"internalType":"uint256"},{"name":"disputer","type":"address","indexed":true,"internalType":"address"}],"anonymous":false},{"type":"event","name":"EscrowRefunded","inputs":[{"name":"id","type":"uint256","indexed":true,"internalType":"uint256"},{"name":"buyer","type":"address","indexed":true,"internalType":"address"},{"name":"amount","type":"uint256","indexed":false,"internalType":"uint256"}],"anonymous":false},{"type":"event","name":"EscrowReleased","inputs":[{"name":"id","type":"uint256","indexed":true,"internalType":"uint256"},{"name":"seller","type":"address","indexed":true,"internalType":"address"},{"name":"amount","type":"uint256","indexed":false,"internalType":"uint256"}],"anonymous":false},{"type":"event","name":"RatingSubmitted","inputs":[{"name":"escrowId","type":"uint256","indexed":true,"internalType":"uint256"},{"name":"rater","type":"address","indexed":true,"internalType":"address"},{"name":"target","type":"address","indexed":true,"internalType":"address"},{"name":"score","type":"uint8","indexed":false,"internalType":"uint8"}],"anonymous":false},{"type":"error","name":"AddressEmptyCode","inputs":[{"name":"target","type":"address","internalType":"address"}]},{"type":"error","name":"AddressInsufficientBalance","inputs":[{"name":"account","type":"address","internalType":"address"}]},{"type":"error","name":"FailedInnerCall","inputs":[]},{"type":"error","name":"ReentrancyGuardReentrantCall","inputs":[]},{"type":"error","name":"SafeERC20FailedOperation","inputs":[{"name":"token","type":"address","internalType":"address"}]}],"bytecode":{"object":"0x60a0346100f457601f61234838819003918201601f19168301916001600160401b038311848410176100f8578084926060946040528339810103126100f4576100478161010c565b9061006060406100596020840161010c565b920161010c565b60015f8190556001600160a01b0393841660805280549284166001600160a01b0319938416179055600280549190931690821617909155600380543392169190911790556040516122279081610121823960805181818161025b015281816102db0152818161056701528181610b3701528181610f96015281816115b6015281816116710152818161186201526118d20152f35b5f80fd5b634e487b7160e01b5f52604160045260245ffd5b51906001600160a01b03821682036100f45756fe60806040526004361015610011575f80fd5b5f5f3560e01c806289cf6014611baf578063012f52ee14611ac75780631c9c088a14611a2c57806334b25ee2146117b3578063356f9dfd146115e55780633e413bee146115a0578063550d108a1461149857806365508ed714610e8957806366e3aad614610ab4578063675ac67a14610a965780637b10399914610a6d5780637d19e5961461098f57806384be719f1461071a5780638da5cb5b146106f15780639951c2ba146106d5578063a2051105146104d4578063a91ee0dc14610482578063b2ca475814610465578063b563153c14610386578063bb3cff411461036a578063ed653164146101cb578063f2fde38b146101415763fe25e00a14610116575f80fd5b3461013e578060031936011261013e576002546040516001600160a01b039091168152602090f35b80fd5b503461013e57602036600319011261013e5761015b611beb565b60035490610173336001600160a01b03841614611ffc565b6001600160a01b0316908115610194576001600160a01b0319161760035580f35b60405162461bcd60e51b815260206004820152600f60248201526e496e76616c6964206164647265737360881b6044820152606490fd5b503461013e57602036600319011261013e576004356101e8612035565b808252600460205260408220906004820160ff8154166004811015610356576102119015611e37565b82546001600160a01b0316330361031857805460ff19166001179081905560081c60ff166002811015610304576102c2576001820154600283015461027f916001600160a01b03167f0000000000000000000000000000000000000000000000000000000000000000612053565b7f6244ed823ca6be0f11bc890c3fafcf3c29cb23420c14243642e930b5e07e6d0a6020600260018060a01b03600186015416940154604051908152a36001815580f35b600182015460038301546102ff916001600160a01b03167f0000000000000000000000000000000000000000000000000000000000000000612053565b61027f565b634e487b7160e01b84526021600452602484fd5b60405162461bcd60e51b81526020600482015260166024820152754f6e6c792062757965722063616e2072656c6561736560501b6044820152606490fd5b634e487b7160e01b85526021600452602485fd5b503461013e578060031936011261013e57602060405160078152f35b503461013e57602036600319011261013e57600435808252600460205260408220600481019060ff8254166004811015610356576103c49015611e37565b80546001600160a01b0316331490811561044e575b501561041357805460ff1916600317905533907fc25e2b14e82d9713d1570e77d6549051cc07e59f7f354600ce0e0c0f2aa29b0e8380a380f35b60405162461bcd60e51b81526020600482015260136024820152724e6f7420706172747920746f20657363726f7760681b6044820152606490fd5b600101546001600160a01b0316331490505f6103d9565b503461013e578060031936011261013e5760206040516102588152f35b503461013e57602036600319011261013e5761049c611beb565b6104b160018060a01b03600354163314611ffc565b60018060a01b03166bffffffffffffffffffffffff60a01b600154161760015580f35b503461013e57602036600319011261013e576004356104f1612035565b80825260046020526040822090600482015460ff8160081c1660028110156103565760010361069c5760ff166004811015610304576001036106615781546001600160a01b0316330361062557826105526002840154600385015490611e99565b9261058b8460018060a01b03600184015416337f0000000000000000000000000000000000000000000000000000000000000000612093565b600860018060a01b0360015416910154813b15610616578291602483926040519485938492630636db6560e21b845260048401525af1801561061a57610601575b50506040519182527f0f370a9e130ee10f0a96ec3a5264912801f0713612e78cbbb83f4f5de0de9dee60203393a36001815580f35b8161060b91611c6a565b61061657825f6105cc565b8280fd5b6040513d84823e3d90fd5b60405162461bcd60e51b81526020600482015260146024820152734f6e6c792062757965722063616e20726570617960601b6044820152606490fd5b60405162461bcd60e51b8152602060048201526013602482015272115cd8dc9bddc81b9bdd081c995b19585cd959606a1b6044820152606490fd5b60405162461bcd60e51b8152602060048201526011602482015270139bdd0818dc99591a5d0b589858dad959607a1b6044820152606490fd5b503461013e578060031936011261013e57602060405160328152f35b503461013e578060031936011261013e576003546040516001600160a01b039091168152602090f35b503461013e57606036600319011261013e5760043560243560ff81168091036106165760443567ffffffffffffffff811161087f5761075d903690600401611d6a565b92908185526004602052604085209060ff600483015416600481101561097b5760018114908115610970575b50156109345781546001600160a01b03163381036108be5750600982019182549260ff8416610883576001889460ff19161790556001808060a01b03910154165b6001546001600160a01b031691823b1561087f5761082a92849283604051809681958294631d38f13760e11b84528b600485015233602485015260018060a01b03169c8d60448501528c606485015260a0608485015260a4840191611fdc565b03925af1801561061a5761086a575b50506040519182527f1c77a158686639c60e48e2f63ec680c6dfd55fdebf1a1d34b6ad59eee1f2861060203393a480f35b8161087491611c6a565b61087f57835f610839565b8380fd5b60405162461bcd60e51b8152602060048201526013602482015272109d5e595c88185b1c9958591e481c985d1959606a1b6044820152606490fd5b9160018060a01b0360018201541633145f14610413576009019182549260ff8460081c166108f857610100889461ff0019161790556107ca565b60405162461bcd60e51b815260206004820152601460248201527314d95b1b195c88185b1c9958591e481c985d195960621b6044820152606490fd5b60405162461bcd60e51b8152602060048201526014602482015273115cd8dc9bddc81b9bdd0818dbdb5c1b195d195960621b6044820152606490fd5b60029150145f610789565b634e487b7160e01b87526021600452602487fd5b503461013e57602036600319011261013e57604090600435815260046020522060018060a01b0381541660018060a01b036001830154169160ff6002820154916003810154610a46600483015494610a336006850154966007860154946109fd600560098901549801611c8c565b936040519b8c9b8c5260208c015260408b015260608a0152610a2460808a01888316611d2c565b8660a08a019160081c16611d39565b61016060c0880152610160870190611d46565b9360e0860152610100850152818116151561012085015260081c1615156101408301520390f35b503461013e578060031936011261013e576001546040516001600160a01b039091168152602090f35b503461013e578060031936011261013e576020600554604051908152f35b503461013e57608036600319011261013e57610ace611beb565b60443567ffffffffffffffff811161061657610aee903690600401611d6a565b92610af7612035565b610b0b6001600160a01b0384161515611eba565b610b206001600160a01b038416331415611ef7565b610b2d6024351515611f3b565b610b5b60243530337f0000000000000000000000000000000000000000000000000000000000000000612093565b60055491610b6883611f7c565b60055560405194610b7886611c39565b338652602086019460018060a01b0381168652604087016024358152606088016024358152608089019086825260a08a0190878252610bb8368789611fa6565b60c08c019081524260e08d01526064356101008d01526101208c018990526101408c018990526101608c018990528989526004602081905260408a208d5181546001600160a01b03199081166001600160a01b039283161783559d51600183018054909f16911617909c55945160028c0155905160038b0155915191928981019290811015610e7557610c4b9083611e1f565b51600281101561097b5761ff0082549160081b169061ff0019161790555196875167ffffffffffffffff8111610e6157610c886005890154611c01565b98601f8a11610e0e575b602099508990601f8311600114610d85575f5160206121d25f395f51905f529361016060098b9c86610d6e9760019e9a97610d3b978f92610d7a575b50505f19600383901b1c1916908e1b1760058201555b60e08401516006820155610100840151600782015561012084015160088201550191610d236101408201511515849060ff801983541691151516179055565b0151815461ff00191690151560081b61ff0016179055565b60405191829160243583526024358c84015288604084015260806060840152898060a01b03169633966080840191611fdc565b0390a455604051908152f35b015190505f80610cce565b9060058a01885280882091885b601f1985168110610df757509361016060098b9c600187819e9a97610d3b975f5160206121d25f395f51905f529b610d6e9b601f19811610610ddf575b505050811b016005820155610ce4565b01515f1960f88460031b161c191690555f8080610dcf565b91928c600181928685015181550194019201610d92565b818a1115610c925760058901875260208720601f830160051c9060208410610e59575b81019a601f0160051c03875b818110610e4b575050610c92565b80896001928e015501610e3d565b889150610e31565b634e487b7160e01b86526041600452602486fd5b634e487b7160e01b88526021600452602488fd5b503461013e5760a036600319011261013e57610ea3611beb565b60643567ffffffffffffffff811161061657610ec3903690600401611d6a565b9092610ecd612035565b610ee16001600160a01b0384161515611eba565b610ef66001600160a01b038416331415611ef7565b60243515610f048115611f3b565b602435604435101561144357603260243502906024358204603214171561142f5760649004604435106113ea5760015460405163fa43aac960e01b81523360048201529490608090869060249082906001600160a01b03165afa94851561061a57829083966113b3575b506102581161137757610f85604435602435611e99565b80951061133257610fba60443530337f0000000000000000000000000000000000000000000000000000000000000000612093565b62093a80420180421161131e57602090606460018060a01b03600154169785604051998a948593631cfaf87560e01b8552336004860152602485015260448401525af194851561061a5782956112e6575b506005549261101984611f7c565b6005556040519561102987611c39565b3387526001600160a01b03861660208801526024356040880152604435606088015260808701849052600160a0880152611064368385611fa6565b60c08801524260e088015260843561010088015261012087015261014086018390526101608601839052838352600460208181526040808620895181546001600160a01b03199081166001600160a01b03928316178355938b0151600183018054909516911617909255880151600282015560608801516003820155608088015190969187810191908110156112d2576110fe9082611e1f565b60a088015160028110156112d25761ff0082549160081b169061ff00191617905560c087015196875167ffffffffffffffff8111610e61576111436005890154611c01565b98601f8a1161127f575b602099508990601f831160011461120f575f5160206121d25f395f51905f529361016060098b9c86610d6e9760019e9a976111dc978f92610d7a5750505f19600383901b1c1916908e1b17600582015560e08401516006820155610100840151600782015561012084015160088201550191610d236101408201511515849060ff801983541691151516179055565b60405191829160243583526044358c84015289604084015260806060840152898060a01b03169633966080840191611fdc565b9060058a01885280882091885b601f198516811061126857509361016060098b9c600187819e9a976111dc975f5160206121d25f395f51905f529b610d6e9b601f19811610610ddf57505050811b016005820155610ce4565b91928c60018192868501518155019401920161121c565b818a111561114d5760058901875260208720601f830160051c90602084106112ca575b81019a601f0160051c03875b8181106112bc57505061114d565b80896001928e0155016112ae565b8891506112a2565b634e487b7160e01b86526021600452602486fd5b9094506020813d602011611316575b8161130260209383611c6a565b810103126113125751935f61100b565b5080fd5b3d91506112f5565b634e487b7160e01b83526011600452602483fd5b60405162461bcd60e51b815260206004820152601d60248201527f496e73756666696369656e742063726564697420617661696c61626c650000006044820152606490fd5b60405162461bcd60e51b81526020600482015260146024820152734372656469742073636f726520746f6f206c6f7760601b6044820152606490fd5b61025896506113da915060803d6080116113e3575b6113d28183611c6a565b810190611e77565b50969050610f6e565b503d6113c8565b60405162461bcd60e51b815260206004820152601760248201527f43726564697420706f7274696f6e20746f6f20686967680000000000000000006044820152606490fd5b634e487b7160e01b82526011600452602482fd5b60405162461bcd60e51b815260206004820152602760248201527f557365207374616e6461726420657363726f7720666f722066756c6c20636f6c6044820152661b185d195c985b60ca1b6064820152608490fd5b503461013e57604036600319011261013e576114b2611beb565b60015460405163fa43aac960e01b81526001600160a01b039283166004820152602480359391926080928492918391165afa80156115955783918491611571575b506102588210159283611567575b603281029481860460321482151715611553575060646080950491808311611549575b508161152f91611e99565b906040519315158452602084015260408301526060820152f35b915061152f611524565b634e487b7160e01b81526011600452602490fd5b8115159350611501565b905061158c915060803d6080116113e3576113d28183611c6a565b5090505f6114f3565b6040513d85823e3d90fd5b503461013e578060031936011261013e576040517f00000000000000000000000000000000000000000000000000000000000000006001600160a01b03168152602090f35b503461013e57602036600319011261013e57600435611602612035565b80825260046020526040822090600482019160ff83541660048110156103565761162c9015611e37565b60018101546001600160a01b03163314801561177f575b1561174a57825460ff191660021783558054600382018054909460ff929091611695916001600160a01b03167f0000000000000000000000000000000000000000000000000000000000000000612053565b5460081c166002811015610356576001146116e9575b60207feac97bc1917fcedc984e3d0671d4e83b359890323d5d1c2de32b28d17c356ced9160018060a01b039054169354604051908152a36001815580f35b600154600882015485916001600160a01b031690813b15610616578291602483926040519485938492630636db6560e21b845260048401525af1801561061a57611735575b50506116ab565b8161173f91611c6a565b61087f57835f61172e565b60405162461bcd60e51b815260206004820152600d60248201526c10d85b9b9bdd081c99599d5b99609a1b6044820152606490fd5b5080546001600160a01b03163314806117a6575b8015611643575060078101544211611643565b5060078101541515611793565b50346119ac5760403660031901126119ac5760243560043581151582036119ac576117dc612035565b6002546001600160a01b031633036119f857805f52600460205260405f2091600483019060ff82541660048110156119b0576003036119c457156118ae57600160ff198254161790557fdf0baf5489595ea17a097d16827d60793e2f57f3b85a982e5d7e02838b841ee6602060036001850161188660018060a01b0382541683880154907f0000000000000000000000000000000000000000000000000000000000000000612053565b546001600160a01b0316945b01546040519081526001600160a01b0390941693a36001815580f35b805460ff19166002178155825460038401549193916118f6916001600160a01b03167f0000000000000000000000000000000000000000000000000000000000000000612053565b60ff60018060a01b03825416935460081c1660028110156119b057600114611944575b602060037fdf0baf5489595ea17a097d16827d60793e2f57f3b85a982e5d7e02838b841ee692611892565b60018060a01b03600154166008820154813b156119ac575f91602483926040519485938492630636db6560e21b845260048401525af180156119a15761198b575b50611919565b6119989194505f90611c6a565b5f926020611985565b6040513d5f823e3d90fd5b5f80fd5b634e487b7160e01b5f52602160045260245ffd5b60405162461bcd60e51b815260206004820152600c60248201526b139bdd08191a5cdc1d5d195960a21b6044820152606490fd5b60405162461bcd60e51b815260206004820152600c60248201526b27b7363c9030b93134ba32b960a11b6044820152606490fd5b346119ac5760203660031901126119ac57611a45611beb565b60025490336001600160a01b038316148015611ab3575b15611a7d576001600160a01b03166001600160a01b03199190911617600255005b60405162461bcd60e51b815260206004820152600e60248201526d139bdd08185d5d1a1bdc9a5e995960921b6044820152606490fd5b506003546001600160a01b03163314611a5c565b346119ac5760203660031901126119ac576004355f52600460205260405f2060018060a01b0381541660018060a01b036001830154169160ff6002820154600383015492600481015493611b82611b2060058401611c8c565b611b6f60068501549760078601549460096008880154970154976040519c8d9c8d5260208d015260408c015260608b0152611b6060808b01898316611d2c565b8760a08b019160081c16611d39565b61018060c0890152610180880190611d46565b9460e0870152610100860152610120850152818116151561014085015260081c1615156101608301520390f35b346119ac5760403660031901126119ac576024356001600160a01b03811681036119ac57611be1602091600435611d98565b6040519015158152f35b600435906001600160a01b03821682036119ac57565b90600182811c92168015611c2f575b6020831014611c1b57565b634e487b7160e01b5f52602260045260245ffd5b91607f1691611c10565b610180810190811067ffffffffffffffff821117611c5657604052565b634e487b7160e01b5f52604160045260245ffd5b90601f8019910116810190811067ffffffffffffffff821117611c5657604052565b9060405191825f825492611c9f84611c01565b8084529360018116908115611d0a5750600114611cc6575b50611cc492500383611c6a565b565b90505f9291925260205f20905f915b818310611cee575050906020611cc4928201015f611cb7565b6020919350806001915483858901015201910190918492611cd5565b905060209250611cc494915060ff191682840152151560051b8201015f611cb7565b9060048210156119b05752565b9060028210156119b05752565b805180835260209291819084018484015e5f828201840152601f01601f1916010190565b9181601f840112156119ac5782359167ffffffffffffffff83116119ac57602083818601950101116119ac57565b5f52600460205260405f209060ff60048301541660048110156119b05760018114159081611e13575b50611e0d5781546001600160a01b0391821691168103611de757506009015460ff161590565b60018201546001600160a01b031614611dff57505f90565b6009015460081c60ff161590565b50505f90565b6002915014155f611dc1565b9060048110156119b05760ff80198354169116179055565b15611e3e57565b60405162461bcd60e51b8152602060048201526011602482015270457363726f77206e6f742061637469766560781b6044820152606490fd5b91908260809103126119ac578151916020810151916060604083015192015190565b91908203918211611ea657565b634e487b7160e01b5f52601160045260245ffd5b15611ec157565b60405162461bcd60e51b815260206004820152600e60248201526d24b73b30b634b21039b2b63632b960911b6044820152606490fd5b15611efe57565b60405162461bcd60e51b815260206004820152601560248201527421b0b73737ba1032b9b1b937bb903a379039b2b63360591b6044820152606490fd5b15611f4257565b60405162461bcd60e51b81526020600482015260126024820152710416d6f756e74206d757374206265203e20360741b6044820152606490fd5b5f198114611ea65760010190565b67ffffffffffffffff8111611c5657601f01601f191660200190565b929192611fb282611f8a565b91611fc06040519384611c6a565b8294818452818301116119ac578281602093845f960137010152565b908060209392818452848401375f828201840152601f01601f1916010190565b1561200357565b60405162461bcd60e51b815260206004820152600a60248201526927b7363c9037bbb732b960b11b6044820152606490fd5b60025f54146120445760025f55565b633ee5aeb560e01b5f5260045ffd5b60405163a9059cbb60e01b60208201526001600160a01b039092166024830152604480830193909352918152611cc49161208e606483611c6a565b6120d7565b6040516323b872dd60e01b60208201526001600160a01b039283166024820152929091166044830152606480830193909352918152611cc49161208e608483611c6a565b5f8061211f9260018060a01b03169360208151910182865af13d1561216b573d9061210182611f8a565b9161210f6040519384611c6a565b82523d5f602084013e5b83612173565b8051908115159182612147575b50506121355750565b635274afe760e01b5f5260045260245ffd5b81925090602091810103126119ac57602001518015908115036119ac575f8061212c565b606090612119565b90612197575080511561218857805190602001fd5b630a12f52160e11b5f5260045ffd5b815115806121c8575b6121a8575090565b639996b31560e01b5f9081526001600160a01b0391909116600452602490fd5b50803b156121a056fe34bf8219e4d426c88f010adaa0f7a5e92c2fcde05643a9d8530e9686c0ffe0efa2646970667358221220709321492c3cae9fd72ab37b4a3bf0584e6e0fcdd14b0b443597fbfe8617c3ed64736f6c63430008210033","linkReferences":{}},"methodIdentifiers":{"CREDIT_REPAYMENT_DAYS()":"bb3cff41","MAX_CREDIT_PERCENTAGE()":"9951c2ba","MIN_CREDIT_SCORE_FOR_CREDIT()":"b2ca4758","arbiter()":"fe25e00a","canRateEscrow(uint256,address)":"0089cf60","checkCreditEligibility(address,uint256)":"550d108a","createCreditEscrow(address,uint256,uint256,string,uint256)":"65508ed7","createEscrow(address,uint256,string,uint256)":"66e3aad6","disputeEscrow(uint256)":"b563153c","escrowCount()":"675ac67a","escrows(uint256)":"012f52ee","getEscrow(uint256)":"7d19e596","owner()":"8da5cb5b","rateCounterparty(uint256,uint8,string)":"84be719f","refundEscrow(uint256)":"356f9dfd","registry()":"7b103999","releaseEscrow(uint256)":"ed653164","repayCreditPortion(uint256)":"a2051105","resolveDispute(uint256,bool)":"34b25ee2","setArbiter(address)":"1c9c088a","setRegistry(address)":"a91ee0dc","transferOwnership(address)":"f2fde38b","usdc()":"3e413bee"},"id":42}