{"abi":[{"type":"constructor","inputs":[],"stateMutability":"nonpayable"},{"type":"function","name":"CREDIT_LIMIT_MULTIPLIER","inputs":[],"outputs":[{"name":"","type":"uint256","internalType":"uint256"}],"stateMutability":"view"},{"type":"function","name":"DEFAULT_CREDIT_SCORE","inputs":[],"outputs":[{"name":"","type":"uint256","internalType":"uint256"}],"stateMutability":"view"},{"type":"function","name":"MAX_CREDIT_SCORE","inputs":[],"outputs":[{"name":"","type":"uint256","internalType":"uint256"}],"stateMutability":"view"},{"type":"function","name":"MIN_CREDIT_SCORE","inputs":[],"outputs":[{"name":"","type":"uint256","internalType":"uint256"}],"stateMutability":"view"},{"type":"function","name":"agentRatings","inputs":[{"name":"","type":"address","internalType":"address"},{"name":"","type":"uint256","internalType":"uint256"}],"outputs":[{"name":"rater","type":"address","internalType":"address"},{"name":"score","type":"uint8","internalType":"uint8"},{"name":"comment","type":"string","internalType":"string"},{"name":"timestamp","type":"uint256","internalType":"uint256"},{"name":"escrowId","type":"uint256","internalType":"uint256"}],"stateMutability":"view"},{"type":"function","name":"agents","inputs":[{"name":"","type":"address","internalType":"address"}],"outputs":[{"name":"name","type":"string","internalType":"string"},{"name":"capabilitiesCSV","type":"string","internalType":"string"},{"name":"metadataURI","type":"string","internalType":"string"},{"name":"registeredAt","type":"uint256","internalType":"uint256"},{"name":"active","type":"bool","internalType":"bool"}],"stateMutability":"view"},{"type":"function","name":"canRate","inputs":[{"name":"escrowId","type":"uint256","internalType":"uint256"},{"name":"rater","type":"address","internalType":"address"}],"outputs":[{"name":"","type":"bool","internalType":"bool"}],"stateMutability":"view"},{"type":"function","name":"creditProfiles","inputs":[{"name":"","type":"address","internalType":"address"}],"outputs":[{"name":"creditScore","type":"uint256","internalType":"uint256"},{"name":"creditLimit","type":"uint256","internalType":"uint256"},{"name":"creditUsed","type":"uint256","internalType":"uint256"},{"name":"totalBorrowed","type":"uint256","internalType":"uint256"},{"name":"totalRepaid","type":"uint256","internalType":"uint256"},{"name":"onTimePayments","type":"uint256","internalType":"uint256"},{"name":"latePayments","type":"uint256","internalType":"uint256"},{"name":"defaults","type":"uint256","internalType":"uint256"},{"name":"lastUpdated","type":"uint256","internalType":"uint256"}],"stateMutability":"view"},{"type":"function","name":"deactivateAgent","inputs":[],"outputs":[],"stateMutability":"nonpayable"},{"type":"function","name":"discoverAgents","inputs":[{"name":"limit","type":"uint256","internalType":"uint256"}],"outputs":[{"name":"agentAddresses","type":"address[]","internalType":"address[]"},{"name":"names","type":"string[]","internalType":"string[]"},{"name":"trustScores","type":"uint256[]","internalType":"uint256[]"},{"name":"creditScores","type":"uint256[]","internalType":"uint256[]"}],"stateMutability":"view"},{"type":"function","name":"escrowContract","inputs":[],"outputs":[{"name":"","type":"address","internalType":"address"}],"stateMutability":"view"},{"type":"function","name":"getAgent","inputs":[{"name":"agent","type":"address","internalType":"address"}],"outputs":[{"name":"name","type":"string","internalType":"string"},{"name":"capabilitiesCSV","type":"string","internalType":"string"},{"name":"metadataURI","type":"string","internalType":"string"},{"name":"registeredAt","type":"uint256","internalType":"uint256"},{"name":"active","type":"bool","internalType":"bool"},{"name":"trustScore","type":"uint256","internalType":"uint256"},{"name":"numRatings","type":"uint256","internalType":"uint256"},{"name":"creditScore","type":"uint256","internalType":"uint256"},{"name":"creditLimit","type":"uint256","internalType":"uint256"}],"stateMutability":"view"},{"type":"function","name":"getAgentCount","inputs":[],"outputs":[{"name":"","type":"uint256","internalType":"uint256"}],"stateMutability":"view"},{"type":"function","name":"getAgentRatings","inputs":[{"name":"agent","type":"address","internalType":"address"},{"name":"limit","type":"uint256","internalType":"uint256"}],"outputs":[{"name":"","type":"tuple[]","internalType":"struct PayLobsterRegistryV2.Rating[]","components":[{"name":"rater","type":"address","internalType":"address"},{"name":"score","type":"uint8","internalType":"uint8"},{"name":"comment","type":"string","internalType":"string"},{"name":"timestamp","type":"uint256","internalType":"uint256"},{"name":"escrowId","type":"uint256","internalType":"uint256"}]}],"stateMutability":"view"},{"type":"function","name":"getAllAgents","inputs":[],"outputs":[{"name":"","type":"address[]","internalType":"address[]"}],"stateMutability":"view"},{"type":"function","name":"getCreditInfo","inputs":[{"name":"agent","type":"address","internalType":"address"}],"outputs":[{"name":"creditScore","type":"uint256","internalType":"uint256"},{"name":"creditLimit","type":"uint256","internalType":"uint256"},{"name":"creditAvailable","type":"uint256","internalType":"uint256"},{"name":"creditUsed","type":"uint256","internalType":"uint256"}],"stateMutability":"view"},{"type":"function","name":"getCreditProfile","inputs":[{"name":"agent","type":"address","internalType":"address"}],"outputs":[{"name":"","type":"tuple","internalType":"struct PayLobsterRegistryV2.CreditProfile","components":[{"name":"creditScore","type":"uint256","internalType":"uint256"},{"name":"creditLimit","type":"uint256","internalType":"uint256"},{"name":"creditUsed","type":"uint256","internalType":"uint256"},{"name":"totalBorrowed","type":"uint256","internalType":"uint256"},{"name":"totalRepaid","type":"uint256","internalType":"uint256"},{"name":"onTimePayments","type":"uint256","internalType":"uint256"},{"name":"latePayments","type":"uint256","internalType":"uint256"},{"name":"defaults","type":"uint256","internalType":"uint256"},{"name":"lastUpdated","type":"uint256","internalType":"uint256"}]}],"stateMutability":"view"},{"type":"function","name":"getTrustScore","inputs":[{"name":"agent","type":"address","internalType":"address"}],"outputs":[{"name":"score","type":"uint256","internalType":"uint256"},{"name":"ratings","type":"uint256","internalType":"uint256"}],"stateMutability":"view"},{"type":"function","name":"hasRatedEscrow","inputs":[{"name":"","type":"uint256","internalType":"uint256"},{"name":"","type":"address","internalType":"address"}],"outputs":[{"name":"","type":"bool","internalType":"bool"}],"stateMutability":"view"},{"type":"function","name":"loanCount","inputs":[],"outputs":[{"name":"","type":"uint256","internalType":"uint256"}],"stateMutability":"view"},{"type":"function","name":"loans","inputs":[{"name":"","type":"uint256","internalType":"uint256"}],"outputs":[{"name":"borrower","type":"address","internalType":"address"},{"name":"amount","type":"uint256","internalType":"uint256"},{"name":"dueDate","type":"uint256","internalType":"uint256"},{"name":"repaid","type":"bool","internalType":"bool"},{"name":"defaulted","type":"bool","internalType":"bool"},{"name":"createdAt","type":"uint256","internalType":"uint256"}],"stateMutability":"view"},{"type":"function","name":"owner","inputs":[],"outputs":[{"name":"","type":"address","internalType":"address"}],"stateMutability":"view"},{"type":"function","name":"ratingCount","inputs":[{"name":"","type":"address","internalType":"address"}],"outputs":[{"name":"","type":"uint256","internalType":"uint256"}],"stateMutability":"view"},{"type":"function","name":"recordDefault","inputs":[{"name":"loanId","type":"uint256","internalType":"uint256"}],"outputs":[],"stateMutability":"nonpayable"},{"type":"function","name":"recordLoan","inputs":[{"name":"borrower","type":"address","internalType":"address"},{"name":"amount","type":"uint256","internalType":"uint256"},{"name":"dueDate","type":"uint256","internalType":"uint256"}],"outputs":[{"name":"loanId","type":"uint256","internalType":"uint256"}],"stateMutability":"nonpayable"},{"type":"function","name":"recordRepayment","inputs":[{"name":"loanId","type":"uint256","internalType":"uint256"}],"outputs":[],"stateMutability":"nonpayable"},{"type":"function","name":"registerAgent","inputs":[{"name":"name","type":"string","internalType":"string"},{"name":"capabilitiesCSV","type":"string","internalType":"string"},{"name":"metadataURI","type":"string","internalType":"string"}],"outputs":[],"stateMutability":"nonpayable"},{"type":"function","name":"registeredAgents","inputs":[{"name":"","type":"uint256","internalType":"uint256"}],"outputs":[{"name":"","type":"address","internalType":"address"}],"stateMutability":"view"},{"type":"function","name":"setEscrowContract","inputs":[{"name":"_escrow","type":"address","internalType":"address"}],"outputs":[],"stateMutability":"nonpayable"},{"type":"function","name":"submitRating","inputs":[{"name":"escrowId","type":"uint256","internalType":"uint256"},{"name":"rater","type":"address","internalType":"address"},{"name":"target","type":"address","internalType":"address"},{"name":"score","type":"uint8","internalType":"uint8"},{"name":"comment","type":"string","internalType":"string"}],"outputs":[],"stateMutability":"nonpayable"},{"type":"function","name":"totalScore","inputs":[{"name":"","type":"address","internalType":"address"}],"outputs":[{"name":"","type":"uint256","internalType":"uint256"}],"stateMutability":"view"},{"type":"function","name":"transferOwnership","inputs":[{"name":"newOwner","type":"address","internalType":"address"}],"outputs":[],"stateMutability":"nonpayable"},{"type":"function","name":"updateAgent","inputs":[{"name":"name","type":"string","internalType":"string"},{"name":"capabilitiesCSV","type":"string","internalType":"string"},{"name":"metadataURI","type":"string","internalType":"string"}],"outputs":[],"stateMutability":"nonpayable"},{"type":"event","name":"AgentDeactivated","inputs":[{"name":"agent","type":"address","indexed":true,"internalType":"address"}],"anonymous":false},{"type":"event","name":"AgentRated","inputs":[{"name":"agent","type":"address","indexed":true,"internalType":"address"},{"name":"rater","type":"address","indexed":true,"internalType":"address"},{"name":"score","type":"uint8","indexed":false,"internalType":"uint8"},{"name":"escrowId","type":"uint256","indexed":false,"internalType":"uint256"}],"anonymous":false},{"type":"event","name":"AgentRegistered","inputs":[{"name":"agent","type":"address","indexed":true,"internalType":"address"},{"name":"name","type":"string","indexed":false,"internalType":"string"},{"name":"capabilitiesCSV","type":"string","indexed":false,"internalType":"string"}],"anonymous":false},{"type":"event","name":"AgentUpdated","inputs":[{"name":"agent","type":"address","indexed":true,"internalType":"address"},{"name":"name","type":"string","indexed":false,"internalType":"string"},{"name":"capabilitiesCSV","type":"string","indexed":false,"internalType":"string"}],"anonymous":false},{"type":"event","name":"CreditLimitUpdated","inputs":[{"name":"agent","type":"address","indexed":true,"internalType":"address"},{"name":"newLimit","type":"uint256","indexed":false,"internalType":"uint256"}],"anonymous":false},{"type":"event","name":"CreditScoreUpdated","inputs":[{"name":"agent","type":"address","indexed":true,"internalType":"address"},{"name":"oldScore","type":"uint256","indexed":false,"internalType":"uint256"},{"name":"newScore","type":"uint256","indexed":false,"internalType":"uint256"}],"anonymous":false},{"type":"event","name":"LoanCreated","inputs":[{"name":"loanId","type":"uint256","indexed":true,"internalType":"uint256"},{"name":"borrower","type":"address","indexed":true,"internalType":"address"},{"name":"amount","type":"uint256","indexed":false,"internalType":"uint256"},{"name":"dueDate","type":"uint256","indexed":false,"internalType":"uint256"}],"anonymous":false},{"type":"event","name":"LoanDefaulted","inputs":[{"name":"loanId","type":"uint256","indexed":true,"internalType":"uint256"},{"name":"borrower","type":"address","indexed":true,"internalType":"address"},{"name":"amount","type":"uint256","indexed":false,"internalType":"uint256"}],"anonymous":false},{"type":"event","name":"LoanRepaid","inputs":[{"name":"loanId","type":"uint256","indexed":true,"internalType":"uint256"},{"name":"borrower","type":"address","indexed":true,"internalType":"address"},{"name":"amount","type":"uint256","indexed":false,"internalType":"uint256"}],"anonymous":false}],"bytecode":{"object":"0x60808060405234602757600a80546001600160a01b03191633179055612a3d908161002c8239f35b5f80fdfe6080806040526004361015610012575f80fd5b5f3560e01c908163079bafe3146122af575080630a49cf4d1461229357806318db6d9414611fda57806318e859ee14611cf75780631cfaf87514611aec5780632404165e14611ab45780633a71e26e146115125780633d8c94b41461125557806345171f26146111c55780634cbe79d41461117c57806354203e091461116057806356a2d66014610c9b5780635e09eea114610c6c578063628e37b414610c245780636d5f0da314610a46578063733ee9d2146109a557806384eda6621461096d578063860e4ac6146108d857806387a468ba146108bd5780638da5cb5b146108955780638dabe6661461064f57806391cab63e146106325780639a4fbf5b146105cb578063a7bd211c14610589578063b332efbc1461056d578063ce63094d14610550578063e1ec3c68146104e0578063e42a96e7146104b8578063f2fde38b14610430578063f42375b5146103e0578063fa43aac914610370578063fb3551ff146102315763fd66091e14610187575f80fd5b3461022d57602036600319011261022d576001600160a01b036101a86123ca565b165f525f60205261020060405f206101bf816125e5565b906101cc600182016125e5565b61021c6101db600284016125e5565b61020e60ff60046003870154960154169360405197889760a0895260a08901906124d1565b9087820360208901526124d1565b9085820360408701526124d1565b916060840152151560808301520390f35b5f80fd5b3461022d57602036600319011261022d576001600160a01b036102526123ca565b16805f525f60205260405f20604051635e09eea160e01b8152826004820152604081602481305afa908115610365576102f0935f915f93610332575b505f52600660205260405f2060038401549260ff60048601541692600183549301549361030c6102bd886125e5565b976102fe6102d960026102d2600185016125e5565b93016125e5565b916040519b8c9b6101208d526101208d01906124d1565b908b820360208d01526124d1565b9089820360408b01526124d1565b9560608801521515608087015260a086015260c085015260e08401526101008301520390f35b909250610357915060403d60401161035e575b61034f81836125c4565b8101906128d1565b918561028e565b503d610345565b6040513d5f823e3d90fd5b3461022d57602036600319011261022d576001600160a01b036103916123ca565b165f526006602052608060405f206001810154906002810154908183115f146103d9576103be8284612722565b905b5492604051938452602084015260408301526060820152f35b5f906103c0565b3461022d57602036600319011261022d576103f96123ca565b61040e60018060a01b03600a54163314612973565b600980546001600160a01b0319166001600160a01b0392909216919091179055005b3461022d57602036600319011261022d576104496123ca565b600a5490610461336001600160a01b03841614612973565b6001600160a01b0316908115610481576001600160a01b03191617600a55005b60405162461bcd60e51b815260206004820152600f60248201526e496e76616c6964206164647265737360881b6044820152606490fd5b3461022d575f36600319011261022d576009546040516001600160a01b039091168152602090f35b3461022d57602036600319011261022d576004355f52600760205260c060405f2060018060a01b038154169060ff60018201549160028101546004600383015492015493604051958652602086015260408501528181161515606085015260081c161515608083015260a0820152f35b3461022d575f36600319011261022d576020600854604051908152f35b3461022d575f36600319011261022d5760206040516101f48152f35b3461022d57602036600319011261022d5760043560015481101561022d576105b2602091612685565b905460405160039290921b1c6001600160a01b03168152f35b3461022d575f36600319011261022d57335f525f6020526105f560ff600460405f2001541661274a565b335f525f602052600460405f200160ff198154169055337fa58c733780f5c1527d6106ff1e731cbf2e9ffc0eb11ad399ca33ea55f057ddf45f80a2005b3461022d575f36600319011261022d576020600154604051908152f35b3461022d57602036600319011261022d5760043560018060a01b036009541633148015610881575b1561084b57805f52600760205260405f209060038201805460ff8116158061083c575b6106a3906126e0565b6002840154421115610809576101009061ff00191617905560018060a01b038254165f52600660205260405f20916007600182019384546106e960028301918254612722565b9055016106f6815461273c565b905580546001600160a01b03165f818152600660205260409020805490929091610722606319846129ac565b61012c8112610800575b61035281136107f7575b80855560648102818104606414821517156107e3576305f5e100820290808204620f424014901517156107e3577f2d6de712d035bfecc1593860af7eae0831e978cab3cd96f778478b1fdc443bc395835f5160206129c85f395f51905f5260406020985f5160206129e85f395f51905f529660648b970495866001820155600842910155825191825286820152a2604051908152a25493546040519081526001600160a01b0390941693a3005b634e487b7160e01b5f52601160045260245ffd5b50610352610736565b5061012c61072c565b60405162461bcd60e51b815260206004820152600b60248201526a4e6f74207965742064756560a81b6044820152606490fd5b50600881901c60ff161561069a565b60405162461bcd60e51b815260206004820152600e60248201526d139bdd08185d5d1a1bdc9a5e995960921b6044820152606490fd5b50600a546001600160a01b03163314610677565b3461022d575f36600319011261022d57600a546040516001600160a01b039091168152602090f35b3461022d575f36600319011261022d57602060405160648152f35b3461022d575f36600319011261022d5760405180602060015491828152019060015f527fb10e2d527612073b26eecdfd717e6a320cf44b4afac2b0732d9fcbe2b7fa0cf6905f5b81811061094e5761094a85610936818703826125c4565b604051918291602083526020830190612495565b0390f35b82546001600160a01b031684526020909301926001928301920161091f565b3461022d57602036600319011261022d576001600160a01b0361098e6123ca565b165f526003602052602060405f2054604051908152f35b3461022d57604036600319011261022d576109be6123ca565b6001600160a01b03165f9081526002602052604090208054602435919082101561022d5760ff916109ee91612528565b508054906109fe600182016125e5565b610a37600360028401549301549160405195869560018060a01b038116875260a01c16602086015260a0604086015260a08501906124d1565b91606084015260808301520390f35b3461022d57604036600319011261022d57610a5f6123ca565b6001600160a01b03165f908152600260205260409020805460243580821015610c1e5750805b610a8e82612874565b92610a9c60405194856125c4565b828452601f19610aab84612874565b015f5b818110610be85750505f1982019182115f5b848110610b6957856040518091602082016020835281518091526040830190602060408260051b8601019301915f905b828210610aff57505050500390f35b919360019193955060208091603f19898203018552875190848060a01b03825116815260ff838301511683820152608080610b49604085015160a0604086015260a08501906124d1565b936060810151606085015201519101529601920192018594939192610af0565b816107e35780610b84610b7e60019387612722565b85612528565b50600360405191610b94836125a9565b60ff8154868060a01b038116855260a01c166020840152610bb68582016125e5565b60408401526002810154606084015201546080820152610bd682896128bd565b52610be181886128bd565b5001610ac0565b602090604051610bf7816125a9565b5f81525f83820152606060408201525f60608201525f608082015282828901015201610aae565b90610a85565b3461022d57604036600319011261022d57610c3d6123e0565b6004355f52600560205260405f209060018060a01b03165f52602052602060ff60405f20541615604051908152f35b3461022d57602036600319011261022d576040610c8f610c8a6123ca565b612905565b82519182526020820152f35b3461022d57610ca936612423565b8492941561112b5784156110ee57335f525f60205260ff600460405f200154166110b457610d0460405192610cdd846125a9565b610ce836868a61282f565b8452610cf536888861282f565b9260208501938452369161282f565b604083019081526060830190428252608084019260018452335f525f60205260405f2094518051906001600160401b038211610f5857610d4e82610d488954612555565b89612787565b602090601f831160011461105157610d7d92915f9183610fe3575b50508160011b915f199060031b1c19161790565b85555b51805160018601916001600160401b038211610f5857610daa82610da48554612555565b85612787565b602090601f8311600114610fee57610dd892915f9183610fe35750508160011b915f199060031b1c19161790565b90555b51805160028501916001600160401b038211610f5857610dff82610da48554612555565b602090601f8311600114610f77578260049593610e5698979593610e37935f92610f6c5750508160011b915f199060031b1c19161790565b90555b51600384015551151591019060ff801983541691151516179055565b604051610e628161258d565b6101f48152600860208201631dcd65008152604083015f8152606084015f8152608085015f815260a08601905f825260c08701925f845260e08801945f8652610100890196428852335f52600660205260405f2099518a555160018a015551600289015551600388015551600487015551600586015551600685015551600784015551910155600154600160401b811015610f58577f37b3aaf4f807403887412a5994aa1832eface4a8c15501a3311bf21d3279ea3f93610f2c826001610f539401600155612685565b81549060031b9033821b9160018060a01b03901b1916179055604051938493339785612805565b0390a2005b634e487b7160e01b5f52604160045260245ffd5b015190508d80610d69565b90601f19831691845f52815f20925f5b818110610fcb575092600192859260049896610e569b9a989610610fb3575b505050811b019055610e3a565b01515f1960f88460031b161c191690558c8080610fa6565b92936020600181928786015181550195019301610f87565b015190508c80610d69565b90601f19831691845f52815f20925f5b8181106110395750908460019594939210611021575b505050811b019055610ddb565b01515f1960f88460031b161c191690558b8080611014565b92936020600181928786015181550195019301610ffe565b90601f19831691885f52815f20925f5b81811061109c5750908460019594939210611084575b505050811b018555610d80565b01515f1960f88460031b161c191690558b8080611077565b92936020600181928786015181550195019301611061565b60405162461bcd60e51b8152602060048201526012602482015271105b1c9958591e481c9959da5cdd195c995960721b6044820152606490fd5b60405162461bcd60e51b815260206004820152601560248201527410d85c18589a5b1a5d1a595cc81c995c5d5a5c9959605a1b6044820152606490fd5b60405162461bcd60e51b815260206004820152600d60248201526c13985b59481c995c5d5a5c9959609a1b6044820152606490fd5b3461022d575f36600319011261022d5760206040516103528152f35b3461022d57604036600319011261022d576111956123e0565b6004355f52600560205260405f209060018060a01b03165f52602052602060ff60405f2054166040519015158152f35b3461022d57602036600319011261022d576001600160a01b036111e66123ca565b165f52600660205261012060405f208054906001810154906002810154600382015460048301546005840154916006850154936008600787015496015496604051988952602089015260408801526060870152608086015260a085015260c084015260e0830152610100820152f35b3461022d57602036600319011261022d576001546004358082101561150c5750805b61128082612874565b61128d60405191826125c4565b828152601f1961129c84612874565b013660208301376112ac83612874565b926112ba60405194856125c4565b808452601f196112c982612874565b015f5b8181106114fb5750506112de8161288b565b936112e88261288b565b925f925f5b868110806114f2575b156114535761130481612685565b60018060a01b0391549060031b1c165f525f60205260ff600460405f20015416611337575b6113329061273c565b6112ed565b9361134185612685565b905460039190911b1c6001600160a01b031661135d82856128bd565b5261136785612685565b60018060a01b0391549060031b1c165f525f60205261138860405f206125e5565b61139282866128bd565b5261139d81856128bd565b506113a785612685565b905460408051635e09eea160e01b815260039390931b9190911c6001600160a01b0316600483015281602481305afa918215610365576113329261142c925f91611434575b506113f7828c6128bd565b5261140187612685565b60018060a01b0391549060031b1c165f52600660205260405f2054611426828a6128bd565b5261273c565b949050611329565b61144c915060403d811161035e5761034f81836125c4565b508b6113ec565b61146e8387868b604051948594608086526080860190612495565b8481036020860152825180825260208201916020808360051b8301019501925f915b8383106114bd57888061094a8a6114af8b8b85820360408701526124f5565b9083820360608501526124f5565b91939697509193946020806114de600193601f198682030187528a516124d1565b980193019301909288979695949293611490565b508185106112f6565b8060606020809389010152016112cc565b90611277565b3461022d5760a036600319011261022d5760043561152e6123e0565b906044356001600160a01b038116919082900361022d5760643560ff811680910361022d576084356001600160401b03811161022d576115729036906004016123f6565b9461158860018060a01b0360095416331461269d565b845f525f60205260ff600460405f2001541615611a7757600183101580611a6c575b15611a33576001600160a01b0316948486146119f757835f52600560205260405f20865f5260205260ff60405f2054166119b257835f52600560205260405f20865f5260205260405f20600160ff19825416179055845f52600260205260405f209061162e6040519361161c856125a9565b8885526020850192868452369161282f565b60408401908152606084019142835260808501938785528054600160401b811015610f585761166291600182018155612528565b95909561199f5751855491516001600160a81b03199092166001600160a01b03919091161760a09190911b60ff60a01b1617845551805160018501916001600160401b038211610f58576116ba82610da48554612555565b602090601f83116001146119385791806116ee926003979695945f92610fe35750508160011b915f199060031b1c19161790565b90555b51600284015551910155825f52600360205260405f2061171282825461272f565b9055825f52600460205260405f2061172a815461273c565b9055825f52600660205260405f2090815492604051635e09eea160e01b8152856004820152604081602481305afa908115610365575f91611918575b508060021b90808204600414901517156107e35761012c018061012c116107e3575f600585015461179b60068701548261272f565b806118d0575b50506007850154918215801561189c575b506117bd92506129ac565b61012c8112611893575b610352811361188a575b8084556064810290808204606414811517156107e3576305f5e100810291808304620f424014901517156107e3577fe517fcd7b5b30697f9f7ed3ccd5d3c353abc5bba4ee1a69420e538b6f98309899560409560648994049081600182015560084291015581830361184f575b5050505082519182526020820152a3005b835f5160206129c85f395f51905f52886020945f5160206129e85f395f51905f5296825191825286820152a28651908152a28487808061183e565b506103526117d1565b5061012c6117c7565b6032849392930293840460321417156107e3575f83820393128184128116918413901516176107e3576117bd9190896117b2565b9091506064820291808304606414901517156107e3576118ef916128e7565b60311981019081136001166107e3576003810290808205600314901517156107e35788806117a1565b611931915060403d60401161035e5761034f81836125c4565b5087611766565b90601f19831691845f52815f20925f5b81811061198757509160019391856003999897969410611970575b505050811b0190556116f1565b01515f1983891b60f8161c191690558b8080611963565b92936020600181928786015181550195019301611948565b634e487b7160e01b5f525f60045260245ffd5b60405162461bcd60e51b815260206004820152601960248201527f416c7265616479207261746564207468697320657363726f77000000000000006044820152606490fd5b60405162461bcd60e51b815260206004820152601460248201527321b0b73737ba103930ba32903cb7bab939b2b63360611b6044820152606490fd5b60405162461bcd60e51b815260206004820152601160248201527053636f7265206d75737420626520312d3560781b6044820152606490fd5b5060058311156115aa565b60405162461bcd60e51b815260206004820152601560248201527415185c99d95d081b9bdd081c9959da5cdd195c9959605a1b6044820152606490fd5b3461022d57602036600319011261022d576001600160a01b03611ad56123ca565b165f526004602052602060405f2054604051908152f35b3461022d57606036600319011261022d57611b056123ca565b60243560443591611b2160018060a01b0360095416331461269d565b6001600160a01b03165f818152600660205260409020805461012c11611cbe5760028101611b5084825461272f565b600183015410611c825760085493611b678561273c565b6008556040519060c08201968288106001600160401b03891117610f5857600387957f3373919ad665425d2cddb4072830e5935b6ee308440fa99b23383648da473bc09560409560209b87528981526004898d83018881528984019088825260608501915f835260808601915f835260a08701944286525f526020600790528c5f209660018060a01b039060018060a01b03905116166bffffffffffffffffffffffff60a01b885416178755516001870155516002860155611c3b88860192511515839060ff801983541691151516179055565b51151561ff0082549160081b169061ff00191617905551910155611c6085825461272f565b905501611c6e83825461272f565b9055825191825287820152a3604051908152f35b60405162461bcd60e51b8152602060048201526014602482015273115e18d959591cc818dc99591a5d081b1a5b5a5d60621b6044820152606490fd5b60405162461bcd60e51b81526020600482015260116024820152704e6f206372656469742070726f66696c6560781b6044820152606490fd5b3461022d57611d0536612423565b94939194335f525f602052611d2360ff600460405f2001541661274a565b335f525f60205260405f206001600160401b038411610f5857611d5084611d4a8354612555565b83612787565b5f84601f8111600114611f775780611d7c925f91611f6c575b508160011b915f199060031b1c19161790565b90555b335f525f602052600160405f20016001600160401b038711610f5857611da987611d4a8354612555565b5f87601f8111600114611f095780611dd4925f91611efe57508160011b915f199060031b1c19161790565b90555b335f525f602052600260405f2001916001600160401b038211610f5857611e0282610da48554612555565b5f90601f8311600114611e7357827fa2c9530e3d0bc4c899db52361ec84bcc1c9f87a5b7d1b584b3de374f36d7a189979893610f539593611e57935f92611e685750508160011b915f199060031b1c19161790565b90555b604051938493339785612805565b013590508a80610d69565b601f19831691845f5260205f20925f5b818110611ee657509260019285927fa2c9530e3d0bc4c899db52361ec84bcc1c9f87a5b7d1b584b3de374f36d7a1899a9b96610f53989610611ecd575b505050811b019055611e5a565b01355f19600384901b60f8161c19169055898080611ec0565b91936020600181928787013581550195019201611e83565b90508701358a611d69565b50601f19881690825f528860205f20925f5b818110611f51575010611f38575b5050600187811b019055611dd7565b8601355f1960038a901b60f8161c191690558780611f29565b8984013585556001909401936020938401938c935001611f1b565b90508801358a611d69565b50601f19851690825f528560205f20925f5b818110611fbf575010611fa6575b5050600184811b019055611d7f565b8701355f19600387901b60f8161c191690558780611f97565b8a840135855560019094019360209384019389935001611f89565b3461022d57602036600319011261022d5760043561200360018060a01b0360095416331461269d565b805f52600760205260405f2090600382016001815460ff81161580612284575b61202c906126e0565b60ff191617905560018060a01b038254165f52600660205260405f20916001810192835461205f60028301918254612722565b905583546120726004830191825461272f565b90556002820154421161218b5760050161208c815461273c565b905580546001600160a01b03165f8181526006602052604090208054909290916120b76005846129ac565b61012c8112612182575b6103528113612179575b80855560648102818104606414821517156107e3576305f5e100820290808204620f424014901517156107e3577f512d3e65b3e58c2187bb1872aa435dba5bd09c1c03823ba56ab70aac411e4a2195835f5160206129c85f395f51905f5260406020985f5160206129e85f395f51905f529660648b970495866001820155600842910155825191825286820152a2604051908152a25b5493546040519081526001600160a01b0390941693a3005b506103526120cb565b5061012c6120c1565b600601612198815461273c565b905580546001600160a01b03165f8181526006602052604090208054909290916121c4600919846129ac565b61012c811261227b575b6103528113612272575b80855560648102818104606414821517156107e3576305f5e100820290808204620f424014901517156107e3577f512d3e65b3e58c2187bb1872aa435dba5bd09c1c03823ba56ab70aac411e4a2195835f5160206129c85f395f51905f5260406020985f5160206129e85f395f51905f529660648b970495866001820155600842910155825191825286820152a2604051908152a2612161565b506103526121d8565b5061012c6121ce565b50600881901c60ff1615612023565b3461022d575f36600319011261022d57602060405161012c8152f35b3461022d57602036600319011261022d575f6101006122cc6123ca565b926122d68161258d565b8281528260208201528260408201528260608201528260808201528260a08201528260c08201528260e0820152015260018060a01b03165f52600660205261012060405f206040516123278161258d565b8154918282526001810154602083019081526002820154604084019081526003830154606085019081526004840154906080860191825260058501549260a0870193845260068601549460c08801958652610100600860078901549860e08b01998a52015498019788526040519889525160208901525160408801525160608701525160808601525160a08501525160c08401525160e083015251610100820152f35b600435906001600160a01b038216820361022d57565b602435906001600160a01b038216820361022d57565b9181601f8401121561022d578235916001600160401b03831161022d576020838186019501011161022d57565b606060031982011261022d576004356001600160401b03811161022d578161244d916004016123f6565b929092916024356001600160401b03811161022d578161246f916004016123f6565b92909291604435906001600160401b03821161022d57612491916004016123f6565b9091565b90602080835192838152019201905f5b8181106124b25750505090565b82516001600160a01b03168452602093840193909201916001016124a5565b805180835260209291819084018484015e5f828201840152601f01601f1916010190565b90602080835192838152019201905f5b8181106125125750505090565b8251845260209384019390920191600101612505565b8054821015612541575f5260205f209060021b01905f90565b634e487b7160e01b5f52603260045260245ffd5b90600182811c92168015612583575b602083101461256f57565b634e487b7160e01b5f52602260045260245ffd5b91607f1691612564565b61012081019081106001600160401b03821117610f5857604052565b60a081019081106001600160401b03821117610f5857604052565b90601f801991011681019081106001600160401b03821117610f5857604052565b9060405191825f8254926125f884612555565b8084529360018116908115612663575060011461261f575b5061261d925003836125c4565b565b90505f9291925260205f20905f915b81831061264757505090602061261d928201015f612610565b602091935080600191548385890101520191019091849261262e565b90506020925061261d94915060ff191682840152151560051b8201015f612610565b6001548110156125415760015f5260205f2001905f90565b156126a457565b60405162461bcd60e51b815260206004820152601460248201527313db9b1e48195cd8dc9bddc818dbdb9d1c9858dd60621b6044820152606490fd5b156126e757565b60405162461bcd60e51b8152602060048201526013602482015272131bd85b88185b1c9958591e4818db1bdcd959606a1b6044820152606490fd5b919082039182116107e357565b919082018092116107e357565b5f1981146107e35760010190565b1561275157565b60405162461bcd60e51b815260206004820152600e60248201526d139bdd081c9959da5cdd195c995960921b6044820152606490fd5b919091601f8311612798575b505050565b8183116127a457505050565b5f5260205f206020601f830160051c92106127dd575b81601f9101920160051c03905f5b82811015612793575f828201556001016127c8565b5f91506127ba565b908060209392818452848401375f828201840152601f01601f1916010190565b929061281e9061282c95936040865260408601916127e5565b9260208185039101526127e5565b90565b9291926001600160401b038211610f585760405191612858601f8201601f1916602001846125c4565b82948184528183011161022d578281602093845f960137010152565b6001600160401b038111610f585760051b60200190565b9061289582612874565b6128a260405191826125c4565b82815280926128b3601f1991612874565b0190602036910137565b80518210156125415760209160051b010190565b919082604091031261022d576020825192015190565b81156128f1570490565b634e487b7160e01b5f52601260045260245ffd5b6001600160a01b03165f818152600460205260409020549091901561296b57815f52600360205260405f20546014810290808204601414901517156107e35761295b90835f52600460205260405f2054906128e7565b915f52600460205260405f205490565b603291505f90565b1561297a57565b60405162461bcd60e51b815260206004820152600a60248201526927b7363c9037bbb732b960b11b6044820152606490fd5b9190915f83820193841291129080158216911516176107e35756fe4f43648f37bc26ee5bc39c60c1c1e2481a9fb9feb9f86419c91b4645585ff3bcd659a89134780b6c2dc78cb7ad2468b7f3c587d41134933a17c82eb519f7537aa26469706673582212202cc3a9561b35977dfb39db5b364585402c1b109d041259fd3d091f3911e154dc64736f6c63430008210033","linkReferences":{}},"methodIdentifiers":{"CREDIT_LIMIT_MULTIPLIER()":"87a468ba","DEFAULT_CREDIT_SCORE()":"b332efbc","MAX_CREDIT_SCORE()":"54203e09","MIN_CREDIT_SCORE()":"0a49cf4d","agentRatings(address,uint256)":"733ee9d2","agents(address)":"fd66091e","canRate(uint256,address)":"628e37b4","creditProfiles(address)":"45171f26","deactivateAgent()":"9a4fbf5b","discoverAgents(uint256)":"3d8c94b4","escrowContract()":"e42a96e7","getAgent(address)":"fb3551ff","getAgentCount()":"91cab63e","getAgentRatings(address,uint256)":"6d5f0da3","getAllAgents()":"860e4ac6","getCreditInfo(address)":"fa43aac9","getCreditProfile(address)":"079bafe3","getTrustScore(address)":"5e09eea1","hasRatedEscrow(uint256,address)":"4cbe79d4","loanCount()":"ce63094d","loans(uint256)":"e1ec3c68","owner()":"8da5cb5b","ratingCount(address)":"2404165e","recordDefault(uint256)":"8dabe666","recordLoan(address,uint256,uint256)":"1cfaf875","recordRepayment(uint256)":"18db6d94","registerAgent(string,string,string)":"56a2d660","registeredAgents(uint256)":"a7bd211c","setEscrowContract(address)":"f42375b5","submitRating(uint256,address,address,uint8,string)":"3a71e26e","totalScore(address)":"84eda662","transferOwnership(address)":"f2fde38b","updateAgent(string,string,string)":"18e859ee"},"id":46}