{"abi":[{"type":"constructor","inputs":[{"name":"_identityRegistry","type":"address","internalType":"address"}],"stateMutability":"nonpayable"},{"type":"function","name":"CAT_DELIVERY","inputs":[],"outputs":[{"name":"","type":"bytes32","internalType":"bytes32"}],"stateMutability":"view"},{"type":"function","name":"CAT_PAYMENT","inputs":[],"outputs":[{"name":"","type":"bytes32","internalType":"bytes32"}],"stateMutability":"view"},{"type":"function","name":"CAT_QUALITY","inputs":[],"outputs":[{"name":"","type":"bytes32","internalType":"bytes32"}],"stateMutability":"view"},{"type":"function","name":"CAT_RESPONSE","inputs":[],"outputs":[{"name":"","type":"bytes32","internalType":"bytes32"}],"stateMutability":"view"},{"type":"function","name":"CAT_SECURITY","inputs":[],"outputs":[{"name":"","type":"bytes32","internalType":"bytes32"}],"stateMutability":"view"},{"type":"function","name":"agentFeedback","inputs":[{"name":"","type":"uint256","internalType":"uint256"},{"name":"","type":"uint256","internalType":"uint256"}],"outputs":[{"name":"fromAgentId","type":"uint256","internalType":"uint256"},{"name":"score","type":"uint8","internalType":"uint8"},{"name":"comment","type":"string","internalType":"string"},{"name":"escrowId","type":"uint256","internalType":"uint256"},{"name":"timestamp","type":"uint256","internalType":"uint256"},{"name":"category","type":"bytes32","internalType":"bytes32"}],"stateMutability":"view"},{"type":"function","name":"authorizeEscrow","inputs":[{"name":"_escrow","type":"address","internalType":"address"}],"outputs":[],"stateMutability":"nonpayable"},{"type":"function","name":"canRate","inputs":[{"name":"escrowId","type":"uint256","internalType":"uint256"},{"name":"raterAgentId","type":"uint256","internalType":"uint256"}],"outputs":[{"name":"","type":"bool","internalType":"bool"}],"stateMutability":"view"},{"type":"function","name":"categoryRatingCount","inputs":[{"name":"","type":"uint256","internalType":"uint256"},{"name":"","type":"bytes32","internalType":"bytes32"}],"outputs":[{"name":"","type":"uint256","internalType":"uint256"}],"stateMutability":"view"},{"type":"function","name":"categoryTotalScore","inputs":[{"name":"","type":"uint256","internalType":"uint256"},{"name":"","type":"bytes32","internalType":"bytes32"}],"outputs":[{"name":"","type":"uint256","internalType":"uint256"}],"stateMutability":"view"},{"type":"function","name":"escrowContract","inputs":[],"outputs":[{"name":"","type":"address","internalType":"address"}],"stateMutability":"view"},{"type":"function","name":"getAgentTrustScore","inputs":[{"name":"agentId","type":"uint256","internalType":"uint256"}],"outputs":[{"name":"","type":"uint256","internalType":"uint256"}],"stateMutability":"view"},{"type":"function","name":"getCategoryScore","inputs":[{"name":"agentId","type":"uint256","internalType":"uint256"},{"name":"category","type":"bytes32","internalType":"bytes32"}],"outputs":[{"name":"score","type":"uint256","internalType":"uint256"},{"name":"count","type":"uint256","internalType":"uint256"}],"stateMutability":"view"},{"type":"function","name":"getFeedback","inputs":[{"name":"agentId","type":"uint256","internalType":"uint256"}],"outputs":[{"name":"signals","type":"bytes[]","internalType":"bytes[]"}],"stateMutability":"view"},{"type":"function","name":"getFeedbackCount","inputs":[{"name":"agentId","type":"uint256","internalType":"uint256"}],"outputs":[{"name":"","type":"uint256","internalType":"uint256"}],"stateMutability":"view"},{"type":"function","name":"getRecentFeedback","inputs":[{"name":"agentId","type":"uint256","internalType":"uint256"},{"name":"limit","type":"uint256","internalType":"uint256"}],"outputs":[{"name":"feedback","type":"tuple[]","internalType":"struct PayLobsterReputation.Feedback[]","components":[{"name":"fromAgentId","type":"uint256","internalType":"uint256"},{"name":"score","type":"uint8","internalType":"uint8"},{"name":"comment","type":"string","internalType":"string"},{"name":"escrowId","type":"uint256","internalType":"uint256"},{"name":"timestamp","type":"uint256","internalType":"uint256"},{"name":"category","type":"bytes32","internalType":"bytes32"}]}],"stateMutability":"view"},{"type":"function","name":"getTrustScore","inputs":[{"name":"agentId","type":"uint256","internalType":"uint256"}],"outputs":[{"name":"score","type":"uint256","internalType":"uint256"},{"name":"ratings","type":"uint256","internalType":"uint256"}],"stateMutability":"view"},{"type":"function","name":"getTrustVector","inputs":[{"name":"agentId","type":"uint256","internalType":"uint256"}],"outputs":[{"name":"","type":"tuple","internalType":"struct PayLobsterReputation.TrustVector","components":[{"name":"paymentScore","type":"uint256","internalType":"uint256"},{"name":"deliveryScore","type":"uint256","internalType":"uint256"},{"name":"qualityScore","type":"uint256","internalType":"uint256"},{"name":"responseScore","type":"uint256","internalType":"uint256"},{"name":"securityScore","type":"uint256","internalType":"uint256"},{"name":"overallScore","type":"uint256","internalType":"uint256"},{"name":"totalRatings","type":"uint256","internalType":"uint256"},{"name":"lastUpdated","type":"uint256","internalType":"uint256"}]}],"stateMutability":"view"},{"type":"function","name":"hasRatedEscrow","inputs":[{"name":"","type":"uint256","internalType":"uint256"},{"name":"","type":"uint256","internalType":"uint256"}],"outputs":[{"name":"","type":"bool","internalType":"bool"}],"stateMutability":"view"},{"type":"function","name":"identityRegistry","inputs":[],"outputs":[{"name":"","type":"address","internalType":"address"}],"stateMutability":"view"},{"type":"function","name":"owner","inputs":[],"outputs":[{"name":"","type":"address","internalType":"address"}],"stateMutability":"view"},{"type":"function","name":"postFeedback","inputs":[{"name":"agentId","type":"uint256","internalType":"uint256"},{"name":"signal","type":"bytes","internalType":"bytes"}],"outputs":[],"stateMutability":"nonpayable"},{"type":"function","name":"setEscrowContract","inputs":[{"name":"_escrow","type":"address","internalType":"address"}],"outputs":[],"stateMutability":"nonpayable"},{"type":"function","name":"setIdentityRegistry","inputs":[{"name":"_identity","type":"address","internalType":"address"}],"outputs":[],"stateMutability":"nonpayable"},{"type":"function","name":"submitFeedback","inputs":[{"name":"fromAgentId","type":"uint256","internalType":"uint256"},{"name":"toAgentId","type":"uint256","internalType":"uint256"},{"name":"rating","type":"uint8","internalType":"uint8"},{"name":"category","type":"string","internalType":"string"},{"name":"comment","type":"string","internalType":"string"},{"name":"txRef","type":"bytes32","internalType":"bytes32"}],"outputs":[],"stateMutability":"nonpayable"},{"type":"function","name":"transferOwnership","inputs":[{"name":"newOwner","type":"address","internalType":"address"}],"outputs":[],"stateMutability":"nonpayable"},{"type":"function","name":"trustVectors","inputs":[{"name":"","type":"uint256","internalType":"uint256"}],"outputs":[{"name":"paymentScore","type":"uint256","internalType":"uint256"},{"name":"deliveryScore","type":"uint256","internalType":"uint256"},{"name":"qualityScore","type":"uint256","internalType":"uint256"},{"name":"responseScore","type":"uint256","internalType":"uint256"},{"name":"securityScore","type":"uint256","internalType":"uint256"},{"name":"overallScore","type":"uint256","internalType":"uint256"},{"name":"totalRatings","type":"uint256","internalType":"uint256"},{"name":"lastUpdated","type":"uint256","internalType":"uint256"}],"stateMutability":"view"},{"type":"event","name":"FeedbackPosted","inputs":[{"name":"agentId","type":"uint256","indexed":true,"internalType":"uint256"},{"name":"fromAgentId","type":"uint256","indexed":true,"internalType":"uint256"},{"name":"score","type":"uint8","indexed":false,"internalType":"uint8"},{"name":"category","type":"bytes32","indexed":false,"internalType":"bytes32"},{"name":"escrowId","type":"uint256","indexed":false,"internalType":"uint256"}],"anonymous":false},{"type":"event","name":"TrustVectorUpdated","inputs":[{"name":"agentId","type":"uint256","indexed":true,"internalType":"uint256"},{"name":"overallScore","type":"uint256","indexed":false,"internalType":"uint256"}],"anonymous":false}],"bytecode":{"object":"0x608034607d57601f6118d538819003918201601f19168301916001600160401b03831184841017608157808492602094604052833981010312607d57516001600160a01b03811690819003607d57600580546001600160a01b0319908116929092179055600780549091163317905560405161183f90816100968239f35b5f80fd5b634e487b7160e01b5f52604160045260245ffdfe6080806040526004361015610012575f80fd5b5f3560e01c90816303dfe3f514610bab575080631106a38214610a19578063134e18f4146109f157806319dee8a3146109c25780631d0e9f5f146109a95780631d38eebe14610902578063341c79dd146108ce57806336126d061461083c5780633a59fc1f146106375780634537b7641461060e578063498e0b22146105625780634d6f964614610145578063662122981461053b5780636d7f4e0e1461051457806383f3d448146104ea5780638da5cb5b146104c257806390753eb3146103ce578063b441bb72146103a8578063c2a4314514610375578063cbf3f8611461031e578063ce963401146102f7578063cf7a4d08146102d0578063e42a96e7146102a8578063ed2b0fcc14610231578063f2fde38b146101a7578063f3af5085146101785763f42375b514610145575f80fd5b34610174576020366003190112610174576004356001600160a01b03811681036101745761017290610ef8565b005b5f80fd5b346101745761018636610bf4565b905f52600360205260405f20905f52602052602060405f2054604051908152f35b34610174576020366003190112610174576004356001600160a01b03811690819003610174576007546101e4336001600160a01b03831614610ebf565b81156101fa576001600160a01b03191617600755005b60405162461bcd60e51b815260206004820152600f60248201526e496e76616c6964206164647265737360881b6044820152606490fd5b34610174576020366003190112610174576004355f52600160205261010060405f20805490600181015490600281015460038201546004830154906005840154926007600686015495015495604051978852602088015260408701526060860152608085015260a084015260c083015260e0820152f35b34610174575f366003190112610174576006546040516001600160a01b039091168152602090f35b34610174575f3660031901126101745760206040515f5160206117ca5f395f51905f528152f35b34610174575f3660031901126101745760206040515f51602061178a5f395f51905f528152f35b34610174576020366003190112610174576004356001600160a01b038116908190036101745761035960018060a01b03600754163314610ebf565b6bffffffffffffffffffffffff60a01b60055416176005555f80f35b346101745761038336610bf4565b905f52600460205260405f20905f52602052602060ff60405f20541615604051908152f35b346101745760203660031901126101745760206103c6600435610f58565b604051908152f35b34610174576020366003190112610174575f60e06040516103ee81610d4e565b8281528260208201528260408201528260608201528260808201528260a08201528260c082015201526004355f52600160205261010060405f2060405161043481610d4e565b8154918282526001810154602083019081526002820154604084019081526003830154606085019081526004840154916080860192835260058501549360a0870194855260e0600760068801549760c08a01988952015497019687526040519788525160208801525160408701525160608601525160808501525160a08401525160c08301525160e0820152f35b34610174575f366003190112610174576007546040516001600160a01b039091168152602090f35b34610174576020366003190112610174576040610508600435610f2f565b82519182526020820152f35b34610174575f3660031901126101745760206040515f5160206117ea5f395f51905f528152f35b34610174575f3660031901126101745760206040515f5160206117aa5f395f51905f528152f35b346101745760403660031901126101745760243567ffffffffffffffff811161017457610593903690600401610c0a565b6105a860018060a01b03600654163314610e36565b81019060a0818303126101745760208101359060ff8216820361017457604081013567ffffffffffffffff811161017457810183601f8201121561017457610172938160206105f993359101610e79565b60808201359260608301359235600435610f87565b34610174576020366003190112610174576004355f525f602052602060405f2054604051908152f35b346101745761064536610bf4565b905f525f60205260405f20908154908082105f14610835575080915b61066a82610d8d565b926106786040519485610d6b565b828452601f1961068784610d8d565b015f5b8181106107f35750505f198101908082115f5b85811061074957866040518091602082016020835281518091526040830190602060408260051b8601019301915f905b8282106106dc57505050500390f35b919360019193955060208091603f198982030185528751908151815260ff83830151168382015260a08061071f604085015160c0604086015260c0850190610bd0565b936060810151606085015260808101516080850152015191015296019201920185949391926106cd565b816107df578083035f1901908482116107df5761076860019287610c38565b5060056040519161077883610d1e565b8054835260ff858201541660208401526040516107a38161079c8160028601610c9d565b0382610d6b565b60408401526003810154606084015260048101546080840152015460a08201526107cd828a610da5565b526107d88189610da5565b500161069d565b634e487b7160e01b5f52601160045260245ffd5b60209060409593955161080581610d1e565b5f81525f83820152606060408201525f60608201525f60808201525f60a08201528282890101520193919361068a565b9091610661565b346101745761084a36610bf4565b905f525f60205260405f209081548110156101745761086891610c38565b50805460ff600183015416916040516108888161079c8160028601610c9d565b6003820154916108ba60056004830154920154926040519687968752602087015260c0604087015260c0860190610bd0565b926060850152608084015260a08301520390f35b34610174576108dc36610bf4565b905f52600460205260405f20905f52602052602060ff60405f2054166040519015158152f35b346101745760c03660031901126101745760443560ff811681036101745760643567ffffffffffffffff811161017457610940903690600401610c0a565b906084359267ffffffffffffffff84116101745761099d61098a61096b610172963690600401610c0a565b94909561098360018060a01b03600654163314610e36565b3691610e79565b602081519101209360a435933691610e79565b90600435602435610f87565b346101745760406105086109bc36610bf4565b90610dd7565b34610174576109d036610bf4565b905f52600260205260405f20905f52602052602060405f2054604051908152f35b34610174575f366003190112610174576005546040516001600160a01b039091168152602090f35b34610174576020366003190112610174576004355f525f60205260405f208054610a4281610d8d565b91610a506040519384610d6b565b818352601f19610a5f83610d8d565b015f5b818110610b9a5750505f5b828110610adb57836040518091602082016020835281518091526040830190602060408260051b8601019301915f905b828210610aac57505050500390f35b91936001919395506020610acb8192603f198a82030186528851610bd0565b9601920192018594939192610a9d565b80610ae860019284610c38565b5054610b7e60ff84610afa8588610c38565b5001541691610b098487610c38565b506003610b168689610c38565b500154906005610b26878a610c38565b500154610b606004610b38898c610c38565b500154926040519788966020880152604087015260c06060870152600260e087019101610c9d565b92608085015260a084015260c083015203601f198101835282610d6b565b610b888287610da5565b52610b938186610da5565b5001610a6d565b806060602080938801015201610a62565b34610174575f36600319011261017457805f51602061176a5f395f51905f5260209252f35b805180835260209291819084018484015e5f828201840152601f01601f1916010190565b6040906003190112610174576004359060243590565b9181601f840112156101745782359167ffffffffffffffff8311610174576020838186019501011161017457565b8054821015610c51575f52600660205f20910201905f90565b634e487b7160e01b5f52603260045260245ffd5b90600182811c92168015610c93575b6020831014610c7f57565b634e487b7160e01b5f52602260045260245ffd5b91607f1691610c74565b5f9291815491610cac83610c65565b8083529260018116908115610d015750600114610cc857505050565b5f9081526020812093945091925b838310610ce7575060209250010190565b600181602092949394548385870101520191019190610cd6565b915050602093945060ff929192191683830152151560051b010190565b60c0810190811067ffffffffffffffff821117610d3a57604052565b634e487b7160e01b5f52604160045260245ffd5b610100810190811067ffffffffffffffff821117610d3a57604052565b90601f8019910116810190811067ffffffffffffffff821117610d3a57604052565b67ffffffffffffffff8111610d3a5760051b60200190565b8051821015610c515760209160051b010190565b8115610dc3570490565b634e487b7160e01b5f52601260045260245ffd5b90815f52600360205260405f20815f5260205260405f2054918215610e2c575f52600260205260405f20905f5260205260405f20546014810290808204601414901517156107df5781610e2991610db9565b91565b5050506032905f90565b15610e3d57565b60405162461bcd60e51b815260206004820152601460248201527313db9b1e48195cd8dc9bddc818dbdb9d1c9858dd60621b6044820152606490fd5b92919267ffffffffffffffff8211610d3a5760405191610ea3601f8201601f191660200184610d6b565b829481845281830111610174578281602093845f960137010152565b15610ec657565b60405162461bcd60e51b815260206004820152600a60248201526927b7363c9037bbb732b960b11b6044820152606490fd5b610f0d60018060a01b03600754163314610ebf565b60018060a01b03166bffffffffffffffffffffffff60a01b6006541617600655565b5f52600160205260405f20906006820154918215610f4f57600501549190565b50603291505f90565b5f52600160205260405f20600681015415610f74576005015490565b50603290565b919082018092116107df57565b939094929160ff1691600183101580611593575b1561155a5785851461151e5781611495575b845f525f60205260405f2060405191610fc583610d1e565b8783526020830190858252604084019081526060840190858252608085019242845260a0860194898652805468010000000000000000811015610d3a5761101191600182018155610c38565b9690966114825751865560ff6001870191511660ff1982541617905560028501905180519067ffffffffffffffff8211610d3a5761104f8354610c65565b601f8111611431575b50602090601f83116001146113c85760059695949392915f91836113bd575b50508160011b915f199060031b1c19161790555b51600385015551600484015551910155835f52600260205260405f20835f5260205260405f206110bc838254610f7a565b9055835f52600360205260405f20835f5260205260405f2080545f1981146107df576001019055835f52600160205260405f2092846110fa8161159e565b80865561110682611611565b80600188015561111583611667565b806002890155611124846116bd565b8060038a015561113385611713565b918260048b01555f935f95875f52600360205260405f205f51602061178a5f395f51905f525f5260205260405f2054611398575b50865f52600360205260405f205f5160206117ca5f395f51905f525f5260205260405f2054611360575b50855f52600360205260405f205f5160206117ea5f395f51905f525f5260205260405f2054611328575b50845f52600360205260405f205f5160206117aa5f395f51905f525f5260205260405f20546112f2575b50835f52600360205260405f205f51602061176a5f395f51905f525f5260205260405f20546112b5575b50602060057f2f5f2a53baa728408b91e25a52ebbf8911b8cb1498cb5631bd0dcac6ebbb82869860609897969594847ff0558f153fffa5f0b4a7ab308035dcd06ed34e34fa02a56b131b192a3d6ea5a99515155f146112a85761127191610db9565b828201555b845f525f835260405f205460068201554260078201550154604051908152a260405192835260208301526040820152a3565b5050603282820155611276565b909594939250600a810290808204600a14901517156107df576112d791610f7a565b93600a81018091116107df579293919290918691602061120f565b9092919350600a810290808204600a14901517156107df5761131391610f7a565b90600a83018093116107df578792905f6111e5565b909294506014819492940290808204601414901517156107df5761134b91610f7a565b91601484018094116107df578893915f6111bb565b90939550601e819592950290808204601e14901517156107df5761138391610f7a565b92601e85018095116107df578994925f611191565b965093509350601e850294808604601e14901517156107df57899493601e935f611167565b015190505f80611077565b90601f19831691845f52815f20925f5b818110611419575091600193918560059a999897969410611401575b505050811b01905561108b565b01515f1960f88460031b161c191690555f80806113f4565b929360206001819287860151815501950193016113d8565b8281111561105857835f5260205f20601f840160051c906020851061147a575b81601f9101920160051c03905f5b82811061146d575050611058565b5f8282015560010161145f565b5f9150611451565b634e487b7160e01b5f525f60045260245ffd5b815f52600460205260405f20865f5260205260ff60405f2054166114d957815f52600460205260405f20865f5260205260405f20600160ff19825416179055610fad565b60405162461bcd60e51b815260206004820152601960248201527f416c7265616479207261746564207468697320657363726f77000000000000006044820152606490fd5b60405162461bcd60e51b815260206004820152601460248201527321b0b73737ba103930ba32903cb7bab939b2b63360611b6044820152606490fd5b60405162461bcd60e51b815260206004820152601160248201527053636f7265206d75737420626520312d3560781b6044820152606490fd5b506005831115610f9b565b805f52600360205260405f205f51602061178a5f395f51905f525f5260205260405f2054801561160a576115f4915f52600260205260405f205f51602061178a5f395f51905f525f5260205260405f2054610db9565b6014810290808204601414901517156107df5790565b5050603290565b805f52600360205260405f205f5160206117ca5f395f51905f525f5260205260405f2054801561160a576115f4915f52600260205260405f205f5160206117ca5f395f51905f525f5260205260405f2054610db9565b805f52600360205260405f205f5160206117ea5f395f51905f525f5260205260405f2054801561160a576115f4915f52600260205260405f205f5160206117ea5f395f51905f525f5260205260405f2054610db9565b805f52600360205260405f205f5160206117aa5f395f51905f525f5260205260405f2054801561160a576115f4915f52600260205260405f205f5160206117aa5f395f51905f525f5260205260405f2054610db9565b805f52600360205260405f205f51602061176a5f395f51905f525f5260205260405f2054801561160a576115f4915f52600260205260405f205f51602061176a5f395f51905f525f5260205260405f2054610db956feac02c3c644549ac65116cf5a9937aea85546e641364a9af91a36eda41a13b7e61fab0c92eaead7da02fe29795732249e0861c98d6738709e6be992a170920770448b8ad3a330cf8f269f487881b59efff721b3dfa8e61f7c8fd2480389459ed3bc06ebe2b69400cc4d7163a14266e22c11bda70a17e5b6e491931df471c7c597fb6c6c3c0d5d33f0360426b0b58d3bad994edb94748fa7bd09e73c42d811fb30a2646970667358221220271588b6d01948403fcdc8dd8c5e712ab55e984c66cffa8485f72b61e626255364736f6c63430008210033","linkReferences":{}},"methodIdentifiers":{"CAT_DELIVERY()":"cf7a4d08","CAT_PAYMENT()":"ce963401","CAT_QUALITY()":"6d7f4e0e","CAT_RESPONSE()":"66212298","CAT_SECURITY()":"03dfe3f5","agentFeedback(uint256,uint256)":"36126d06","authorizeEscrow(address)":"4d6f9646","canRate(uint256,uint256)":"c2a43145","categoryRatingCount(uint256,bytes32)":"f3af5085","categoryTotalScore(uint256,bytes32)":"19dee8a3","escrowContract()":"e42a96e7","getAgentTrustScore(uint256)":"b441bb72","getCategoryScore(uint256,bytes32)":"1d0e9f5f","getFeedback(uint256)":"1106a382","getFeedbackCount(uint256)":"4537b764","getRecentFeedback(uint256,uint256)":"3a59fc1f","getTrustScore(uint256)":"83f3d448","getTrustVector(uint256)":"90753eb3","hasRatedEscrow(uint256,uint256)":"341c79dd","identityRegistry()":"134e18f4","owner()":"8da5cb5b","postFeedback(uint256,bytes)":"498e0b22","setEscrowContract(address)":"f42375b5","setIdentityRegistry(address)":"cbf3f861","submitFeedback(uint256,uint256,uint8,string,string,bytes32)":"1d38eebe","transferOwnership(address)":"f2fde38b","trustVectors(uint256)":"ed2b0fcc"},"id":47}