{"abi":[{"type":"constructor","inputs":[],"stateMutability":"nonpayable"},{"type":"function","name":"addressToAgentId","inputs":[{"name":"","type":"address","internalType":"address"}],"outputs":[{"name":"","type":"uint256","internalType":"uint256"}],"stateMutability":"view"},{"type":"function","name":"agentMetadata","inputs":[{"name":"","type":"uint256","internalType":"uint256"}],"outputs":[{"name":"name","type":"string","internalType":"string"},{"name":"capabilities","type":"string","internalType":"string"},{"name":"active","type":"bool","internalType":"bool"},{"name":"registeredAt","type":"uint256","internalType":"uint256"}],"stateMutability":"view"},{"type":"function","name":"approve","inputs":[{"name":"to","type":"address","internalType":"address"},{"name":"tokenId","type":"uint256","internalType":"uint256"}],"outputs":[],"stateMutability":"nonpayable"},{"type":"function","name":"balanceOf","inputs":[{"name":"owner","type":"address","internalType":"address"}],"outputs":[{"name":"","type":"uint256","internalType":"uint256"}],"stateMutability":"view"},{"type":"function","name":"creditRegistry","inputs":[],"outputs":[{"name":"","type":"address","internalType":"address"}],"stateMutability":"view"},{"type":"function","name":"deactivate","inputs":[{"name":"agentId","type":"uint256","internalType":"uint256"}],"outputs":[],"stateMutability":"nonpayable"},{"type":"function","name":"discoverAgents","inputs":[{"name":"offset","type":"uint256","internalType":"uint256"},{"name":"limit","type":"uint256","internalType":"uint256"}],"outputs":[{"name":"agentIds","type":"uint256[]","internalType":"uint256[]"},{"name":"owners","type":"address[]","internalType":"address[]"},{"name":"names","type":"string[]","internalType":"string[]"},{"name":"activeStatus","type":"bool[]","internalType":"bool[]"}],"stateMutability":"view"},{"type":"function","name":"getAgent","inputs":[{"name":"agentId","type":"uint256","internalType":"uint256"}],"outputs":[{"name":"owner","type":"address","internalType":"address"},{"name":"name","type":"string","internalType":"string"},{"name":"capabilities","type":"string","internalType":"string"},{"name":"agentURI","type":"string","internalType":"string"},{"name":"active","type":"bool","internalType":"bool"},{"name":"registeredAt","type":"uint256","internalType":"uint256"}],"stateMutability":"view"},{"type":"function","name":"getAgentByAddress","inputs":[{"name":"addr","type":"address","internalType":"address"}],"outputs":[{"name":"agentId","type":"uint256","internalType":"uint256"},{"name":"name","type":"string","internalType":"string"},{"name":"capabilities","type":"string","internalType":"string"},{"name":"agentURI","type":"string","internalType":"string"},{"name":"active","type":"bool","internalType":"bool"},{"name":"registeredAt","type":"uint256","internalType":"uint256"}],"stateMutability":"view"},{"type":"function","name":"getAgentId","inputs":[{"name":"addr","type":"address","internalType":"address"}],"outputs":[{"name":"","type":"uint256","internalType":"uint256"}],"stateMutability":"view"},{"type":"function","name":"getApproved","inputs":[{"name":"tokenId","type":"uint256","internalType":"uint256"}],"outputs":[{"name":"","type":"address","internalType":"address"}],"stateMutability":"view"},{"type":"function","name":"isApprovedForAll","inputs":[{"name":"owner","type":"address","internalType":"address"},{"name":"operator","type":"address","internalType":"address"}],"outputs":[{"name":"","type":"bool","internalType":"bool"}],"stateMutability":"view"},{"type":"function","name":"isRegistered","inputs":[{"name":"addr","type":"address","internalType":"address"}],"outputs":[{"name":"","type":"bool","internalType":"bool"}],"stateMutability":"view"},{"type":"function","name":"name","inputs":[],"outputs":[{"name":"","type":"string","internalType":"string"}],"stateMutability":"view"},{"type":"function","name":"owner","inputs":[],"outputs":[{"name":"","type":"address","internalType":"address"}],"stateMutability":"view"},{"type":"function","name":"ownerOf","inputs":[{"name":"tokenId","type":"uint256","internalType":"uint256"}],"outputs":[{"name":"","type":"address","internalType":"address"}],"stateMutability":"view"},{"type":"function","name":"reactivate","inputs":[{"name":"agentId","type":"uint256","internalType":"uint256"}],"outputs":[],"stateMutability":"nonpayable"},{"type":"function","name":"register","inputs":[{"name":"agentURI","type":"string","internalType":"string"},{"name":"name","type":"string","internalType":"string"},{"name":"capabilities","type":"string","internalType":"string"}],"outputs":[{"name":"agentId","type":"uint256","internalType":"uint256"}],"stateMutability":"nonpayable"},{"type":"function","name":"renounceOwnership","inputs":[],"outputs":[],"stateMutability":"nonpayable"},{"type":"function","name":"reputationRegistry","inputs":[],"outputs":[{"name":"","type":"address","internalType":"address"}],"stateMutability":"view"},{"type":"function","name":"safeTransferFrom","inputs":[{"name":"from","type":"address","internalType":"address"},{"name":"to","type":"address","internalType":"address"},{"name":"tokenId","type":"uint256","internalType":"uint256"}],"outputs":[],"stateMutability":"nonpayable"},{"type":"function","name":"safeTransferFrom","inputs":[{"name":"from","type":"address","internalType":"address"},{"name":"to","type":"address","internalType":"address"},{"name":"tokenId","type":"uint256","internalType":"uint256"},{"name":"data","type":"bytes","internalType":"bytes"}],"outputs":[],"stateMutability":"nonpayable"},{"type":"function","name":"setAgentURI","inputs":[{"name":"agentId","type":"uint256","internalType":"uint256"},{"name":"newURI","type":"string","internalType":"string"}],"outputs":[],"stateMutability":"nonpayable"},{"type":"function","name":"setApprovalForAll","inputs":[{"name":"operator","type":"address","internalType":"address"},{"name":"approved","type":"bool","internalType":"bool"}],"outputs":[],"stateMutability":"nonpayable"},{"type":"function","name":"setCreditRegistry","inputs":[{"name":"_registry","type":"address","internalType":"address"}],"outputs":[],"stateMutability":"nonpayable"},{"type":"function","name":"setReputationRegistry","inputs":[{"name":"_registry","type":"address","internalType":"address"}],"outputs":[],"stateMutability":"nonpayable"},{"type":"function","name":"supportsInterface","inputs":[{"name":"interfaceId","type":"bytes4","internalType":"bytes4"}],"outputs":[{"name":"","type":"bool","internalType":"bool"}],"stateMutability":"view"},{"type":"function","name":"symbol","inputs":[],"outputs":[{"name":"","type":"string","internalType":"string"}],"stateMutability":"view"},{"type":"function","name":"tokenURI","inputs":[{"name":"tokenId","type":"uint256","internalType":"uint256"}],"outputs":[{"name":"","type":"string","internalType":"string"}],"stateMutability":"view"},{"type":"function","name":"totalAgents","inputs":[],"outputs":[{"name":"","type":"uint256","internalType":"uint256"}],"stateMutability":"view"},{"type":"function","name":"transferFrom","inputs":[{"name":"from","type":"address","internalType":"address"},{"name":"to","type":"address","internalType":"address"},{"name":"tokenId","type":"uint256","internalType":"uint256"}],"outputs":[],"stateMutability":"nonpayable"},{"type":"function","name":"transferOwnership","inputs":[{"name":"newOwner","type":"address","internalType":"address"}],"outputs":[],"stateMutability":"nonpayable"},{"type":"function","name":"updateMetadata","inputs":[{"name":"agentId","type":"uint256","internalType":"uint256"},{"name":"name","type":"string","internalType":"string"},{"name":"capabilities","type":"string","internalType":"string"}],"outputs":[],"stateMutability":"nonpayable"},{"type":"event","name":"AgentDeactivated","inputs":[{"name":"agentId","type":"uint256","indexed":true,"internalType":"uint256"}],"anonymous":false},{"type":"event","name":"AgentReactivated","inputs":[{"name":"agentId","type":"uint256","indexed":true,"internalType":"uint256"}],"anonymous":false},{"type":"event","name":"AgentRegistered","inputs":[{"name":"agentId","type":"uint256","indexed":true,"internalType":"uint256"},{"name":"owner","type":"address","indexed":true,"internalType":"address"},{"name":"name","type":"string","indexed":false,"internalType":"string"},{"name":"agentURI","type":"string","indexed":false,"internalType":"string"}],"anonymous":false},{"type":"event","name":"AgentURIUpdated","inputs":[{"name":"agentId","type":"uint256","indexed":true,"internalType":"uint256"},{"name":"newURI","type":"string","indexed":false,"internalType":"string"}],"anonymous":false},{"type":"event","name":"Approval","inputs":[{"name":"owner","type":"address","indexed":true,"internalType":"address"},{"name":"approved","type":"address","indexed":true,"internalType":"address"},{"name":"tokenId","type":"uint256","indexed":true,"internalType":"uint256"}],"anonymous":false},{"type":"event","name":"ApprovalForAll","inputs":[{"name":"owner","type":"address","indexed":true,"internalType":"address"},{"name":"operator","type":"address","indexed":true,"internalType":"address"},{"name":"approved","type":"bool","indexed":false,"internalType":"bool"}],"anonymous":false},{"type":"event","name":"BatchMetadataUpdate","inputs":[{"name":"_fromTokenId","type":"uint256","indexed":false,"internalType":"uint256"},{"name":"_toTokenId","type":"uint256","indexed":false,"internalType":"uint256"}],"anonymous":false},{"type":"event","name":"MetadataUpdate","inputs":[{"name":"_tokenId","type":"uint256","indexed":false,"internalType":"uint256"}],"anonymous":false},{"type":"event","name":"OwnershipTransferred","inputs":[{"name":"previousOwner","type":"address","indexed":true,"internalType":"address"},{"name":"newOwner","type":"address","indexed":true,"internalType":"address"}],"anonymous":false},{"type":"event","name":"Transfer","inputs":[{"name":"from","type":"address","indexed":true,"internalType":"address"},{"name":"to","type":"address","indexed":true,"internalType":"address"},{"name":"tokenId","type":"uint256","indexed":true,"internalType":"uint256"}],"anonymous":false},{"type":"error","name":"ERC721IncorrectOwner","inputs":[{"name":"sender","type":"address","internalType":"address"},{"name":"tokenId","type":"uint256","internalType":"uint256"},{"name":"owner","type":"address","internalType":"address"}]},{"type":"error","name":"ERC721InsufficientApproval","inputs":[{"name":"operator","type":"address","internalType":"address"},{"name":"tokenId","type":"uint256","internalType":"uint256"}]},{"type":"error","name":"ERC721InvalidApprover","inputs":[{"name":"approver","type":"address","internalType":"address"}]},{"type":"error","name":"ERC721InvalidOperator","inputs":[{"name":"operator","type":"address","internalType":"address"}]},{"type":"error","name":"ERC721InvalidOwner","inputs":[{"name":"owner","type":"address","internalType":"address"}]},{"type":"error","name":"ERC721InvalidReceiver","inputs":[{"name":"receiver","type":"address","internalType":"address"}]},{"type":"error","name":"ERC721InvalidSender","inputs":[{"name":"sender","type":"address","internalType":"address"}]},{"type":"error","name":"ERC721NonexistentToken","inputs":[{"name":"tokenId","type":"uint256","internalType":"uint256"}]},{"type":"error","name":"OwnableInvalidOwner","inputs":[{"name":"owner","type":"address","internalType":"address"}]},{"type":"error","name":"OwnableUnauthorizedAccount","inputs":[{"name":"account","type":"address","internalType":"address"}]}],"bytecode":{"object":"0x60806040523461039157604080519081016001600160401b0381118282101761029c576040908152601182527014185e48131bd89cdd195c881059d95b9d607a1b602083015280519081016001600160401b0381118282101761029c5760405260078152662627a129aa22a960c91b602082015281516001600160401b03811161029c575f54600181811c91168015610387575b602082101461027e57601f811161031a575b50602092601f82116001146102bb57928192935f926102b0575b50508160011b915f199060031b1c1916175f555b80516001600160401b03811161029c57600154600181811c91168015610292575b602082101461027e57601f8111610210575b50602091601f82116001146101b0579181925f926101a5575b50508160011b915f199060031b1c1916176001555b33156101925760078054336001600160a01b03198216811790925560405191906001600160a01b03167f8be0079c531659141344cd1fd0a4f28419497f9722a3daafe3b4186f6b6457e05f80a36001600855611f6690816103968239f35b631e4fbdf760e01b5f525f60045260245ffd5b015190505f8061011f565b601f1982169260015f52805f20915f5b8581106101f8575083600195106101e0575b505050811b01600155610134565b01515f1960f88460031b161c191690555f80806101d2565b919260206001819286850151815501940192016101c0565b818111156101065760015f52601f820160051c7fb10e2d527612073b26eecdfd717e6a320cf44b4afac2b0732d9fcbe2b7fa0cf660208410610276575b81601f9101920160051c03905f5b828110610269575050610106565b5f8282015560010161025b565b5f915061024d565b634e487b7160e01b5f52602260045260245ffd5b90607f16906100f4565b634e487b7160e01b5f52604160045260245ffd5b015190505f806100bf565b601f198216935f8052805f20915f5b86811061030257508360019596106102ea575b505050811b015f556100d3565b01515f1960f88460031b161c191690555f80806102dd565b919260206001819286850151815501940192016102ca565b818111156100a5575f8052601f820160051c7f290decd9548b62a8d60345a988386fc84ba6bc95484008f6362f93160ef3e5636020841061037f575b81601f9101920160051c03905f5b8281106103725750506100a5565b5f82820155600101610364565b5f9150610356565b90607f1690610093565b5f80fdfe6080806040526004361015610012575f80fd5b5f3560e01c90816301ffc9a7146114cf5750806303880623146112d6578063042324b61461021157806306fdde0314611234578063081812fc146111f8578063095ea7b31461110e57806309df30ec146110aa5780630af28bd31461100b57806323b872dd14610ff45780632de5aaf714610f2a578063327eafce14610de25780633f0ce71414610d9f57806342842e0e14610d7657806347a95efb14610cfa5780634cd08d03146108155780636352211e146107e557806370a0823114610794578063715018a6146107395780638da5cb5b14610711578063916b9bef146106a457806395d89b41146105da5780639e92fa0314610597578063a22cb465146104f3578063b015a5e8146104cb578063b88d4fde1461046a578063c3c5a54714610430578063c5053712146103f3578063c87b56dd146103bc578063c8db44e314610394578063e68dd342146102a0578063e985e9c514610249578063ebacebe4146102115763f2fde38b14610187575f80fd5b3461020d57602036600319011261020d576101a0611581565b6101a8611f09565b6001600160a01b031680156101fa57600780546001600160a01b0319811683179091556001600160a01b03167f8be0079c531659141344cd1fd0a4f28419497f9722a3daafe3b4186f6b6457e05f80a3005b631e4fbdf760e01b5f525f60045260245ffd5b5f80fd5b3461020d57602036600319011261020d576001600160a01b03610232611581565b165f52600a602052602060405f2054604051908152f35b3461020d57604036600319011261020d57610262611581565b61026a611597565b9060018060a01b03165f52600560205260405f209060018060a01b03165f52602052602060ff60405f2054166040519015158152f35b3461020d57602036600319011261020d576001600160a01b036102c1611581565b165f52600a60205260405f2054801561035d57805f52600960205260405f20906102ea81611d05565b60ff6002840154169061034c60038501549161033e610314600161030d89611664565b9801611664565b610330604051988998895260c060208a015260c08901906115ad565b9087820360408901526115ad565b9085820360608701526115ad565b911515608084015260a08301520390f35b60405162461bcd60e51b815260206004820152600f60248201526e1059d95b9d081b9bdd08199bdd5b99608a1b6044820152606490fd5b3461020d575f36600319011261020d57600b546040516001600160a01b039091168152602090f35b3461020d57602036600319011261020d576103ef6103db600435611d05565b6040519182916020835260208301906115ad565b0390f35b3461020d575f36600319011261020d576008545f19810190811161041c57602090604051908152f35b634e487b7160e01b5f52601160045260245ffd5b3461020d57602036600319011261020d576001600160a01b03610451611581565b165f52600a602052602060405f20541515604051908152f35b3461020d57608036600319011261020d57610483611581565b61048b611597565b606435916001600160401b03831161020d573660238401121561020d576104bf6104c993369060248160040135910161171f565b9160443591611bc5565b005b3461020d575f36600319011261020d57600c546040516001600160a01b039091168152602090f35b3461020d57604036600319011261020d5761050c611581565b602435908115159081830361020d576001600160a01b03169182156105845761055690335f52600560205260405f20845f5260205260405f209060ff801983541691151516179055565b6040519081527f17307eab39ab6107e8899845ad3d59bd9653f200f220920489ca2b5937696c3160203392a3005b82630b61174360e31b5f5260045260245ffd5b3461020d57602036600319011261020d576105b0611581565b6105b8611f09565b600c80546001600160a01b0319166001600160a01b0392909216919091179055005b3461020d575f36600319011261020d576040515f6001546105fa8161160b565b80845290600181169081156106805750600114610622575b6103ef836103db81850382611643565b60015f9081527fb10e2d527612073b26eecdfd717e6a320cf44b4afac2b0732d9fcbe2b7fa0cf6939250905b808210610666575090915081016020016103db610612565b91926001816020925483858801015201910190929161064e565b60ff191660208086019190915291151560051b840190910191506103db9050610612565b3461020d57602036600319011261020d576004356106d46106cf826106c881611dc0565b3390611d35565b611755565b805f526009602052600260405f200160ff1981541690557fc2fb7f8575ac3990e70361684edfc4d283931ea9a03dfa28766bf376a3934aa25f80a2005b3461020d575f36600319011261020d576007546040516001600160a01b039091168152602090f35b3461020d575f36600319011261020d57610751611f09565b600780546001600160a01b031981169091555f906001600160a01b03167f8be0079c531659141344cd1fd0a4f28419497f9722a3daafe3b4186f6b6457e08280a3005b3461020d57602036600319011261020d576001600160a01b036107b5611581565b1680156107d2575f526003602052602060405f2054604051908152f35b6322718ad960e21b5f525f60045260245ffd5b3461020d57602036600319011261020d576020610803600435611dc0565b6040516001600160a01b039091168152f35b3461020d57606036600319011261020d576004356001600160401b03811161020d57610845903690600401611554565b6024356001600160401b03811161020d57610864903690600401611554565b92906044356001600160401b03811161020d57610885903690600401611554565b9390916108938215156117f0565b8515610cc557335f52600a60205260405f2054610c8b57600854945f19861461041c57600186016008553315610c78575f868152600260205260409020546001600160a01b03168015159081610c45575b335f818152600360209081526040808320805460010190558b83526002909152812080546001600160a01b0319168317905589919083907fddf252ad1be2c89b69c2b068fc378daa952ba7f163c4a11628f55a4df523b3ef9080a450610c325761095861095236858861171f565b87611df4565b6040519360808501918583106001600160401b03841117610bb05761098e92604052610985368a8661171f565b8652369161171f565b956020840196875260408401926001845260608501428152875f52600960205260405f2095518051906001600160401b038211610bb0576109d9826109d38a5461160b565b8a611792565b602090601f8311600114610bcf57610a0892915f9183610bc4575b50508160011b915f199060031b1c19161790565b86555b600186019851948551996001600160401b038b11610bb0578a8a97610a3c60209d610a36855461160b565b85611792565b8c90601f8311600114610b015793600393610a9984610aeb999895610ab4957f1fa075d34b5040b9bc683d1cc54ae270f345511dd00e1b9f68e82fd47b16f5249e9f995f92610af65750508160011b915f199060031b1c19161790565b90555b511515600285019060ff801983541691151516179055565b51910155335f52600a89528560405f2055610adc60405194859460408652604086019161182b565b908382038a850152339761182b565b0390a3604051908152f35b015190505f806109f4565b999493929190601f1982169a835f52815f209b5f5b818110610b7f5750837f1fa075d34b5040b9bc683d1cc54ae270f345511dd00e1b9f68e82fd47b16f5249c9d60039794610aeb9b9a999794610ab49760019510610b68575b505050811b019055610a9c565b01515f19838a1b60f8161c191690555f8080610b5b565b939597999b509091939597999b8f600181928786015181550195019301908e9b9997959392919c9a9896949c610b16565b634e487b7160e01b5f52604160045260245ffd5b015190508c806109f4565b90601f19831691895f52815f20925f5b818110610c1a5750908460019594939210610c02575b505050811b018655610a0b565b01515f1960f88460031b161c191690558b8080610bf5565b92936020600181928786015181550195019301610bdf565b6339e3563760e11b5f525f60045260245ffd5b5f88815260046020526040902080546001600160a01b0319169055805f52600360205260405f205f1981540190556108e4565b633250574960e11b5f525f60045260245ffd5b60405162461bcd60e51b8152602060048201526012602482015271105b1c9958591e481c9959da5cdd195c995960721b6044820152606490fd5b60405162461bcd60e51b815260206004820152600d60248201526c13985b59481c995c5d5a5c9959609a1b6044820152606490fd5b3461020d57602036600319011261020d576004355f526009602052610d5760405f20610d2581611664565b90610d3260018201611664565b610d65600360ff600285015416930154916040519586956080875260808701906115ad565b9085820360208701526115ad565b911515604084015260608301520390f35b3461020d576104c9610d87366115d1565b9060405192610d97602085611643565b5f8452611bc5565b3461020d57602036600319011261020d57610db8611581565b610dc0611f09565b600b80546001600160a01b0319166001600160a01b0392909216919091179055005b3461020d57604036600319011261020d57610e01602435600435611a03565b9060409392935193849360808501608086528151809152602060a087019201905f5b818110610f11575050508481036020860152602080835192838152019201905f5b818110610eef575050508381036040850152815180825260208201916020808360051b8301019401925f915b838310610ebc5750505050508281036060840152602080835192838152019201905f5b818110610ea1575050500390f35b82511515845285945060209384019390920191600101610e93565b91939596509193602080610edc600193601f1986820301875289516115ad565b9701930193019092879695949293610e70565b82516001600160a01b0316845287965060209384019390920191600101610e44565b8251845288975060209384019390920191600101610e23565b3461020d57602036600319011261020d5760043580151580610fe9575b15610fb257805f52600960205260405f2090610f6b610f6582611dc0565b91611d05565b60ff6002840154169061034c60038501549161033e610f8e600161030d89611664565b61033060405198899860018060a01b0316895260c060208a015260c08901906115ad565b60405162461bcd60e51b815260206004820152600f60248201526e125b9d985b1a59081859d95b9d1259608a1b6044820152606490fd5b506008548110610f47565b3461020d576104c9611005366115d1565b9161184b565b3461020d57604036600319011261020d576004356024356001600160401b03811161020d5761105f7fe335f4a32c56fb32eb92f5084017a5836fcdc9307d02f49f27dd61f0f6a434a8913690600401611554565b61106f6106cf856106c881611dc0565b61107a8115156117f0565b61108e61108836838561171f565b85611df4565b6110a560405192839260208452602084019161182b565b0390a2005b3461020d57602036600319011261020d576004356110ce6106cf826106c881611dc0565b805f526009602052600260405f2001600160ff198254161790557f7cce21c1f4552995dccace889e9ad45febf59c654d3fd1d7ab0457fa1439aa2c5f80a2005b3461020d57604036600319011261020d57611127611581565b60243561113381611dc0565b331515806111e5575b806111b8575b6111a55781906001600160a01b0384811691167f8c5be1e5ebec7d5bd14f71427d1e84f3dd0314c0f7b2291e5b200ac8c7c3b9255f80a45f90815260046020526040902080546001600160a01b0319166001600160a01b03909216919091179055005b63a9fbf51f60e01b5f523360045260245ffd5b506001600160a01b0381165f90815260056020908152604080832033845290915290205460ff1615611142565b506001600160a01b03811633141561113c565b3461020d57602036600319011261020d5760043561121581611dc0565b505f526004602052602060018060a01b0360405f205416604051908152f35b3461020d575f36600319011261020d576040515f5f546112538161160b565b8084529060018116908115610680575060011461127a576103ef836103db81850382611643565b5f8080527f290decd9548b62a8d60345a988386fc84ba6bc95484008f6362f93160ef3e563939250905b8082106112bc575090915081016020016103db610612565b9192600181602092548385880101520191019092916112a4565b3461020d57606036600319011261020d576004356024356001600160401b03811161020d57611309903690600401611554565b916044356001600160401b03811161020d57611329903690600401611554565b92909361133c6106cf846106c881611dc0565b825f52600960205260405f20916001600160401b038211610bb05761136582610a36855461160b565b5f90601f831160011461146b5761139292915f91836114605750508160011b915f199060031b1c19161790565b90555b5f526009602052600160405f2001906001600160401b038111610bb0576113c6816113c0845461160b565b84611792565b5f601f82116001146114025781906113f393945f926113f75750508160011b915f199060031b1c19161790565b9055005b0135905084806109f4565b601f19821693835f5260205f20915f5b868110611448575083600195961061142f575b505050811b019055005b01355f19600384901b60f8161c19169055838080611425565b90926020600181928686013581550194019101611412565b0135905087806109f4565b601f19831691845f5260205f20925f5b8181106114b7575090846001959493921061149e575b505050811b019055611395565b01355f19600384901b60f8161c19169055868080611491565b9193602060018192878701358155019501920161147b565b3461020d57602036600319011261020d576004359063ffffffff60e01b821680920361020d57602091632483248360e11b8114908115611511575b5015158152f35b6380ac58cd60e01b811491508115611543575b8115611532575b508361150a565b6301ffc9a760e01b1490508361152b565b635b5e139f60e01b81149150611524565b9181601f8401121561020d578235916001600160401b03831161020d576020838186019501011161020d57565b600435906001600160a01b038216820361020d57565b602435906001600160a01b038216820361020d57565b805180835260209291819084018484015e5f828201840152601f01601f1916010190565b606090600319011261020d576004356001600160a01b038116810361020d57906024356001600160a01b038116810361020d579060443590565b90600182811c92168015611639575b602083101461162557565b634e487b7160e01b5f52602260045260245ffd5b91607f169161161a565b90601f801991011681019081106001600160401b03821117610bb057604052565b9060405191825f8254926116778461160b565b80845293600181169081156116e2575060011461169e575b5061169c92500383611643565b565b90505f9291925260205f20905f915b8183106116c657505090602061169c928201015f61168f565b60209193508060019154838589010152019101909184926116ad565b90506020925061169c94915060ff191682840152151560051b8201015f61168f565b6001600160401b038111610bb057601f01601f191660200190565b92919261172b82611704565b916117396040519384611643565b82948184528183011161020d578281602093845f960137010152565b1561175c57565b60405162461bcd60e51b815260206004820152600e60248201526d139bdd08185d5d1a1bdc9a5e995960921b6044820152606490fd5b919091601f83116117a3575b505050565b8183116117af57505050565b5f5260205f206020601f830160051c92106117e8575b81601f9101920160051c03905f5b8281101561179e575f828201556001016117d3565b5f91506117c5565b156117f757565b60405162461bcd60e51b815260206004820152600c60248201526b155492481c995c5d5a5c995960a21b6044820152606490fd5b908060209392818452848401375f828201840152601f01601f1916010190565b6001600160a01b0390911691908215610c78575f828152600260205260409020546001600160a01b03169282903361193f575b8461190c575b805f52600360205260405f2060018154019055815f52600260205260405f20816bffffffffffffffffffffffff60a01b825416179055847fddf252ad1be2c89b69c2b068fc378daa952ba7f163c4a11628f55a4df523b3ef5f80a46001600160a01b03168083036118f457505050565b6364283d7b60e01b5f5260045260245260445260645ffd5b5f82815260046020526040902080546001600160a01b0319169055845f52600360205260405f205f198154019055611884565b9061194b903386611d35565b1561195757829061187e565b828461196f57637e27328960e01b5f5260045260245ffd5b63177e802f60e01b5f523360045260245260445ffd5b6001600160401b038111610bb05760051b60200190565b906119a682611985565b6119b36040519182611643565b82815280926119c4601f1991611985565b0190602036910137565b9190820180921161041c57565b80518210156119ef5760209160051b010190565b634e487b7160e01b5f52603260045260245ffd5b6008549092915f19820191821161041c5781841015611b4657611a2690846119ce565b90808211611b3e575b5082810390811161041c57611a438161199c565b92611a4d8261199c565b92611a5783611985565b611a646040519182611643565b838152601f19611a7385611985565b015f5b818110611b2d5750508093611a8a8161199c565b935f5b828110611a9a5750505050565b611aa481836119ce565b906001820180921161041c5781600192611abe838d6119db565b52611ac881611dc0565b611ad2838c6119db565b90848060a01b03169052805f526009602052611af060405f20611664565b611afa83886119db565b52611b0582876119db565b505f52600960205260ff600260405f20015416611b2282896119db565b901515905201611a8d565b806060602080938601015201611a76565b90505f611a2f565b50509050602060405190611b5a8183611643565b5f82525f36813760405192611b6f8285611643565b5f84525f36813760405192611b848385611643565b5f8452601f198301835f5b828110611bb55750505060405192611ba78185611643565b5f8452505f36813793929190565b6060828289010152018490611b8f565b9291611bd281838661184b565b813b611bdf575b50505050565b604051630a85bd0160e11b81523360048201526001600160a01b0394851660248201526044810191909152608060648201529216919060209082908190611c2a9060848301906115ad565b03815f865af15f9181611cc0575b50611c8d57503d15611c86573d611c4e81611704565b90611c5c6040519283611643565b81523d5f602083013e5b80519081611c815782633250574960e11b5f5260045260245ffd5b602001fd5b6060611c66565b6001600160e01b03191663757a42ff60e11b01611cae57505f808080611bd9565b633250574960e11b5f5260045260245ffd5b9091506020813d602011611cfd575b81611cdc60209383611643565b8101031261020d57516001600160e01b03198116810361020d57905f611c38565b3d9150611ccf565b611d0e81611dc0565b505f526006602052611d2260405f20611664565b5f604051611d31602082611643565b5290565b6001600160a01b03909116801515929183611d51575b50505090565b6001600160a01b031680821493509091908315611d9d575b508215611d7b575b50505f8080611d4b565b5f908152600460205260408120546001600160a01b0316909114915080611d71565b9092505f52600560205260405f20815f5260205260ff60405f205416915f611d69565b5f818152600260205260409020546001600160a01b0316908115611de2575090565b637e27328960e01b5f5260045260245ffd5b919091805f52600660205260405f2083516001600160401b038111610bb057611e21816113c0845461160b565b6020601f8211600114611e8157816020949392611e75927ff8e1a15aba9398e019f0b49df1a4fde98ee17ae345cb5f6b5e2c27f5033e8ce797985f92610af65750508160011b915f199060031b1c19161790565b90555b604051908152a1565b601f19821695835f52815f20965f5b818110611ef1575096600192849260209796957ff8e1a15aba9398e019f0b49df1a4fde98ee17ae345cb5f6b5e2c27f5033e8ce7999a10611ed9575b505050811b019055611e78565b01515f1960f88460031b161c191690555f8080611ecc565b83830151895560019098019760209384019301611e90565b6007546001600160a01b03163303611f1d57565b63118cdaa760e01b5f523360045260245ffdfea264697066735822122067cfcdfa6167ad816d9a986a1bffcc95d7a3ebc728e0e593bf690d5404f63ec964736f6c63430008210033","linkReferences":{}},"methodIdentifiers":{"addressToAgentId(address)":"ebacebe4","agentMetadata(uint256)":"47a95efb","approve(address,uint256)":"095ea7b3","balanceOf(address)":"70a08231","creditRegistry()":"b015a5e8","deactivate(uint256)":"916b9bef","discoverAgents(uint256,uint256)":"327eafce","getAgent(uint256)":"2de5aaf7","getAgentByAddress(address)":"e68dd342","getAgentId(address)":"042324b6","getApproved(uint256)":"081812fc","isApprovedForAll(address,address)":"e985e9c5","isRegistered(address)":"c3c5a547","name()":"06fdde03","owner()":"8da5cb5b","ownerOf(uint256)":"6352211e","reactivate(uint256)":"09df30ec","register(string,string,string)":"4cd08d03","renounceOwnership()":"715018a6","reputationRegistry()":"c8db44e3","safeTransferFrom(address,address,uint256)":"42842e0e","safeTransferFrom(address,address,uint256,bytes)":"b88d4fde","setAgentURI(uint256,string)":"0af28bd3","setApprovalForAll(address,bool)":"a22cb465","setCreditRegistry(address)":"9e92fa03","setReputationRegistry(address)":"3f0ce714","supportsInterface(bytes4)":"01ffc9a7","symbol()":"95d89b41","tokenURI(uint256)":"c87b56dd","totalAgents()":"c5053712","transferFrom(address,address,uint256)":"23b872dd","transferOwnership(address)":"f2fde38b","updateMetadata(uint256,string,string)":"03880623"},"id":44}