{"abi":[{"type":"constructor","inputs":[{"name":"_usdc","type":"address","internalType":"address"},{"name":"_arbiter","type":"address","internalType":"address"}],"stateMutability":"nonpayable"},{"type":"function","name":"arbiter","inputs":[],"outputs":[{"name":"","type":"address","internalType":"address"}],"stateMutability":"view"},{"type":"function","name":"createEscrow","inputs":[{"name":"seller","type":"address","internalType":"address"},{"name":"amount","type":"uint256","internalType":"uint256"},{"name":"description","type":"string","internalType":"string"},{"name":"deadline","type":"uint256","internalType":"uint256"}],"outputs":[{"name":"escrowId","type":"uint256","internalType":"uint256"}],"stateMutability":"nonpayable"},{"type":"function","name":"disputeEscrow","inputs":[{"name":"escrowId","type":"uint256","internalType":"uint256"}],"outputs":[],"stateMutability":"nonpayable"},{"type":"function","name":"escrowCount","inputs":[],"outputs":[{"name":"","type":"uint256","internalType":"uint256"}],"stateMutability":"view"},{"type":"function","name":"escrows","inputs":[{"name":"","type":"uint256","internalType":"uint256"}],"outputs":[{"name":"buyer","type":"address","internalType":"address"},{"name":"seller","type":"address","internalType":"address"},{"name":"amount","type":"uint256","internalType":"uint256"},{"name":"status","type":"uint8","internalType":"enum PayLobsterEscrow.EscrowStatus"},{"name":"description","type":"string","internalType":"string"},{"name":"createdAt","type":"uint256","internalType":"uint256"},{"name":"deadline","type":"uint256","internalType":"uint256"}],"stateMutability":"view"},{"type":"function","name":"getEscrow","inputs":[{"name":"escrowId","type":"uint256","internalType":"uint256"}],"outputs":[{"name":"buyer","type":"address","internalType":"address"},{"name":"seller","type":"address","internalType":"address"},{"name":"amount","type":"uint256","internalType":"uint256"},{"name":"status","type":"uint8","internalType":"enum PayLobsterEscrow.EscrowStatus"},{"name":"description","type":"string","internalType":"string"},{"name":"createdAt","type":"uint256","internalType":"uint256"},{"name":"deadline","type":"uint256","internalType":"uint256"}],"stateMutability":"view"},{"type":"function","name":"refundEscrow","inputs":[{"name":"escrowId","type":"uint256","internalType":"uint256"}],"outputs":[],"stateMutability":"nonpayable"},{"type":"function","name":"releaseEscrow","inputs":[{"name":"escrowId","type":"uint256","internalType":"uint256"}],"outputs":[],"stateMutability":"nonpayable"},{"type":"function","name":"resolveDispute","inputs":[{"name":"escrowId","type":"uint256","internalType":"uint256"},{"name":"releaseToSeller","type":"bool","internalType":"bool"}],"outputs":[],"stateMutability":"nonpayable"},{"type":"function","name":"setArbiter","inputs":[{"name":"newArbiter","type":"address","internalType":"address"}],"outputs":[],"stateMutability":"nonpayable"},{"type":"function","name":"usdc","inputs":[],"outputs":[{"name":"","type":"address","internalType":"contract IERC20"}],"stateMutability":"view"},{"type":"event","name":"DisputeResolved","inputs":[{"name":"id","type":"uint256","indexed":true,"internalType":"uint256"},{"name":"winner","type":"address","indexed":true,"internalType":"address"},{"name":"amount","type":"uint256","indexed":false,"internalType":"uint256"}],"anonymous":false},{"type":"event","name":"EscrowCreated","inputs":[{"name":"id","type":"uint256","indexed":true,"internalType":"uint256"},{"name":"buyer","type":"address","indexed":true,"internalType":"address"},{"name":"seller","type":"address","indexed":true,"internalType":"address"},{"name":"amount","type":"uint256","indexed":false,"internalType":"uint256"},{"name":"description","type":"string","indexed":false,"internalType":"string"}],"anonymous":false},{"type":"event","name":"EscrowDisputed","inputs":[{"name":"id","type":"uint256","indexed":true,"internalType":"uint256"},{"name":"disputer","type":"address","indexed":true,"internalType":"address"}],"anonymous":false},{"type":"event","name":"EscrowRefunded","inputs":[{"name":"id","type":"uint256","indexed":true,"internalType":"uint256"},{"name":"buyer","type":"address","indexed":true,"internalType":"address"},{"name":"amount","type":"uint256","indexed":false,"internalType":"uint256"}],"anonymous":false},{"type":"event","name":"EscrowReleased","inputs":[{"name":"id","type":"uint256","indexed":true,"internalType":"uint256"},{"name":"seller","type":"address","indexed":true,"internalType":"address"},{"name":"amount","type":"uint256","indexed":false,"internalType":"uint256"}],"anonymous":false},{"type":"error","name":"AddressEmptyCode","inputs":[{"name":"target","type":"address","internalType":"address"}]},{"type":"error","name":"AddressInsufficientBalance","inputs":[{"name":"account","type":"address","internalType":"address"}]},{"type":"error","name":"FailedInnerCall","inputs":[]},{"type":"error","name":"ReentrancyGuardReentrantCall","inputs":[]},{"type":"error","name":"SafeERC20FailedOperation","inputs":[{"name":"token","type":"address","internalType":"address"}]}],"bytecode":{"object":"0x60a0346100b457601f61103438819003918201601f19168301916001600160401b038311848410176100b85780849260409485528339810103126100b457610052602061004b836100cc565b92016100cc565b60015f556001600160a01b03918216608052600380546001600160a01b03191691909216179055604051610f5390816100e1823960805181818161015d01528181610414015281816107ec015281816108c201528181610a000152610a6e0152f35b5f80fd5b634e487b7160e01b5f52604160045260245ffd5b51906001600160a01b03821682036100b45756fe60806040526004361015610011575f80fd5b5f3560e01c8063012f52ee14610b4c5780631c9c088a14610aff57806334b25ee21461094f578063356f9dfd1461081b5780633e413bee146107d757806366e3aad614610359578063675ac67a1461033c5780637d19e596146102cc578063b563153c146101ef578063ed653164146100be5763fe25e00a14610092575f80fd5b346100ba575f3660031901126100ba576003546040516001600160a01b039091168152602090f35b5f80fd5b346100ba5760203660031901126100ba576004356100da610dca565b805f52600160205260405f20906003820160ff81541660048110156101db576101039015610d6e565b82546001600160a01b0316330361019d57600160ff198254161790557f6244ed823ca6be0f11bc890c3fafcf3c29cb23420c14243642e930b5e07e6d0a602060018401610181600260018060a01b038354169601958654907f0000000000000000000000000000000000000000000000000000000000000000610de8565b5493546040519081526001600160a01b0390941693a360015f55005b60405162461bcd60e51b81526020600482015260166024820152754f6e6c792062757965722063616e2072656c6561736560501b6044820152606490fd5b634e487b7160e01b5f52602160045260245ffd5b346100ba5760203660031901126100ba57600435805f52600160205260405f20600381019060ff82541660048110156101db5761022c9015610d6e565b80546001600160a01b031633149081156102b5575b501561027a57805460ff1916600317905533907fc25e2b14e82d9713d1570e77d6549051cc07e59f7f354600ce0e0c0f2aa29b0e5f80a3005b60405162461bcd60e51b81526020600482015260136024820152724e6f7420706172747920746f20657363726f7760681b6044820152606490fd5b600101546001600160a01b03163314905083610241565b346100ba5760203660031901126100ba576004355f52600160205260405f2060018060a01b0381541661033860018060a01b0360018401541692600281015460ff6003830154169060058301549161032b600460068601549501610c12565b9160405197889788610cb2565b0390f35b346100ba575f3660031901126100ba576020600254604051908152f35b346100ba5760803660031901126100ba57610372610d1d565b6024356044359167ffffffffffffffff83116100ba57366023840112156100ba5782600401359067ffffffffffffffff82116100ba57602484019360248336920101116100ba576103c1610dca565b6001600160a01b03169081156107a15733821461076457821561072a576104386040516323b872dd60e01b602082015233602482015230604482015284606482015260648152610412608482610bf0565b7f0000000000000000000000000000000000000000000000000000000000000000610e23565b600254925f19841461071657600184016002556040519060e0820182811067ffffffffffffffff821117610702576040523382526020820195848752604083019282845260608101975f895261048d86610dae565b9861049b6040519a8b610bf0565b868a52868460208c01375f8a88016020908101829052608085019b8c524260a0860190815260643560c087019081528c84526001928390526040909320955186546001600160a01b03199081166001600160a01b03928316178855955192870180549096169216919091179093559551600284015551909490600383019060048110156101db5760ff801983541691161790556004820198519485519967ffffffffffffffff8b11610702576105518154610bb8565b601f81116106b1575b50918793918a96959360209c8d99601f821160011461060b5790807f079316c6cb044ce8147d3a031eb8c26e06754da3a9393a80d7619a0e1269675f9a9b6006969594935f92610600575b50508160011b915f199060031b1c19161790555b5160058401555191015560405192835260408984015281604084015260608301375f606085830101526060813395601f80199101168101030190a460015f55604051908152f35b015190505f806105a5565b9091929399601f19831691845f52815f20925f5b8181106106815750926001928592600698967f079316c6cb044ce8147d3a031eb8c26e06754da3a9393a80d7619a0e1269675f9e9f989610610669575b505050811b0190556105b9565b01515f1960f88460031b161c191690555f808061065c565b9496989b50919496999b9850918f600181928786015181550195019301918e9a979593918d999c9a97959361061f565b8b81111561055a579a815f5260205f20601f820160051c90602083106106fa575b81019c601f0160051c035f5b8181106106ed5750509a61055a565b5f8e8201556001016106de565b5f91506106d2565b634e487b7160e01b5f52604160045260245ffd5b634e487b7160e01b5f52601160045260245ffd5b60405162461bcd60e51b81526020600482015260126024820152710416d6f756e74206d757374206265203e20360741b6044820152606490fd5b60405162461bcd60e51b815260206004820152601560248201527421b0b73737ba1032b9b1b937bb903a379039b2b63360591b6044820152606490fd5b60405162461bcd60e51b815260206004820152600e60248201526d24b73b30b634b21039b2b63632b960911b6044820152606490fd5b346100ba575f3660031901126100ba576040517f00000000000000000000000000000000000000000000000000000000000000006001600160a01b03168152602090f35b346100ba5760203660031901126100ba57600435610837610dca565b805f52600160205260405f20906003820160ff81541660048110156101db576108609015610d6e565b60018301546001600160a01b03163314801561091b575b156108e657600260ff198254161790557feac97bc1917fcedc984e3d0671d4e83b359890323d5d1c2de32b28d17c356ced602060018060a01b038454169361018160028201958654907f0000000000000000000000000000000000000000000000000000000000000000610de8565b60405162461bcd60e51b815260206004820152600d60248201526c10d85b9b9bdd081c99599d5b99609a1b6044820152606490fd5b5082546001600160a01b0316331480610942575b8015610877575060068301544211610877565b506006830154151561092f565b346100ba5760403660031901126100ba5760243560043581151582036100ba57610977610dca565b61098c60018060a01b03600354163314610d33565b805f52600160205260405f2091600383019060ff82541660048110156101db57600303610acb5715610a4b57600160ff198254161790557fdf0baf5489595ea17a097d16827d60793e2f57f3b85a982e5d7e02838b841ee66020600260018501610a2460018060a01b0382541683880154907f0000000000000000000000000000000000000000000000000000000000000000610de8565b546001600160a01b0316945b01546040519081526001600160a01b0390941693a360015f55005b805460ff19166002908117909155825490830154610a92916001600160a01b03167f0000000000000000000000000000000000000000000000000000000000000000610de8565b81546001600160a01b0316917fdf0baf5489595ea17a097d16827d60793e2f57f3b85a982e5d7e02838b841ee690602090600290610a30565b60405162461bcd60e51b815260206004820152600c60248201526b139bdd08191a5cdc1d5d195960a21b6044820152606490fd5b346100ba5760203660031901126100ba57610b18610d1d565b60035490610b30336001600160a01b03841614610d33565b6001600160a01b03166001600160a01b03199190911617600355005b346100ba5760203660031901126100ba576004355f52600160205260405f2060018060a01b0381541661033860018060a01b036001840154169260028101549060ff600382015416610ba060048301610c12565b90600660058401549301549360405197889788610cb2565b90600182811c92168015610be6575b6020831014610bd257565b634e487b7160e01b5f52602260045260245ffd5b91607f1691610bc7565b90601f8019910116810190811067ffffffffffffffff82111761070257604052565b9060405191825f825492610c2584610bb8565b8084529360018116908115610c905750600114610c4c575b50610c4a92500383610bf0565b565b90505f9291925260205f20905f915b818310610c74575050906020610c4a928201015f610c3d565b6020919350806001915483858901015201910190918492610c5b565b905060209250610c4a94915060ff191682840152151560051b8201015f610c3d565b6001600160a01b03918216815291166020820152604081019190915292949392909160048310156101db5760206101009160c094606085015260e0608085015280519182918260e0870152018385015e5f828285010152601f80199101168201019460a08201520152565b600435906001600160a01b03821682036100ba57565b15610d3a57565b60405162461bcd60e51b815260206004820152600c60248201526b27b7363c9030b93134ba32b960a11b6044820152606490fd5b15610d7557565b60405162461bcd60e51b8152602060048201526011602482015270457363726f77206e6f742061637469766560781b6044820152606490fd5b67ffffffffffffffff811161070257601f01601f191660200190565b60025f5414610dd95760025f55565b633ee5aeb560e01b5f5260045ffd5b60405163a9059cbb60e01b60208201526001600160a01b039092166024830152604480830193909352918152610c4a91610e23606483610bf0565b5f80610e6b9260018060a01b03169360208151910182865af13d15610eb7573d90610e4d82610dae565b91610e5b6040519384610bf0565b82523d5f602084013e5b83610ebf565b8051908115159182610e93575b5050610e815750565b635274afe760e01b5f5260045260245ffd5b81925090602091810103126100ba57602001518015908115036100ba575f80610e78565b606090610e65565b90610ee35750805115610ed457805190602001fd5b630a12f52160e11b5f5260045ffd5b81511580610f14575b610ef4575090565b639996b31560e01b5f9081526001600160a01b0391909116600452602490fd5b50803b15610eec56fea26469706673582212202c01af72b3ac5b646fe29836c15d705a27d6ce7080ef572fc59d70c31a52846864736f6c63430008210033","linkReferences":{}},"methodIdentifiers":{"arbiter()":"fe25e00a","createEscrow(address,uint256,string,uint256)":"66e3aad6","disputeEscrow(uint256)":"b563153c","escrowCount()":"675ac67a","escrows(uint256)":"012f52ee","getEscrow(uint256)":"7d19e596","refundEscrow(uint256)":"356f9dfd","releaseEscrow(uint256)":"ed653164","resolveDispute(uint256,bool)":"34b25ee2","setArbiter(address)":"1c9c088a","usdc()":"3e413bee"},"id":41}