{"abi":[{"type":"constructor","inputs":[{"name":"_usdc","type":"address","internalType":"address"},{"name":"_identity","type":"address","internalType":"address"},{"name":"_reputation","type":"address","internalType":"address"},{"name":"_credit","type":"address","internalType":"address"},{"name":"_arbiter","type":"address","internalType":"address"},{"name":"_feeRecipient","type":"address","internalType":"address"}],"stateMutability":"nonpayable"},{"type":"function","name":"BPS_DENOMINATOR","inputs":[],"outputs":[{"name":"","type":"uint256","internalType":"uint256"}],"stateMutability":"view"},{"type":"function","name":"CREDIT_REPAYMENT_WINDOW","inputs":[],"outputs":[{"name":"","type":"uint256","internalType":"uint256"}],"stateMutability":"view"},{"type":"function","name":"DISPUTE_WINDOW","inputs":[],"outputs":[{"name":"","type":"uint256","internalType":"uint256"}],"stateMutability":"view"},{"type":"function","name":"MAX_CREDIT_RATIO","inputs":[],"outputs":[{"name":"","type":"uint256","internalType":"uint256"}],"stateMutability":"view"},{"type":"function","name":"PLATFORM_FEE_BPS","inputs":[],"outputs":[{"name":"","type":"uint256","internalType":"uint256"}],"stateMutability":"view"},{"type":"function","name":"accumulatedFees","inputs":[],"outputs":[{"name":"","type":"uint256","internalType":"uint256"}],"stateMutability":"view"},{"type":"function","name":"approveRefund","inputs":[{"name":"escrowId","type":"uint256","internalType":"uint256"}],"outputs":[],"stateMutability":"nonpayable"},{"type":"function","name":"arbiter","inputs":[],"outputs":[{"name":"","type":"address","internalType":"address"}],"stateMutability":"view"},{"type":"function","name":"canRate","inputs":[{"name":"escrowId","type":"uint256","internalType":"uint256"},{"name":"party","type":"address","internalType":"address"}],"outputs":[{"name":"","type":"bool","internalType":"bool"}],"stateMutability":"view"},{"type":"function","name":"cancelEscrow","inputs":[{"name":"escrowId","type":"uint256","internalType":"uint256"}],"outputs":[],"stateMutability":"nonpayable"},{"type":"function","name":"createAndFundEscrow","inputs":[{"name":"seller","type":"address","internalType":"address"},{"name":"amount","type":"uint256","internalType":"uint256"},{"name":"creditAmount","type":"uint256","internalType":"uint256"},{"name":"description","type":"string","internalType":"string"}],"outputs":[{"name":"escrowId","type":"uint256","internalType":"uint256"}],"stateMutability":"nonpayable"},{"type":"function","name":"createEscrow","inputs":[{"name":"seller","type":"address","internalType":"address"},{"name":"amount","type":"uint256","internalType":"uint256"},{"name":"creditAmount","type":"uint256","internalType":"uint256"},{"name":"description","type":"string","internalType":"string"}],"outputs":[{"name":"escrowId","type":"uint256","internalType":"uint256"}],"stateMutability":"nonpayable"},{"type":"function","name":"credit","inputs":[],"outputs":[{"name":"","type":"address","internalType":"contract IPayLobsterCredit"}],"stateMutability":"view"},{"type":"function","name":"escrows","inputs":[{"name":"","type":"uint256","internalType":"uint256"}],"outputs":[{"name":"id","type":"uint256","internalType":"uint256"},{"name":"buyer","type":"address","internalType":"address"},{"name":"seller","type":"address","internalType":"address"},{"name":"amount","type":"uint256","internalType":"uint256"},{"name":"collateralAmount","type":"uint256","internalType":"uint256"},{"name":"creditAmount","type":"uint256","internalType":"uint256"},{"name":"loanId","type":"uint256","internalType":"uint256"},{"name":"description","type":"string","internalType":"string"},{"name":"status","type":"uint8","internalType":"enum PayLobsterEscrowV3.EscrowStatus"},{"name":"createdAt","type":"uint256","internalType":"uint256"},{"name":"fundedAt","type":"uint256","internalType":"uint256"},{"name":"completedAt","type":"uint256","internalType":"uint256"},{"name":"disputeDeadline","type":"uint256","internalType":"uint256"},{"name":"buyerRated","type":"bool","internalType":"bool"},{"name":"sellerRated","type":"bool","internalType":"bool"}],"stateMutability":"view"},{"type":"function","name":"feeRecipient","inputs":[],"outputs":[{"name":"","type":"address","internalType":"address"}],"stateMutability":"view"},{"type":"function","name":"fundEscrow","inputs":[{"name":"escrowId","type":"uint256","internalType":"uint256"}],"outputs":[],"stateMutability":"nonpayable"},{"type":"function","name":"getEscrow","inputs":[{"name":"escrowId","type":"uint256","internalType":"uint256"}],"outputs":[{"name":"","type":"tuple","internalType":"struct PayLobsterEscrowV3.Escrow","components":[{"name":"id","type":"uint256","internalType":"uint256"},{"name":"buyer","type":"address","internalType":"address"},{"name":"seller","type":"address","internalType":"address"},{"name":"amount","type":"uint256","internalType":"uint256"},{"name":"collateralAmount","type":"uint256","internalType":"uint256"},{"name":"creditAmount","type":"uint256","internalType":"uint256"},{"name":"loanId","type":"uint256","internalType":"uint256"},{"name":"description","type":"string","internalType":"string"},{"name":"status","type":"uint8","internalType":"enum PayLobsterEscrowV3.EscrowStatus"},{"name":"createdAt","type":"uint256","internalType":"uint256"},{"name":"fundedAt","type":"uint256","internalType":"uint256"},{"name":"completedAt","type":"uint256","internalType":"uint256"},{"name":"disputeDeadline","type":"uint256","internalType":"uint256"},{"name":"buyerRated","type":"bool","internalType":"bool"},{"name":"sellerRated","type":"bool","internalType":"bool"}]}],"stateMutability":"view"},{"type":"function","name":"getEscrowStatus","inputs":[{"name":"escrowId","type":"uint256","internalType":"uint256"}],"outputs":[{"name":"","type":"uint8","internalType":"enum PayLobsterEscrowV3.EscrowStatus"}],"stateMutability":"view"},{"type":"function","name":"identity","inputs":[],"outputs":[{"name":"","type":"address","internalType":"contract IPayLobsterIdentity"}],"stateMutability":"view"},{"type":"function","name":"nextEscrowId","inputs":[],"outputs":[{"name":"","type":"uint256","internalType":"uint256"}],"stateMutability":"view"},{"type":"function","name":"owner","inputs":[],"outputs":[{"name":"","type":"address","internalType":"address"}],"stateMutability":"view"},{"type":"function","name":"releaseEscrow","inputs":[{"name":"escrowId","type":"uint256","internalType":"uint256"}],"outputs":[],"stateMutability":"nonpayable"},{"type":"function","name":"renounceOwnership","inputs":[],"outputs":[],"stateMutability":"nonpayable"},{"type":"function","name":"repayCredit","inputs":[{"name":"escrowId","type":"uint256","internalType":"uint256"}],"outputs":[],"stateMutability":"nonpayable"},{"type":"function","name":"reputation","inputs":[],"outputs":[{"name":"","type":"address","internalType":"contract IPayLobsterReputation"}],"stateMutability":"view"},{"type":"function","name":"requestRefund","inputs":[{"name":"escrowId","type":"uint256","internalType":"uint256"}],"outputs":[],"stateMutability":"nonpayable"},{"type":"function","name":"resolveDispute","inputs":[{"name":"escrowId","type":"uint256","internalType":"uint256"},{"name":"releaseToSeller","type":"bool","internalType":"bool"},{"name":"splitBps","type":"uint256","internalType":"uint256"}],"outputs":[],"stateMutability":"nonpayable"},{"type":"function","name":"setArbiter","inputs":[{"name":"_arbiter","type":"address","internalType":"address"}],"outputs":[],"stateMutability":"nonpayable"},{"type":"function","name":"setFeeRecipient","inputs":[{"name":"_feeRecipient","type":"address","internalType":"address"}],"outputs":[],"stateMutability":"nonpayable"},{"type":"function","name":"submitRating","inputs":[{"name":"escrowId","type":"uint256","internalType":"uint256"},{"name":"rating","type":"uint8","internalType":"uint8"},{"name":"comment","type":"string","internalType":"string"}],"outputs":[],"stateMutability":"nonpayable"},{"type":"function","name":"transferOwnership","inputs":[{"name":"newOwner","type":"address","internalType":"address"}],"outputs":[],"stateMutability":"nonpayable"},{"type":"function","name":"updateLinkedContracts","inputs":[{"name":"_identity","type":"address","internalType":"address"},{"name":"_reputation","type":"address","internalType":"address"},{"name":"_credit","type":"address","internalType":"address"}],"outputs":[],"stateMutability":"nonpayable"},{"type":"function","name":"usdc","inputs":[],"outputs":[{"name":"","type":"address","internalType":"contract IERC20"}],"stateMutability":"view"},{"type":"function","name":"withdrawFees","inputs":[],"outputs":[],"stateMutability":"nonpayable"},{"type":"event","name":"ArbiterUpdated","inputs":[{"name":"oldArbiter","type":"address","indexed":true,"internalType":"address"},{"name":"newArbiter","type":"address","indexed":true,"internalType":"address"}],"anonymous":false},{"type":"event","name":"CreditRepaid","inputs":[{"name":"escrowId","type":"uint256","indexed":true,"internalType":"uint256"},{"name":"loanId","type":"uint256","indexed":false,"internalType":"uint256"},{"name":"amount","type":"uint256","indexed":false,"internalType":"uint256"}],"anonymous":false},{"type":"event","name":"DisputeResolved","inputs":[{"name":"escrowId","type":"uint256","indexed":true,"internalType":"uint256"},{"name":"winner","type":"address","indexed":false,"internalType":"address"},{"name":"amount","type":"uint256","indexed":false,"internalType":"uint256"}],"anonymous":false},{"type":"event","name":"EscrowCompleted","inputs":[{"name":"escrowId","type":"uint256","indexed":true,"internalType":"uint256"},{"name":"amountReleased","type":"uint256","indexed":false,"internalType":"uint256"},{"name":"fee","type":"uint256","indexed":false,"internalType":"uint256"}],"anonymous":false},{"type":"event","name":"EscrowCreated","inputs":[{"name":"escrowId","type":"uint256","indexed":true,"internalType":"uint256"},{"name":"buyer","type":"address","indexed":true,"internalType":"address"},{"name":"seller","type":"address","indexed":true,"internalType":"address"},{"name":"amount","type":"uint256","indexed":false,"internalType":"uint256"},{"name":"creditAmount","type":"uint256","indexed":false,"internalType":"uint256"},{"name":"description","type":"string","indexed":false,"internalType":"string"}],"anonymous":false},{"type":"event","name":"EscrowDisputed","inputs":[{"name":"escrowId","type":"uint256","indexed":true,"internalType":"uint256"},{"name":"disputedBy","type":"address","indexed":false,"internalType":"address"}],"anonymous":false},{"type":"event","name":"EscrowFunded","inputs":[{"name":"escrowId","type":"uint256","indexed":true,"internalType":"uint256"},{"name":"collateralAmount","type":"uint256","indexed":false,"internalType":"uint256"},{"name":"creditAmount","type":"uint256","indexed":false,"internalType":"uint256"}],"anonymous":false},{"type":"event","name":"EscrowRefunded","inputs":[{"name":"escrowId","type":"uint256","indexed":true,"internalType":"uint256"},{"name":"amountRefunded","type":"uint256","indexed":false,"internalType":"uint256"}],"anonymous":false},{"type":"event","name":"FeeRecipientUpdated","inputs":[{"name":"oldRecipient","type":"address","indexed":true,"internalType":"address"},{"name":"newRecipient","type":"address","indexed":true,"internalType":"address"}],"anonymous":false},{"type":"event","name":"FeesWithdrawn","inputs":[{"name":"recipient","type":"address","indexed":true,"internalType":"address"},{"name":"amount","type":"uint256","indexed":false,"internalType":"uint256"}],"anonymous":false},{"type":"event","name":"OwnershipTransferred","inputs":[{"name":"previousOwner","type":"address","indexed":true,"internalType":"address"},{"name":"newOwner","type":"address","indexed":true,"internalType":"address"}],"anonymous":false},{"type":"event","name":"RatingSubmitted","inputs":[{"name":"escrowId","type":"uint256","indexed":true,"internalType":"uint256"},{"name":"rater","type":"address","indexed":true,"internalType":"address"},{"name":"ratee","type":"address","indexed":true,"internalType":"address"},{"name":"rating","type":"uint8","indexed":false,"internalType":"uint8"}],"anonymous":false},{"type":"error","name":"AddressEmptyCode","inputs":[{"name":"target","type":"address","internalType":"address"}]},{"type":"error","name":"AddressInsufficientBalance","inputs":[{"name":"account","type":"address","internalType":"address"}]},{"type":"error","name":"FailedInnerCall","inputs":[]},{"type":"error","name":"OwnableInvalidOwner","inputs":[{"name":"owner","type":"address","internalType":"address"}]},{"type":"error","name":"OwnableUnauthorizedAccount","inputs":[{"name":"account","type":"address","internalType":"address"}]},{"type":"error","name":"ReentrancyGuardReentrantCall","inputs":[]},{"type":"error","name":"SafeERC20FailedOperation","inputs":[{"name":"token","type":"address","internalType":"address"}]}],"bytecode":{"object":"0x60a0346101e357601f612e5538819003918201601f19168301916001600160401b038311848410176101e75780849260c0946040528339810103126101e357610047816101fb565b90610054602082016101fb565b610060604083016101fb565b61006c606084016101fb565b9161008560a061007e608087016101fb565b95016101fb565b9433156101d0575f8054336001600160a01b0319821681178355604051939290916001600160a01b0316907f8be0079c531659141344cd1fd0a4f28419497f9722a3daafe3b4186f6b6457e09080a3600180556001600160a01b031690811561019f5750608052600280546001600160a01b03199081166001600160a01b03938416179091556003805482169383169390931790925560048054831693821693909317909255600780548216938316939093179092556008805490921692169190911790556001600655604051612c45908161021082396080518181816105b001528181610644015281816109620152818161110701528181611cfb01528181611e2001528181612082015281816128ab01526129990152f35b62461bcd60e51b815260206004820152600c60248201526b496e76616c6964205553444360a01b6044820152606490fd5b631e4fbdf760e01b5f525f60045260245ffd5b5f80fd5b634e487b7160e01b5f52604160045260245ffd5b51906001600160a01b03821682036101e35756fe60806040526004361015610011575f80fd5b5f5f3560e01c908163012f52ee1461227557816305713ae514611fe45781631c9c088a14611f7a5781632c159a1a14611f52578163345460cd14611f1c578163348a71a614611e4f5781633e413bee14611e0b5781634690484014611de3578163476343ee14611cb3578163539aa77f14610192578163587f5ed714611c96578163628e37b414611c66578163683f31d3146114fa578163715018a6146114a15781637d19e5961461126757816389cb29dd1461124a5781638b7bc11e1461107d5781638da5cb5b14611057578163904239121461103a578163a06d083c14611012578163a4b2409e14610eea578163af648e1214610b0e578163c52164c614610ae6578163c9c31af5146108de578163e0182436146107ed578163e1a45218146107d1578163e6e946c21461047c578163e74b981b14610412578163ed65316414610318578163ef085baa14610264578163f2fde38b146101df578163f585dc57146101c2578163fe25e00a14610197575063ff10081914610192575f80fd5b61250a565b346101bf57806003193601126101bf576007546040516001600160a01b039091168152602090f35b80fd5b346101bf57806003193601126101bf5760206040516203f4808152f35b346101bf5760203660031901126101bf576101f86124de565b61020061283b565b6001600160a01b031680156102505781546001600160a01b03198116821783556001600160a01b03167f8be0079c531659141344cd1fd0a4f28419497f9722a3daafe3b4186f6b6457e08380a380f35b631e4fbdf760e01b82526004829052602482fd5b346101bf5760603660031901126101bf5761027d6124de565b6102856124f4565b6044356001600160a01b0381169290839003610314576102a361283b565b6001600160a01b0316806102fb575b506001600160a01b0316806102e2575b50806102cc575080f35b6001600160601b0360a01b600454161760045580f35b6001600160601b0360a01b6003541617600355826102c2565b6001600160601b0360a01b6002541617600255836102b2565b8380fd5b346101bf5760203660031901126101bf57600435906103356127d2565b81815260056020528160408220541480610409575b6103539061259f565b81815260056020526040812060018101549092906001600160a01b031633036103cb5760ff6008840154169260068410156103b75761039860016103b0949514612712565b600360018060a01b036002830154169101549161292a565b6001805580f35b634e487b7160e01b83526021600452602483fd5b60405162461bcd60e51b81526020600482015260166024820152754f6e6c792062757965722063616e2072656c6561736560501b6044820152606490fd5b5081151561034a565b346101bf5760203660031901126101bf5761042b6124de565b61043361283b565b600880546001600160a01b039283166001600160a01b0319821681179092559091167faaebcf1bfa00580e41d966056b48521fa9f202645c86d4ddf28113e617c1b1d38380a380f35b346101bf5760603660031901126101bf5760043560243580151581036107cd5760075460443591906001600160a01b03163303610799576104bb6127d2565b82845260056020528260408520541480610790575b6104d99061259f565b82845260056020526040842090600882019060ff825416600681101561077c57600361050591146125e3565b83156106d05750612710831161069b5760038201928354908082029082820414821517156106875761271061053c910480926126b5565b90801580156105da575b5050917fdf0baf5489595ea17a097d16827d60793e2f57f3b85a982e5d7e02838b841ee693918360409461059b575b50600260ff19825416179055600b42910155548151908582526020820152a26001805580f35b60018301546105d491906001600160a01b03167f00000000000000000000000000000000000000000000000000000000000000006128ee565b87610575565b6032820290828204603214171561067357916106687fdf0baf5489595ea17a097d16827d60793e2f57f3b85a982e5d7e02838b841ee6969492610641612710604098960461062a8160095461274f565b60095560028701546001600160a01b0316926126b5565b907f00000000000000000000000000000000000000000000000000000000000000006128ee565b919381939550610546565b634e487b7160e01b88526011600452602488fd5b634e487b7160e01b87526011600452602487fd5b60405162461bcd60e51b815260206004820152600d60248201526c125b9d985b1a59081cdc1b1a5d609a1b6044820152606490fd5b7fdf0baf5489595ea17a097d16827d60793e2f57f3b85a982e5d7e02838b841ee693501590506107465760028101805460039092018054909261071d91906001600160a01b03168661292a565b549054604080516001600160a01b0390931683526020830191909152819081015b0390a26103b0565b61074f83612861565b6001810154600390910154604080516001600160a01b03909316835260208301919091528190810161073e565b634e487b7160e01b87526021600452602487fd5b508215156104d0565b60405162461bcd60e51b815260206004820152600c60248201526b27b7363c9030b93134ba32b960a11b6044820152606490fd5b8280fd5b346101bf57806003193601126101bf5760206040516127108152f35b346101bf5760203660031901126101bf57600435808252600560205280604083205414806108d5575b61081f9061259f565b808252600560205261084b6040832060018060a01b0360018201541633149081156108be575b5061275c565b815260056020526008604082200160ff81541660068110156103b75761087957805460ff1916600517905580f35b60405162461bcd60e51b815260206004820152601860248201527f43616e206f6e6c792063616e63656c20756e66756e64656400000000000000006044820152606490fd5b600201546001600160a01b03163314905084610845565b50801515610816565b346101bf5760203660031901126101bf576004356108fa6127d2565b80825260056020528060408320541480610add575b6109189061259f565b80825260056020526040822060018101546001600160a01b03163303610aa257600881019060ff8254166006811015610a8e576109559015612712565b60048101610986815430337f00000000000000000000000000000000000000000000000000000000000000006127f2565b6005820191848354806109d0575b505090604092915f516020612bf05f395f51905f5294600160ff19825416179055600a4291015554905482519182526020820152a26001805580f35b60048054604051631cfaf87560e01b8152339281019290925260248201929092526044810192909252602090829060649082908b906001600160a01b03165af1908115610a83578791610a38575b506006820155845f516020612bf05f395f51905f52610994565b93929190506020843d602011610a7b575b81610a56602093836123eb565b81010312610a77579251919290915f516020612bf05f395f51905f52610a1e565b5f80fd5b3d9150610a49565b6040513d89823e3d90fd5b634e487b7160e01b85526021600452602485fd5b60405162461bcd60e51b815260206004820152601360248201527213db9b1e48189d5e595c8818d85b88199d5b99606a1b6044820152606490fd5b5080151561090f565b346101bf57806003193601126101bf576003546040516001600160a01b039091168152602090f35b346101bf5760603660031901126101bf5760043560243560ff81168091036107cd5760443567ffffffffffffffff811161031457610b50903690600401612525565b9083855260056020528360408620541480610ee1575b610b6f9061259f565b8385526005602052610b9a6040862060018060a01b036001820154163314908115610eca575061275c565b8385526005602052604085209060ff600883015416600681101561077c5760028114908115610ebf575b5015610e8457600184101580610e79575b15610e3f5760018201548692906001600160a01b0316338103610e185750600d810160018154610c0860ff821615612796565b60ff1916179055600201546001600160a01b0316925b6003546001600160a01b03169081151580610e04575b610c78575b505060405193845250506001600160a01b03169133917f1c77a158686639c60e48e2f63ec680c6dfd55fdebf1a1d34b6ad59eee1f2861090602090a480f35b600254604051630211925b60e11b815233600482015292906001600160a01b0316602084602481845afa938415610dbf578694610dca575b50604051630211925b60e11b81526001600160a01b038816600482015290602090829060249082905afa908115610dbf578691610d8a575b50813b15610d8657858094610d4a60405197889687958694630e9c775f60e11b8652600486015260248501528c604485015260c06064850152600660c485015265657363726f7760d01b60e485015261010060848501526101048401916126f2565b8b60a483015203925af18015610d7b57610d66575b8080610c39565b81610d70916123eb565b610314578385610d5f565b6040513d84823e3d90fd5b8580fd5b9550506020853d602011610db7575b81610da6602093836123eb565b81010312610a77578894518a610ce8565b3d9150610d99565b6040513d88823e3d90fd5b955092506020853d602011610dfc575b81610de7602093836123eb565b81010312610a77579351889490926020610cb0565b3d9150610dda565b506002546001600160a01b03161515610c34565b90600d016101008154610e3160ff8260081c1615612796565b61ff00191617905592610c1e565b60405162461bcd60e51b8152602060048201526012602482015271526174696e67206d75737420626520312d3560701b6044820152606490fd5b506005841115610bd5565b60405162461bcd60e51b8152602060048201526013602482015272115cd8dc9bddc81b9bdd08199a5b9a5cda1959606a1b6044820152606490fd5b600491501487610bc4565b600201546001600160a01b03163314905087610845565b50831515610b66565b346101bf5760203660031901126101bf57600435610f066127d2565b80825260056020528060408320541480611009575b610f249061259f565b80825260056020526040822060018101546001600160a01b03163303610fc4576008810160ff8154166006811015610a8e576001610f629114612712565b600360ff198254161790556203f480420190814211610fb057600c01557fc25e2b14e82d9713d1570e77d6549051cc07e59f7f354600ce0e0c0f2aa29b0e6020604051338152a26001805580f35b634e487b7160e01b84526011600452602484fd5b60405162461bcd60e51b815260206004820152601d60248201527f4f6e6c792062757965722063616e207265717565737420726566756e640000006044820152606490fd5b50801515610f1b565b346101bf57806003193601126101bf576004546040516001600160a01b039091168152602090f35b346101bf57806003193601126101bf57602060405162093a808152f35b346101bf57806003193601126101bf57546040516001600160a01b039091168152602090f35b346101bf576110d8602061109036612553565b61109e9692969493946127d2565b604051968795869563683f31d360e01b875260018060a01b03166004870152602486015260448501526080606485015260848401916126f2565b038185305af1908115610d7b578291611218575b50808252600560205260408220600481019061112b825430337f00000000000000000000000000000000000000000000000000000000000000006127f2565b600581019384548061117d575b602085805f516020612bf05f395f51905f5260408a898960088101600160ff19825416179055600a42910155549054825191825286820152a260018055604051908152f35b60048054604051631cfaf87560e01b81523392810192909252602482019290925260448101869052906020908290606490829086906001600160a01b03165af191821561120c57916111d9575b50600682015560406020611138565b90506020813d602011611204575b816111f4602093836123eb565b81010312610a77575160206111ca565b3d91506111e7565b604051903d90823e3d90fd5b90506020813d602011611242575b81611233602093836123eb565b81010312610a775751826110ec565b3d9150611226565b346101bf57806003193601126101bf576020600654604051908152f35b346101bf5760203660031901126101bf57806101c0604051611288816123ba565b8281528260208201528260408201528260608201528260808201528260a08201528260c0820152606060e08201528261010082015282610120820152826101408201528261016082015282610180820152826101a082015201526004358152600560205260408120604051916112fd836123ba565b8154835260018201546001600160a01b0390811660208501908152600284015490911660408501908152600384015460608601908152600485015460808701908152600586015460a08801908152600687015460c089019081529397949692949361136a6007850161240d565b60e0860190815260ff600886015416610100870198600682101561148d575088526009850154916101208701928352600a860154936101408801948552600b870154956101608901968752600c880154976101808a01988952600d0154996101a08a019960ff8c1615158b526101c081019b60081c60ff1615158c526040519e8f9e8f9260208452516020840152600160a01b600190039051166040830152600160a01b6001900390511690606001525160808d01525160a08c01525160c08b01525160e08a01525161010089016101e09052610200890161144b916124ad565b9651610120890161145b916124d1565b516101408801525161016087015251610180860152516101a08501525115156101c08401525115156101e08301520390f35b634e487b7160e01b81526021600452602490fd5b346101bf57806003193601126101bf576114b961283b565b80546001600160a01b03198116825581906001600160a01b03167f8be0079c531659141344cd1fd0a4f28419497f9722a3daafe3b4186f6b6457e08280a380f35b346101bf5761150836612553565b9194936115169391936127d2565b6001600160a01b03169283151580611c5c575b15611c26578115611bec578215611bb0576002546001600160a01b031680611a57575b5081866118a3575b600654955f19871461188f576001870160065560405191611574836123ba565b87835233602084015286604084015284606084015260808301528760a08301528060c08301526115a3856126d6565b6115b060405191826123eb565b858152368685011161188b5785846020830137808601602090810183905260e084019182526101008401839052426101208501526101408401839052610160840183905261018084018390526101a084018390526101c084018390528883526005808252604080852086518155928601516001840180546001600160a01b03199081166001600160a01b0393841617909155918701516002850180549093169116179055606085015160038301556080850151600483015560a08501519082015560c0840151600682015590518051919291600784019167ffffffffffffffff82116118775781906116a28454612382565b601f811161181d575b50602090601f83116001146117bb5785926117b0575b50508160011b915f199060031b1c19161790555b6101008301516008830191600682101561148d575093602099936101c0600d8b98956117a1957fdc9a04dd5e45e9ab6f396372e092b395e6523394518e770849fe9f49c61d96b59960ff801983541691161790556101208401516009820155610140840151600a820155610160840151600b820155610180840151600c82015501916101a0810151151560ff801985541691161783550151151561ff0082549160081b169061ff00191617905560405193849384528a84015260606040840152339660608401916126f2565b0390a460018055604051908152f35b015190508c806116c1565b8486528186209250601f198416865b81811061180557509084600195949392106117ed575b505050811b0190556116d5565b01515f1960f88460031b161c191690558c80806117e0565b929360206001819287860151815501950193016117ca565b828111156116ab5790915083855260208520601f840160051c906020851061186f575b849392601f0160051c8290039101865b82811061185e5750506116ab565b808201889055859450600101611850565b869150611840565b634e487b7160e01b84526041600452602484fd5b5080fd5b634e487b7160e01b81526011600452602490fd5b506004546001600160a01b03168015611a1d5760328302838104603203610687576064900487116119d8576040805163090728dd60e01b815233600482015291829060249082905afa908115610dbf5786908792611997575b50156119525786116119175761191286836126b5565b611554565b60405162461bcd60e51b8152602060048201526013602482015272125b9cdd59999a58da595b9d0818dc99591a5d606a1b6044820152606490fd5b60405162461bcd60e51b815260206004820152601760248201527f4e6f7420656c696769626c6520666f72206372656469740000000000000000006044820152606490fd5b9150506040813d6040116119d0575b816119b3604093836123eb565b81010312610d865760206119c6826126a8565b91015190886118fc565b3d91506119a6565b60405162461bcd60e51b815260206004820152601860248201527f45786365656473206d61782063726564697420726174696f00000000000000006044820152606490fd5b60405162461bcd60e51b815260206004820152601260248201527110dc99591a5d081b9bdd08195b98589b195960721b6044820152606490fd5b60405163c3c5a54760e01b8152336004820152602081602481855afa908115610a83578791611b72575b5015611b365760206024916040519283809263c3c5a54760e01b82528960048301525afa908115610dbf578691611afc575b5015611abf578661154c565b60405162461bcd60e51b815260206004820152601560248201527414d95b1b195c881b9bdd081c9959da5cdd195c9959605a1b6044820152606490fd5b90506020813d602011611b2e575b81611b17602093836123eb565b81010312610d8657611b28906126a8565b87611ab3565b3d9150611b0a565b60405162461bcd60e51b8152602060048201526014602482015273109d5e595c881b9bdd081c9959da5cdd195c995960621b6044820152606490fd5b90506020813d602011611ba8575b81611b8d602093836123eb565b81010312611ba457611b9e906126a8565b88611a81565b8680fd5b3d9150611b80565b60405162461bcd60e51b815260206004820152601460248201527311195cd8dc9a5c1d1a5bdb881c995c5d5a5c995960621b6044820152606490fd5b60405162461bcd60e51b81526020600482015260126024820152710416d6f756e74206d757374206265203e20360741b6044820152606490fd5b60405162461bcd60e51b815260206004820152600e60248201526d24b73b30b634b21039b2b63632b960911b6044820152606490fd5b5033841415611529565b346101bf5760403660031901126101bf576020611c8c611c846124f4565b60043561261e565b6040519015158152f35b346101bf57806003193601126101bf576020600954604051908152f35b346101bf57806003193601126101bf57611ccb6127d2565b6008546001600160a01b03163381148015611dd0575b15611d9a57600954908115611d5f5781611d1f91846009557f00000000000000000000000000000000000000000000000000000000000000006128ee565b6008546040519182526001600160a01b0316907fc0819c13be868895eb93e40eaceb96de976442fa1d404e5c55f14bb65a8c489a90602090a26001805580f35b60405162461bcd60e51b81526020600482015260136024820152724e6f206665657320746f20776974686472617760681b6044820152606490fd5b60405162461bcd60e51b815260206004820152600e60248201526d139bdd08185d5d1a1bdc9a5e995960921b6044820152606490fd5b5081546001600160a01b03163314611ce1565b346101bf57806003193601126101bf576008546040516001600160a01b039091168152602090f35b346101bf57806003193601126101bf576040517f00000000000000000000000000000000000000000000000000000000000000006001600160a01b03168152602090f35b346101bf5760203660031901126101bf57600435611e6b6127d2565b80825260056020528060408320541480611f13575b611e899061259f565b80825260056020526040822060028101546001600160a01b03163303611ece576008015460ff1660068110156103b75790611ec960036103b093146125e3565b612861565b60405162461bcd60e51b815260206004820152601760248201527f4f6e6c792073656c6c65722063616e20617070726f76650000000000000000006044820152606490fd5b50801515611e80565b346101bf5760203660031901126101bf5760ff6008604060209360043581526005855220015416611f5060405180926124d1565bf35b346101bf57806003193601126101bf576002546040516001600160a01b039091168152602090f35b346101bf5760203660031901126101bf57611f936124de565b611f9b61283b565b600780546001600160a01b039283166001600160a01b0319821681179092559091167ff0077b1d49976ecd154f8efdc46cca625489710840b8995fb53d9efa037353ba8380a380f35b34610a77576020366003190112610a77576004356120006127d2565b805f5260056020528060405f2054148061226c575b61201e9061259f565b5f81815260056020526040902060018101546001600160a01b03163303612230576005810180549182156121f65760ff60088201541660068110156121e257600281149081156121d7575b501561219e5760060191825415612168576120a69030337f00000000000000000000000000000000000000000000000000000000000000006127f2565b60018060a01b03600454168254813b15610a77575f91602483926040519485938492630636db6560e21b845260048401525af1801561215d57612122575b5081604091857f1af839ce655eb23ec05b8977b91598e475661a48d34a7f4b4c499ddcaeac551c945492555482519182526020820152a26001805580f35b6040919450916121535f7f1af839ce655eb23ec05b8977b91598e475661a48d34a7f4b4c499ddcaeac551c946123eb565b5f949150916120e4565b6040513d5f823e3d90fd5b60405162461bcd60e51b815260206004820152600e60248201526d27379030b1ba34bb32903637b0b760911b6044820152606490fd5b60405162461bcd60e51b8152602060048201526011602482015270115cd8dc9bddc81b9bdd0818db1bdcd959607a1b6044820152606490fd5b600491501486612069565b634e487b7160e01b5f52602160045260245ffd5b60405162461bcd60e51b81526020600482015260126024820152714e6f2063726564697420746f20726570617960701b6044820152606490fd5b60405162461bcd60e51b81526020600482015260146024820152734f6e6c792062757965722063616e20726570617960601b6044820152606490fd5b50801515612015565b34610a77576020366003190112610a77576004355f52600560205260405f208054600160a01b6001900360018301541691600160a01b60019003600282015416600382015491600481015492600582015493600683015494600784016122da9061240d565b600885015460ff1696600986015492600a87015494600b88015496600c89015498600d0154996040519d8e809e81526020015260408d015260608c015260808b015260a08a015260c089015260e088016101e090526101e0880161233d916124ad565b95610100880161234c916124d1565b61012087015261014086015261016085015261018084015260ff811615156101a084015260081c60ff1615156101c08301520390f35b90600182811c921680156123b0575b602083101461239c57565b634e487b7160e01b5f52602260045260245ffd5b91607f1691612391565b6101e0810190811067ffffffffffffffff8211176123d757604052565b634e487b7160e01b5f52604160045260245ffd5b90601f8019910116810190811067ffffffffffffffff8211176123d757604052565b9060405191825f82549261242084612382565b808452936001811690811561248b5750600114612447575b50612445925003836123eb565b565b90505f9291925260205f20905f915b81831061246f575050906020612445928201015f612438565b6020919350806001915483858901015201910190918492612456565b90506020925061244594915060ff191682840152151560051b8201015f612438565b805180835260209291819084018484015e5f828201840152601f01601f1916010190565b9060068210156121e25752565b600435906001600160a01b0382168203610a7757565b602435906001600160a01b0382168203610a7757565b34610a77575f366003190112610a7757602060405160328152f35b9181601f84011215610a775782359167ffffffffffffffff8311610a775760208381860195010111610a7757565b906080600319830112610a77576004356001600160a01b0381168103610a77579160243591604435916064359067ffffffffffffffff8211610a775761259b91600401612525565b9091565b156125a657565b60405162461bcd60e51b8152602060048201526015602482015274115cd8dc9bddc8191bd95cc81b9bdd08195e1a5cdd605a1b6044820152606490fd5b156125ea57565b60405162461bcd60e51b815260206004820152600c60248201526b139bdd08191a5cdc1d5d195960a21b6044820152606490fd5b5f52600560205260405f209060ff60088301541660068110156121e2576002811415908161269c575b506126965760018201546001600160a01b039182169116811461268a5760028201546001600160a01b03161461267c57505f90565b600d015460081c60ff161590565b50600d015460ff161590565b50505f90565b6004915014155f612647565b51908115158203610a7757565b919082039182116126c257565b634e487b7160e01b5f52601160045260245ffd5b67ffffffffffffffff81116123d757601f01601f191660200190565b908060209392818452848401375f828201840152601f01601f1916010190565b1561271957565b60405162461bcd60e51b815260206004820152600e60248201526d496e76616c69642073746174757360901b6044820152606490fd5b919082018092116126c257565b1561276357565b60405162461bcd60e51b815260206004820152600b60248201526a4e6f74206120706172747960a81b6044820152606490fd5b1561279d57565b60405162461bcd60e51b815260206004820152600d60248201526c105b1c9958591e481c985d1959609a1b6044820152606490fd5b6002600154146127e3576002600155565b633ee5aeb560e01b5f5260045ffd5b6040516323b872dd60e01b60208201526001600160a01b039283166024820152929091166044830152606480830193909352918152612445916128366084836123eb565b612af6565b5f546001600160a01b0316330361284e57565b63118cdaa760e01b5f523360045260245ffd5b805f5260056020527f8e09fed7623ad9f8d5a701dd9f3233197147d0043c564dfb1a6c0023ab568c20602060405f2060018060a01b03600182015416906128cf60048201928354907f00000000000000000000000000000000000000000000000000000000000000006128ee565b60088101600460ff19825416179055600b4291015554604051908152a2565b60405163a9059cbb60e01b60208201526001600160a01b03929092166024830152604480830193909352918152612445916128366064836123eb565b915f835f52600560205260405f209060328302838104603214841517156126c25761271061295a910480946126b5565b6004830154949080861115612aef57945b6129898661298361297c82856126b5565b91846126b5565b9061274f565b851115612ac7575b50846129bd917f00000000000000000000000000000000000000000000000000000000000000006128ee565b6004546001600160a01b031680612a19575b5050916040918360087f7db53ed4c9f6c2d35b2cc434b746d9b5d69c4f23389323588cb6ccdda0d831329501600260ff19825416179055600b4291015582519182526020820152a2565b60018301546001600160a01b0316813b15610a77575f9160248392604051948593849263432327f160e01b845260048401525af1801561215d57612ab4575b5060045460028301546001600160a01b039182169116813b156107cd57829160248392604051948593849263432327f160e01b845260048401525af18015610d7b57156129cf57612aaa8280926123eb565b6101bf57806129cf565b612ac091505f906123eb565b5f5f612a58565b6129bd91955084612ad7916126b5565b8095612ae58660095461274f565b6009559150612991565b508461296b565b5f80612b3e9260018060a01b03169360208151910182865af13d15612b89573d90612b20826126d6565b91612b2e60405193846123eb565b82523d5f602084013e5b83612b91565b8051908115159182612b66575b5050612b545750565b635274afe760e01b5f5260045260245ffd5b8192509060209181010312610a77576020612b8191016126a8565b155f80612b4b565b606090612b38565b90612bb55750805115612ba657805190602001fd5b630a12f52160e11b5f5260045ffd5b81511580612be6575b612bc6575090565b639996b31560e01b5f9081526001600160a01b0391909116600452602490fd5b50803b15612bbe56fe8dff3cf02c5b34f1bbcae6061488e20d55563d782e18f3af44cb099f1783b2fba264697066735822122090ac39bf739dd2bc49dc94bf98e67ad931a9b5c98f73bfe7567240aecf34554764736f6c63430008210033","linkReferences":{}},"methodIdentifiers":{"BPS_DENOMINATOR()":"e1a45218","CREDIT_REPAYMENT_WINDOW()":"90423912","DISPUTE_WINDOW()":"f585dc57","MAX_CREDIT_RATIO()":"ff100819","PLATFORM_FEE_BPS()":"539aa77f","accumulatedFees()":"587f5ed7","approveRefund(uint256)":"348a71a6","arbiter()":"fe25e00a","canRate(uint256,address)":"628e37b4","cancelEscrow(uint256)":"e0182436","createAndFundEscrow(address,uint256,uint256,string)":"8b7bc11e","createEscrow(address,uint256,uint256,string)":"683f31d3","credit()":"a06d083c","escrows(uint256)":"012f52ee","feeRecipient()":"46904840","fundEscrow(uint256)":"c9c31af5","getEscrow(uint256)":"7d19e596","getEscrowStatus(uint256)":"345460cd","identity()":"2c159a1a","nextEscrowId()":"89cb29dd","owner()":"8da5cb5b","releaseEscrow(uint256)":"ed653164","renounceOwnership()":"715018a6","repayCredit(uint256)":"05713ae5","reputation()":"c52164c6","requestRefund(uint256)":"a4b2409e","resolveDispute(uint256,bool,uint256)":"e6e946c2","setArbiter(address)":"1c9c088a","setFeeRecipient(address)":"e74b981b","submitRating(uint256,uint8,string)":"af648e12","transferOwnership(address)":"f2fde38b","updateLinkedContracts(address,address,address)":"ef085baa","usdc()":"3e413bee","withdrawFees()":"476343ee"},"id":43}