{"abi":[{"type":"constructor","inputs":[],"stateMutability":"nonpayable"},{"type":"function","name":"CREDIT_MULTIPLIER","inputs":[],"outputs":[{"name":"","type":"uint256","internalType":"uint256"}],"stateMutability":"view"},{"type":"function","name":"MAX_CREDIT_RATIO","inputs":[],"outputs":[{"name":"","type":"uint256","internalType":"uint256"}],"stateMutability":"view"},{"type":"function","name":"MAX_SCORE","inputs":[],"outputs":[{"name":"","type":"uint256","internalType":"uint256"}],"stateMutability":"view"},{"type":"function","name":"MIN_SCORE","inputs":[],"outputs":[{"name":"","type":"uint256","internalType":"uint256"}],"stateMutability":"view"},{"type":"function","name":"REPAYMENT_WINDOW","inputs":[],"outputs":[{"name":"","type":"uint256","internalType":"uint256"}],"stateMutability":"view"},{"type":"function","name":"SCORE_DEFAULT","inputs":[],"outputs":[{"name":"","type":"int256","internalType":"int256"}],"stateMutability":"view"},{"type":"function","name":"SCORE_EARLY_REPAYMENT","inputs":[],"outputs":[{"name":"","type":"int256","internalType":"int256"}],"stateMutability":"view"},{"type":"function","name":"SCORE_FOR_CREDIT","inputs":[],"outputs":[{"name":"","type":"uint256","internalType":"uint256"}],"stateMutability":"view"},{"type":"function","name":"SCORE_LATE_PAYMENT","inputs":[],"outputs":[{"name":"","type":"int256","internalType":"int256"}],"stateMutability":"view"},{"type":"function","name":"SCORE_SUCCESSFUL_TXN","inputs":[],"outputs":[{"name":"","type":"int256","internalType":"int256"}],"stateMutability":"view"},{"type":"function","name":"agentLoans","inputs":[{"name":"","type":"address","internalType":"address"},{"name":"","type":"uint256","internalType":"uint256"}],"outputs":[{"name":"","type":"uint256","internalType":"uint256"}],"stateMutability":"view"},{"type":"function","name":"authorizeCaller","inputs":[{"name":"caller","type":"address","internalType":"address"}],"outputs":[],"stateMutability":"nonpayable"},{"type":"function","name":"authorizedCallers","inputs":[{"name":"","type":"address","internalType":"address"}],"outputs":[{"name":"","type":"bool","internalType":"bool"}],"stateMutability":"view"},{"type":"function","name":"checkCreditEligibility","inputs":[{"name":"agent","type":"address","internalType":"address"}],"outputs":[{"name":"qualified","type":"bool","internalType":"bool"},{"name":"available","type":"uint256","internalType":"uint256"}],"stateMutability":"view"},{"type":"function","name":"getActiveLoans","inputs":[{"name":"agent","type":"address","internalType":"address"}],"outputs":[{"name":"","type":"uint256[]","internalType":"uint256[]"}],"stateMutability":"view"},{"type":"function","name":"getAvailableCredit","inputs":[{"name":"agent","type":"address","internalType":"address"}],"outputs":[{"name":"","type":"uint256","internalType":"uint256"}],"stateMutability":"view"},{"type":"function","name":"getCreditLimit","inputs":[{"name":"agent","type":"address","internalType":"address"}],"outputs":[{"name":"","type":"uint256","internalType":"uint256"}],"stateMutability":"view"},{"type":"function","name":"getProfile","inputs":[{"name":"agent","type":"address","internalType":"address"}],"outputs":[{"name":"","type":"tuple","internalType":"struct PayLobsterCredit.CreditProfile","components":[{"name":"score","type":"uint256","internalType":"uint256"},{"name":"creditLimit","type":"uint256","internalType":"uint256"},{"name":"availableCredit","type":"uint256","internalType":"uint256"},{"name":"totalDebt","type":"uint256","internalType":"uint256"},{"name":"lifetimeBorrowed","type":"uint256","internalType":"uint256"},{"name":"lifetimeRepaid","type":"uint256","internalType":"uint256"},{"name":"successfulTxns","type":"uint256","internalType":"uint256"},{"name":"lateTxns","type":"uint256","internalType":"uint256"},{"name":"defaults","type":"uint256","internalType":"uint256"},{"name":"registeredAt","type":"uint256","internalType":"uint256"},{"name":"lastActivity","type":"uint256","internalType":"uint256"},{"name":"initialized","type":"bool","internalType":"bool"}]}],"stateMutability":"view"},{"type":"function","name":"getScore","inputs":[{"name":"agent","type":"address","internalType":"address"}],"outputs":[{"name":"","type":"uint256","internalType":"uint256"}],"stateMutability":"view"},{"type":"function","name":"hasActiveDebt","inputs":[{"name":"agent","type":"address","internalType":"address"}],"outputs":[{"name":"hasDebt","type":"bool","internalType":"bool"},{"name":"amount","type":"uint256","internalType":"uint256"}],"stateMutability":"view"},{"type":"function","name":"initializeProfile","inputs":[{"name":"agent","type":"address","internalType":"address"},{"name":"initialScore","type":"uint256","internalType":"uint256"}],"outputs":[],"stateMutability":"nonpayable"},{"type":"function","name":"loans","inputs":[{"name":"","type":"uint256","internalType":"uint256"}],"outputs":[{"name":"amount","type":"uint256","internalType":"uint256"},{"name":"dueDate","type":"uint256","internalType":"uint256"},{"name":"escrowId","type":"uint256","internalType":"uint256"},{"name":"borrower","type":"address","internalType":"address"},{"name":"repaid","type":"bool","internalType":"bool"},{"name":"defaulted","type":"bool","internalType":"bool"}],"stateMutability":"view"},{"type":"function","name":"nextLoanId","inputs":[],"outputs":[{"name":"","type":"uint256","internalType":"uint256"}],"stateMutability":"view"},{"type":"function","name":"owner","inputs":[],"outputs":[{"name":"","type":"address","internalType":"address"}],"stateMutability":"view"},{"type":"function","name":"processOverdueLoans","inputs":[{"name":"agent","type":"address","internalType":"address"}],"outputs":[{"name":"overdueCount","type":"uint256","internalType":"uint256"}],"stateMutability":"nonpayable"},{"type":"function","name":"profiles","inputs":[{"name":"","type":"address","internalType":"address"}],"outputs":[{"name":"score","type":"uint256","internalType":"uint256"},{"name":"creditLimit","type":"uint256","internalType":"uint256"},{"name":"availableCredit","type":"uint256","internalType":"uint256"},{"name":"totalDebt","type":"uint256","internalType":"uint256"},{"name":"lifetimeBorrowed","type":"uint256","internalType":"uint256"},{"name":"lifetimeRepaid","type":"uint256","internalType":"uint256"},{"name":"successfulTxns","type":"uint256","internalType":"uint256"},{"name":"lateTxns","type":"uint256","internalType":"uint256"},{"name":"defaults","type":"uint256","internalType":"uint256"},{"name":"registeredAt","type":"uint256","internalType":"uint256"},{"name":"lastActivity","type":"uint256","internalType":"uint256"},{"name":"initialized","type":"bool","internalType":"bool"}],"stateMutability":"view"},{"type":"function","name":"recordDefault","inputs":[{"name":"agent","type":"address","internalType":"address"}],"outputs":[],"stateMutability":"nonpayable"},{"type":"function","name":"recordLatePayment","inputs":[{"name":"agent","type":"address","internalType":"address"}],"outputs":[],"stateMutability":"nonpayable"},{"type":"function","name":"recordLoan","inputs":[{"name":"borrower","type":"address","internalType":"address"},{"name":"amount","type":"uint256","internalType":"uint256"},{"name":"escrowId","type":"uint256","internalType":"uint256"}],"outputs":[{"name":"loanId","type":"uint256","internalType":"uint256"}],"stateMutability":"nonpayable"},{"type":"function","name":"recordLoanDefault","inputs":[{"name":"loanId","type":"uint256","internalType":"uint256"}],"outputs":[],"stateMutability":"nonpayable"},{"type":"function","name":"recordRepayment","inputs":[{"name":"loanId","type":"uint256","internalType":"uint256"}],"outputs":[],"stateMutability":"nonpayable"},{"type":"function","name":"recordSuccessfulTransaction","inputs":[{"name":"agent","type":"address","internalType":"address"}],"outputs":[],"stateMutability":"nonpayable"},{"type":"function","name":"renounceOwnership","inputs":[],"outputs":[],"stateMutability":"nonpayable"},{"type":"function","name":"revokeCaller","inputs":[{"name":"caller","type":"address","internalType":"address"}],"outputs":[],"stateMutability":"nonpayable"},{"type":"function","name":"syncFromReputation","inputs":[{"name":"agent","type":"address","internalType":"address"},{"name":"trustScore","type":"uint256","internalType":"uint256"}],"outputs":[],"stateMutability":"nonpayable"},{"type":"function","name":"transferOwnership","inputs":[{"name":"newOwner","type":"address","internalType":"address"}],"outputs":[],"stateMutability":"nonpayable"},{"type":"event","name":"CallerAuthorized","inputs":[{"name":"caller","type":"address","indexed":true,"internalType":"address"}],"anonymous":false},{"type":"event","name":"CallerRevoked","inputs":[{"name":"caller","type":"address","indexed":true,"internalType":"address"}],"anonymous":false},{"type":"event","name":"CreditLimitUpdated","inputs":[{"name":"agent","type":"address","indexed":true,"internalType":"address"},{"name":"oldLimit","type":"uint256","indexed":false,"internalType":"uint256"},{"name":"newLimit","type":"uint256","indexed":false,"internalType":"uint256"}],"anonymous":false},{"type":"event","name":"CreditProfileCreated","inputs":[{"name":"agent","type":"address","indexed":true,"internalType":"address"},{"name":"initialScore","type":"uint256","indexed":false,"internalType":"uint256"}],"anonymous":false},{"type":"event","name":"LoanCreated","inputs":[{"name":"loanId","type":"uint256","indexed":true,"internalType":"uint256"},{"name":"borrower","type":"address","indexed":true,"internalType":"address"},{"name":"amount","type":"uint256","indexed":false,"internalType":"uint256"},{"name":"dueDate","type":"uint256","indexed":false,"internalType":"uint256"}],"anonymous":false},{"type":"event","name":"LoanDefaulted","inputs":[{"name":"loanId","type":"uint256","indexed":true,"internalType":"uint256"},{"name":"borrower","type":"address","indexed":true,"internalType":"address"},{"name":"amount","type":"uint256","indexed":false,"internalType":"uint256"}],"anonymous":false},{"type":"event","name":"LoanRepaid","inputs":[{"name":"loanId","type":"uint256","indexed":true,"internalType":"uint256"},{"name":"borrower","type":"address","indexed":true,"internalType":"address"},{"name":"amount","type":"uint256","indexed":false,"internalType":"uint256"}],"anonymous":false},{"type":"event","name":"OwnershipTransferred","inputs":[{"name":"previousOwner","type":"address","indexed":true,"internalType":"address"},{"name":"newOwner","type":"address","indexed":true,"internalType":"address"}],"anonymous":false},{"type":"event","name":"ScoreUpdated","inputs":[{"name":"agent","type":"address","indexed":true,"internalType":"address"},{"name":"oldScore","type":"uint256","indexed":false,"internalType":"uint256"},{"name":"newScore","type":"uint256","indexed":false,"internalType":"uint256"},{"name":"reason","type":"string","indexed":false,"internalType":"string"}],"anonymous":false},{"type":"error","name":"OwnableInvalidOwner","inputs":[{"name":"owner","type":"address","internalType":"address"}]},{"type":"error","name":"OwnableUnauthorizedAccount","inputs":[{"name":"account","type":"address","internalType":"address"}]},{"type":"error","name":"ReentrancyGuardReentrantCall","inputs":[]}],"bytecode":{"object":"0x60808060405234607a5733156067575f8054336001600160a01b0319821681178355916001600160a01b03909116907f8be0079c531659141344cd1fd0a4f28419497f9722a3daafe3b4186f6b6457e09080a3600180556001600455611dfd908161007f8239f35b631e4fbdf760e01b5f525f60045260245ffd5b5f80fdfe60806040526004361015610011575f80fd5b5f3560e01c806303d1a1a11461183b578063090728dd146118065780630f53a4701461169757806318db6d941461149e5780631cfaf875146111ce5780631f0cb290146111b257806327ff6223146111965780632c333e251461115b5780632c388d5d146110f35780633403c25d146110af57806340b8927014611093578063432327f114610f82578063496f74e814610cf2578063536fff6c14610cb55780635c266d7a14610bcb5780635ee0108e14610bae578063715018a614610b5757806387c5145914610b3a57806387ec8d0414610b1e5780638b7e48e914610b015780638da5cb5b14610ada5780638df7352c14610a0d5780639dff5556146109b5578063b774353014610950578063b9b929fd14610915578063bbe156271461085d578063cacef09b14610658578063ce315ea41461063c578063d47875d014610604578063dca090eb1461048e578063de0516d414610473578063e1ec3c6814610404578063f2fde38b1461037f578063f8d53329146101df578063f9cfa30b146101c45763ff100819146101a5575f80fd5b346101c0575f3660031901126101c057602060405160328152f35b5f80fd5b346101c0575f3660031901126101c057602060405160038152f35b346101c05760203660031901126101c057600435335f52600660205260ff60405f205416801561036c575b61021390611af1565b61021b611c52565b805f52600360205260405f209061023482541515611b2e565b6003820191825460ff8160a01c16158061035d575b61025290611b70565b60018201544211156103255760ff60a81b198116600160a81b1784556001600160a01b03165f908152600260209081526040909120805460088201805492967f2d6de712d035bfecc1593860af7eae0831e978cab3cd96f778478b1fdc443bc395935f516020611da85f395f51905f5292906102cd90611a67565b905542600a8901556102de83611c9d565b9788905580546102f6906001600160a01b0316611cc1565b546040516001600160a01b0390911697889382916103149183611c24565b0390a254604051908152a360018055005b60405162461bcd60e51b815260206004820152601060248201526f4c6f616e206e6f74207965742064756560801b6044820152606490fd5b5060a881901c60ff1615610249565b505f546001600160a01b0316331461020a565b346101c05760203660031901126101c057610398611a3c565b6103a0611d5e565b6001600160a01b031680156103f1575f80546001600160a01b03198116831782556001600160a01b0316907f8be0079c531659141344cd1fd0a4f28419497f9722a3daafe3b4186f6b6457e09080a3005b631e4fbdf760e01b5f525f60045260245ffd5b346101c05760203660031901126101c0576004355f52600360205260c060405f2060ff81549160018101549060036002820154910154916040519485526020850152604084015260018060a01b0381166060840152818160a01c161515608084015260a81c16151560a0820152f35b346101c0575f3660031901126101c057602060405160058152f35b346101c05760203660031901126101c0576104a7611a3c565b6001600160a01b0381165f8181526005602052604081209190805b83548210156105e2576104d58285611a52565b90549060031b1c5f52600360205260405f20918360038401805460ff8160a01c1615806105d4575b806105c7575b610515575b50505060010191506104c2565b60ff60a81b1916600160a81b1790556001925f516020611da85f395f51905f529061053f90611a67565b94825f526002602052878360405f20926008840161055d8154611a67565b90557f2d6de712d035bfecc1593860af7eae0831e978cab3cd96f778478b1fdc443bc3602061059a8987549661059288611c9d565b809955611a52565b90549060031b1c9254604051908152a36105b960405192839283611c24565b0390a2829150838780610508565b5060018601544211610503565b5060ff8160a81c16156104fd565b60209085816105f5575b50604051908152f35b6105fe90611cc1565b826105ec565b346101c05760203660031901126101c0576001600160a01b03610625611a3c565b165f526002602052602060405f2054604051908152f35b346101c0575f3660031901126101c05760206040516102588152f35b346101c05760403660031901126101c057610671611a3c565b60243590335f52600660205260ff60405f205416801561084a575b61069590611af1565b6001600160a01b03165f818152600260205260409020600b015490919060ff1661080c5761012c81101580610800575b156107cb576020816107c26106fa7fad368736db76adc10fc482b82def6ffb88de93e23fe08257613890bbf86d173994611d84565b600b86610705611a75565b928584528684019080825260408501908152606085015f8152608086015f815260a087015f815260c08801905f825260e08901925f84526101008a01945f86526101208b01964288526101408c0198428a526101608d019a60018c525f528f6002905260405f209c518d555160018d01555160028c01555160038b01555160048a015551600589015551600688015551600787015551600886015551600985015551600a84015551151591019060ff801983541691151516179055565b604051908152a2005b60405162461bcd60e51b815260206004820152600d60248201526c496e76616c69642073636f726560981b6044820152606490fd5b506103528111156106c5565b60405162461bcd60e51b815260206004820152601660248201527550726f66696c6520616c72656164792065786973747360501b6044820152606490fd5b505f546001600160a01b0316331461068c565b346101c05760203660031901126101c0576001600160a01b0361087e611a3c565b165f52600260205261018060405f20805490600181015490600281015460038201546004830154600584015460068501549060078601549260088701549460098801549660ff600b600a8b01549a015416996040519b8c5260208c015260408b015260608a0152608089015260a088015260c087015260e08601526101008501526101208401526101408301521515610160820152f35b346101c05760203660031901126101c0576001600160a01b03610936611a3c565b165f5260026020526020600260405f200154604051908152f35b346101c05760203660031901126101c057610969611a3c565b610971611d5e565b6001600160a01b03165f818152600660205260408120805460ff191690557f0491b0192bae7692618bfa4eff3f4942d2d8ec3300ef2e63d325b45e937c4ff19080a2005b346101c05760403660031901126101c0576109ce611a3c565b6001600160a01b03165f908152600560205260409020805460243591908210156101c0576020916109fe91611a52565b90549060031b1c604051908152f35b346101c05760203660031901126101c057610a26611a3c565b335f52600660205260ff60405f2054168015610ac7575b610a4690611af1565b5f516020611da85f395f51905f5260018060a01b03821691825f526002602052610a7960ff600b60405f20015416611bcc565b825f52600260205260405f2090610ab382549160088401610a9a8154611a67565b905542600a850155610aab83611c9d565b809455611cc1565b610ac260405192839283611c24565b0390a2005b505f546001600160a01b03163314610a3d565b346101c0575f3660031901126101c0575f546040516001600160a01b039091168152602090f35b346101c0575f3660031901126101c0576020604051620f42408152f35b346101c0575f3660031901126101c05760206040516063198152f35b346101c0575f3660031901126101c0576020600454604051908152f35b346101c0575f3660031901126101c057610b6f611d5e565b5f80546001600160a01b0319811682556001600160a01b03167f8be0079c531659141344cd1fd0a4f28419497f9722a3daafe3b4186f6b6457e08280a3005b346101c0575f3660031901126101c057602060405162093a808152f35b346101c05760203660031901126101c057610be4611a3c565b335f52600660205260ff60405f2054168015610ca2575b610c0490611af1565b5f516020611da85f395f51905f5260a0600180821b03831692835f526002602052610c3860ff600b60405f20015416611bcc565b835f52600260205260405f20610c7181549260078301610c588154611a67565b905542600a840155610c6984611c72565b809355611cc1565b604051918252602082015260606040820152600c60608201526b1b185d1957dc185e5b595b9d60a21b6080820152a2005b505f546001600160a01b03163314610bfb565b346101c05760203660031901126101c0576001600160a01b03610cd6611a3c565b165f526006602052602060ff60405f2054166040519015158152f35b346101c05760403660031901126101c057610d0b611a3c565b602435335f52600660205260ff60405f2054168015610f6f575b610d2e90611af1565b60648111610f34576001600160a01b0382165f818152600260205260409020600b81015491939160ff16610e8c575050610d69606491611c11565b0461012c018061012c11610e78576020816107c2610da77fad368736db76adc10fc482b82def6ffb88de93e23fe08257613890bbf86d173994611d84565b600b86610db385611d84565b92610dbc611a75565b9386855287850191825260408501908152606085015f8152608086015f815260a087015f815260c08801905f825260e08901925f84526101008a01945f86526101208b01964288526101408c0198428a526101608d019a60018c525f528f6002905260405f209c518d555160018d01555160028c01555160038b01555160048a015551600589015551600688015551600787015551600886015551600985015551600a84015551151591019060ff801983541691151516179055565b634e487b7160e01b5f52601160045260245ffd5b9091610e99606491611c11565b0461012c01908161012c11610e78578054906041820282810460411483151715610e7857602384029380850460231490151715610e78575f516020611da85f395f51905f52946064610ef060a096610f0094611bbf565b0492838155600a42910155611cc1565b604051918252602082015260606040820152600f60608201526e72657075746174696f6e5f73796e6360881b6080820152a2005b60405162461bcd60e51b8152602060048201526013602482015272496e76616c69642074727573742073636f726560681b6044820152606490fd5b505f546001600160a01b03163314610d25565b346101c05760203660031901126101c057610f9b611a3c565b335f52600660205260ff60405f2054168015611080575b610fbb90611af1565b60018060a01b03811690815f526002602052610fe060ff600b60405f20015416611bcc565b815f52600260205260405f2090815460068301610ffd8154611a67565b905542600a8401556005810192838211610e785761103e60a0935f516020611da85f395f51905f529561035281115f14611079575061035280935b55611cc1565b604051918252602082015260606040820152601660608201527539bab1b1b2b9b9b33ab62fba3930b739b0b1ba34b7b760511b6080820152a2005b8093611038565b505f546001600160a01b03163314610fb2565b346101c0575f3660031901126101c057602060405161012c8152f35b346101c05760203660031901126101c0576001600160a01b036110d0611a3c565b165f90815260026020908152604091829020600301548251811515815291820152f35b346101c05760203660031901126101c05761110c611a3c565b611114611d5e565b6001600160a01b03165f818152600660205260408120805460ff191660011790557f6acfd92212f0ec670af78f8ba2273e4a85ac17023475650c25be0440602bff2d9080a2005b346101c05760203660031901126101c0576001600160a01b0361117c611a3c565b165f5260026020526020600160405f200154604051908152f35b346101c0575f3660031901126101c05760206040516103528152f35b346101c0575f3660031901126101c05760206040516009198152f35b346101c05760603660031901126101c0576111e7611a3c565b60243590335f52600660205260ff60405f205416801561148b575b61120b90611af1565b60018060a01b031690815f52600260205261122f60ff600b60405f20015416611bcc565b611237611c52565b815f52600260205260405f2091610258835410611446576002830180548311611401576004549261126784611a67565b60045562093a804201804211610e78576040519060c0820182811067ffffffffffffffff8211176113ed5760409081528383526020808401928352604435848301908152606085018881525f6080870181815260a08089018381528d845260038088528885209a518b55985160018b0155945160028a01559251979096018054965193516001600160b01b03199097166001600160a01b03989098169790971792151590911b60ff60a01b169190911793151560a81b60ff60a81b169390931790935585825260059092522080549091680100000000000000008210156113ed576020968694611380847f3373919ad665425d2cddb4072830e5935b6ee308440fa99b23383648da473bc0966001604097018155611a52565b81549060031b9088821b915f19901b191617905561139f838254611bb2565b9055600381016113b0838254611bbf565b9055600481016113c1838254611bbf565b9055600a42910155835f52600387526001825f200154825191825287820152a360018055604051908152f35b634e487b7160e01b5f52604160045260245ffd5b60405162461bcd60e51b815260206004820152601860248201527f4578636565647320617661696c61626c652063726564697400000000000000006044820152606490fd5b60405162461bcd60e51b815260206004820152601860248201527f53636f726520746f6f206c6f7720666f722063726564697400000000000000006044820152606490fd5b505f546001600160a01b03163314611202565b346101c05760203660031901126101c057600435335f52600660205260ff60405f2054168015611684575b6114d290611af1565b6114da611c52565b805f52600360205260405f209081546114f4811515611b2e565b600383019081549060ff8260a01c161580611675575b61151390611b70565b6001600160a01b0382165f90815260026020526040902060ff60a01b19909216600160a01b178355600382018054909161154c91611bb2565b9055835461155f60028301918254611bbf565b9055835461157260058301918254611bbf565b905542600a820155600184015442106115c4575b5060207f512d3e65b3e58c2187bb1872aa435dba5bd09c1c03823ba56ab70aac411e4a219160018060a01b039054169354604051908152a360018055005b8054916003830191828411610e78575f516020611da85f395f51905f5260a07f512d3e65b3e58c2187bb1872aa435dba5bd09c1c03823ba56ab70aac411e4a219560209561035281115f1461166e575061035280945b5561162c600180841b03865416611cc1565b600180831b03855416936040519182528682015260606040820152600f60608201526e19585c9b1e57dc995c185e5b595b9d608a1b6080820152a29150611586565b809461161a565b5060a882901c60ff161561150a565b505f546001600160a01b031633146114c9565b346101c05760203660031901126101c0576116b0611a3c565b5f6101606116bc611a75565b8281528260208201528260408201528260608201528260808201528260a08201528260c08201528260e0820152826101008201528261012082015282610140820152015260018060a01b03165f52600260205261018060405f2061171e611a75565b808083549384825260018101546020830190815260028201546040840190815260038301546060850190815260048401546080860190815260058501549160a0870192835260068601549360c0880194855260078701549560e0890196875261016060ff600b60088b01549a6101008d019b8c5261012060098201549d019c8d52610140600a8201549e019d8e520154169b019a15158b526040519b8c525160208c01525160408b01525160608a01525160808901525160a08801525160c08701525160e0860152516101008501525161012084015251610140830152511515610160820152f35b346101c05760203660031901126101c057611827611822611a3c565b611aae565b604080519215158352602083019190915290f35b346101c05760203660031901126101c0576001600160a01b0361185c611a3c565b165f9081526005602052604081208054825b8181106119c1575061187f83611a96565b60405193601f909101601f191684019067ffffffffffffffff8211858310176113ed576118b191604052808552611a96565b602084019290601f19013684375f905f5b83811061190d578486604051918291602083019060208452518091526040830191905f5b8181106118f4575050500390f35b82518452859450602093840193909201916001016118e6565b6119178183611a52565b90549060031b1c5f52600360205260ff600360405f20015460a01c161580611994575b611947575b6001016118c2565b916119528383611a52565b90549060031b1c9261196382611a67565b93875183101561198057602060019360051b89010152905061193f565b634e487b7160e01b5f52603260045260245ffd5b5061199f8183611a52565b90549060031b1c5f52600360205260ff600360405f20015460a81c161561193a565b6119cb8184611a52565b90549060031b1c5f52600360205260ff600360405f20015460a01c161580611a0f575b6119fb575b60010161186e565b92611a07600191611a67565b9390506119f3565b50611a1a8184611a52565b90549060031b1c5f52600360205260ff600360405f20015460a81c16156119ee565b600435906001600160a01b03821682036101c057565b8054821015611980575f5260205f2001905f90565b5f198114610e785760010190565b60405190610180820182811067ffffffffffffffff8211176113ed57604052565b67ffffffffffffffff81116113ed5760051b60200190565b60018060a01b03165f52600260205260405f209060ff600b8301541615611aea576102588254101591825f14611ae5576002015490565b505f90565b5f91508190565b15611af857565b60405162461bcd60e51b815260206004820152600e60248201526d139bdd08185d5d1a1bdc9a5e995960921b6044820152606490fd5b15611b3557565b60405162461bcd60e51b8152602060048201526013602482015272131bd85b88191bd95cc81b9bdd08195e1a5cdd606a1b6044820152606490fd5b15611b7757565b60405162461bcd60e51b8152602060048201526013602482015272131bd85b88185b1c9958591e4818db1bdcd959606a1b6044820152606490fd5b91908203918211610e7857565b91908201809211610e7857565b15611bd357565b60405162461bcd60e51b8152602060048201526016602482015275141c9bd99a5b1948191bd95cc81b9bdd08195e1a5cdd60521b6044820152606490fd5b90816102260291610226830403610e7857565b909160a09282526020820152606060408201526007606082015266191959985d5b1d60ca1b60808201520190565b600260015414611c63576002600155565b633ee5aeb560e01b5f5260045ffd5b61012b198101818111610e7857600a1015611c96576009198101908111610e785790565b5061012c90565b61012b198101818111610e785760641015611c96576063198101908111610e785790565b6001600160a01b03165f8181526002602052604090206001810180548254611ce890611d84565b818103611cf7575b5050505050565b7f518ebb45849ab9550b1e7f867b893d500f34bdfca24bc70f2c418114d2834ad193816040945560038101805483115f14611d5257611d396002915484611bb2565b9101555b82519182526020820152a25f80808080611cf0565b5060025f910155611d3d565b5f546001600160a01b03163303611d7157565b63118cdaa760e01b5f523360045260245ffd5b6102588110611ae557620f4240810290808204620f42401490151715610e78579056fe7e2add12a328a86680ec5cfd32c70eaa4590ecb9df3e614e146da05d547a5e30a2646970667358221220ef9c32430daaf5531ce954aca694080387fb0abf03ad844f1d42b8bd327fabce64736f6c63430008210033","linkReferences":{}},"methodIdentifiers":{"CREDIT_MULTIPLIER()":"8b7e48e9","MAX_CREDIT_RATIO()":"ff100819","MAX_SCORE()":"27ff6223","MIN_SCORE()":"40b89270","REPAYMENT_WINDOW()":"5ee0108e","SCORE_DEFAULT()":"87ec8d04","SCORE_EARLY_REPAYMENT()":"f9cfa30b","SCORE_FOR_CREDIT()":"ce315ea4","SCORE_LATE_PAYMENT()":"1f0cb290","SCORE_SUCCESSFUL_TXN()":"de0516d4","agentLoans(address,uint256)":"9dff5556","authorizeCaller(address)":"2c388d5d","authorizedCallers(address)":"536fff6c","checkCreditEligibility(address)":"090728dd","getActiveLoans(address)":"03d1a1a1","getAvailableCredit(address)":"b9b929fd","getCreditLimit(address)":"2c333e25","getProfile(address)":"0f53a470","getScore(address)":"d47875d0","hasActiveDebt(address)":"3403c25d","initializeProfile(address,uint256)":"cacef09b","loans(uint256)":"e1ec3c68","nextLoanId()":"87c51459","owner()":"8da5cb5b","processOverdueLoans(address)":"dca090eb","profiles(address)":"bbe15627","recordDefault(address)":"8df7352c","recordLatePayment(address)":"5c266d7a","recordLoan(address,uint256,uint256)":"1cfaf875","recordLoanDefault(uint256)":"f8d53329","recordRepayment(uint256)":"18db6d94","recordSuccessfulTransaction(address)":"432327f1","renounceOwnership()":"715018a6","revokeCaller(address)":"b7743530","syncFromReputation(address,uint256)":"496f74e8","transferOwnership(address)":"f2fde38b"},"id":40}